{
	"MyContract.sol": {
		"MyToken": {
			"abi": [
				{
					"inputs": [
						{
							"internalType": "uint256",
							"name": "initialSupply",
							"type": "uint256"
						},
						{
							"internalType": "string",
							"name": "tokenName",
							"type": "string"
						},
						{
							"internalType": "string",
							"name": "tokenSymbol",
							"type": "string"
						}
					],
					"stateMutability": "nonpayable",
					"type": "constructor"
				},
				{
					"anonymous": false,
					"inputs": [
						{
							"indexed": true,
							"internalType": "address",
							"name": "owner",
							"type": "address"
						},
						{
							"indexed": true,
							"internalType": "address",
							"name": "spender",
							"type": "address"
						},
						{
							"indexed": false,
							"internalType": "uint256",
							"name": "value",
							"type": "uint256"
						}
					],
					"name": "Approval",
					"type": "event"
				},
				{
					"anonymous": false,
					"inputs": [
						{
							"indexed": false,
							"internalType": "address",
							"name": "from",
							"type": "address"
						},
						{
							"indexed": false,
							"internalType": "address",
							"name": "to",
							"type": "address"
						},
						{
							"indexed": false,
							"internalType": "uint256",
							"name": "value",
							"type": "uint256"
						}
					],
					"name": "Transfer",
					"type": "event"
				},
				{
					"inputs": [],
					"name": "_owner",
					"outputs": [
						{
							"internalType": "address",
							"name": "",
							"type": "address"
						}
					],
					"stateMutability": "view",
					"type": "function"
				},
				{
					"inputs": [
						{
							"internalType": "address",
							"name": "",
							"type": "address"
						}
					],
					"name": "balanceOf",
					"outputs": [
						{
							"internalType": "uint256",
							"name": "",
							"type": "uint256"
						}
					],
					"stateMutability": "view",
					"type": "function"
				},
				{
					"inputs": [],
					"name": "decimals",
					"outputs": [
						{
							"internalType": "uint8",
							"name": "",
							"type": "uint8"
						}
					],
					"stateMutability": "view",
					"type": "function"
				},
				{
					"inputs": [
						{
							"internalType": "address",
							"name": "owner",
							"type": "address"
						},
						{
							"internalType": "address",
							"name": "_spender",
							"type": "address"
						}
					],
					"name": "getAllowance",
					"outputs": [
						{
							"internalType": "uint256",
							"name": "",
							"type": "uint256"
						}
					],
					"stateMutability": "view",
					"type": "function"
				},
				{
					"inputs": [
						{
							"internalType": "address",
							"name": "account",
							"type": "address"
						}
					],
					"name": "isFrozen",
					"outputs": [
						{
							"internalType": "bool",
							"name": "",
							"type": "bool"
						}
					],
					"stateMutability": "view",
					"type": "function"
				},
				{
					"inputs": [],
					"name": "name",
					"outputs": [
						{
							"internalType": "string",
							"name": "",
							"type": "string"
						}
					],
					"stateMutability": "view",
					"type": "function"
				},
				{
					"inputs": [
						{
							"internalType": "address",
							"name": "_spender",
							"type": "address"
						},
						{
							"internalType": "uint256",
							"name": "_value",
							"type": "uint256"
						}
					],
					"name": "setAllowance",
					"outputs": [
						{
							"internalType": "bool",
							"name": "",
							"type": "bool"
						}
					],
					"stateMutability": "nonpayable",
					"type": "function"
				},
				{
					"inputs": [
						{
							"internalType": "address",
							"name": "account",
							"type": "address"
						},
						{
							"internalType": "bool",
							"name": "status",
							"type": "bool"
						}
					],
					"name": "setFrozenAccount",
					"outputs": [
						{
							"internalType": "bool",
							"name": "success",
							"type": "bool"
						}
					],
					"stateMutability": "nonpayable",
					"type": "function"
				},
				{
					"inputs": [],
					"name": "symbol",
					"outputs": [
						{
							"internalType": "string",
							"name": "",
							"type": "string"
						}
					],
					"stateMutability": "view",
					"type": "function"
				},
				{
					"inputs": [],
					"name": "totalSupply",
					"outputs": [
						{
							"internalType": "uint256",
							"name": "",
							"type": "uint256"
						}
					],
					"stateMutability": "view",
					"type": "function"
				},
				{
					"inputs": [
						{
							"internalType": "address",
							"name": "_to",
							"type": "address"
						},
						{
							"internalType": "uint256",
							"name": "_value",
							"type": "uint256"
						}
					],
					"name": "transfer",
					"outputs": [
						{
							"internalType": "bool",
							"name": "success",
							"type": "bool"
						}
					],
					"stateMutability": "nonpayable",
					"type": "function"
				},
				{
					"inputs": [
						{
							"internalType": "address",
							"name": "_from",
							"type": "address"
						},
						{
							"internalType": "address",
							"name": "_to",
							"type": "address"
						},
						{
							"internalType": "uint256",
							"name": "_value",
							"type": "uint256"
						}
					],
					"name": "transferFrom",
					"outputs": [
						{
							"internalType": "bool",
							"name": "success",
							"type": "bool"
						}
					],
					"stateMutability": "nonpayable",
					"type": "function"
				}
			],
			"devdoc": {
				"kind": "dev",
				"methods": {},
				"version": 1
			},
			"evm": {
				"assembly": "    /* \"MyContract.sol\":60:4415  contract MyToken{... */\n  mstore(0x40, 0x80)\n    /* \"MyContract.sol\":321:323  18 */\n  0x12\n    /* \"MyContract.sol\":297:323  uint8 public decimals = 18 */\n  0x03\n  exp(0x0100, 0x00)\n  dup2\n  sload\n  dup2\n  0xff\n  mul\n  not\n  and\n  swap1\n  dup4\n  0xff\n  and\n  mul\n  or\n  swap1\n  sstore\n  pop\n    /* \"MyContract.sol\":1046:1339  constructor(uint256 initialSupply, string memory tokenName, string memory tokenSymbol) {... */\n  callvalue\n  dup1\n  iszero\n  tag_1\n  jumpi\n  0x00\n  dup1\n  revert\ntag_1:\n  pop\n  mload(0x40)\n  sub(codesize, bytecodeSize)\n  dup1\n  bytecodeSize\n  dup4\n  codecopy\n  dup2\n  dup2\n  add\n  0x40\n  mstore\n  dup2\n  add\n  swap1\n  tag_2\n  swap2\n  swap1\n  tag_3\n  jump\t// in\ntag_2:\n    /* \"MyContract.sol\":1188:1196  decimals */\n  0x03\n  0x00\n  swap1\n  sload\n  swap1\n  0x0100\n  exp\n  swap1\n  div\n  0xff\n  and\n    /* \"MyContract.sol\":1180:1197  uint256(decimals) */\n  0xff\n  and\n    /* \"MyContract.sol\":1174:1176  10 */\n  0x0a\n    /* \"MyContract.sol\":1174:1197  10 ** uint256(decimals) */\n  tag_6\n  swap2\n  swap1\n  tag_7\n  jump\t// in\ntag_6:\n    /* \"MyContract.sol\":1158:1171  initialSupply */\n  dup4\n    /* \"MyContract.sol\":1158:1197  initialSupply * 10 ** uint256(decimals) */\n  tag_8\n  swap2\n  swap1\n  tag_9\n  jump\t// in\ntag_8:\n    /* \"MyContract.sol\":1144:1155  totalSupply */\n  0x04\n    /* \"MyContract.sol\":1144:1197  totalSupply = initialSupply * 10 ** uint256(decimals) */\n  dup2\n  swap1\n  sstore\n  pop\n    /* \"MyContract.sol\":1232:1243  totalSupply */\n  sload(0x04)\n    /* \"MyContract.sol\":1208:1217  balanceOf */\n  0x05\n    /* \"MyContract.sol\":1208:1229  balanceOf[msg.sender] */\n  0x00\n    /* \"MyContract.sol\":1218:1228  msg.sender */\n  caller\n    /* \"MyContract.sol\":1208:1229  balanceOf[msg.sender] */\n  0xffffffffffffffffffffffffffffffffffffffff\n  and\n  0xffffffffffffffffffffffffffffffffffffffff\n  and\n  dup2\n  mstore\n  0x20\n  add\n  swap1\n  dup2\n  mstore\n  0x20\n  add\n  0x00\n  keccak256\n    /* \"MyContract.sol\":1208:1243  balanceOf[msg.sender] = totalSupply */\n  dup2\n  swap1\n  sstore\n  pop\n    /* \"MyContract.sol\":1261:1270  tokenName */\n  dup2\n    /* \"MyContract.sol\":1254:1258  name */\n  0x01\n    /* \"MyContract.sol\":1254:1270  name = tokenName */\n  swap1\n  dup2\n  tag_10\n  swap2\n  swap1\n  tag_11\n  jump\t// in\ntag_10:\n  pop\n    /* \"MyContract.sol\":1290:1301  tokenSymbol */\n  dup1\n    /* \"MyContract.sol\":1281:1287  symbol */\n  0x02\n    /* \"MyContract.sol\":1281:1301  symbol = tokenSymbol */\n  swap1\n  dup2\n  tag_12\n  swap2\n  swap1\n  tag_11\n  jump\t// in\ntag_12:\n  pop\n    /* \"MyContract.sol\":1321:1331  msg.sender */\n  caller\n    /* \"MyContract.sol\":1312:1318  _owner */\n  0x00\n  dup1\n    /* \"MyContract.sol\":1312:1331  _owner = msg.sender */\n  0x0100\n  exp\n  dup2\n  sload\n  dup2\n  0xffffffffffffffffffffffffffffffffffffffff\n  mul\n  not\n  and\n  swap1\n  dup4\n  0xffffffffffffffffffffffffffffffffffffffff\n  and\n  mul\n  or\n  swap1\n  sstore\n  pop\n    /* \"MyContract.sol\":1046:1339  constructor(uint256 initialSupply, string memory tokenName, string memory tokenSymbol) {... */\n  pop\n  pop\n  pop\n    /* \"MyContract.sol\":60:4415  contract MyToken{... */\n  jump(tag_13)\n    /* \"#utility.yul\":7:82   */\ntag_14:\n    /* \"#utility.yul\":40:46   */\n  0x00\n    /* \"#utility.yul\":73:75   */\n  0x40\n    /* \"#utility.yul\":67:76   */\n  mload\n    /* \"#utility.yul\":57:76   */\n  swap1\n  pop\n    /* \"#utility.yul\":7:82   */\n  swap1\n  jump\t// out\n    /* \"#utility.yul\":88:205   */\ntag_15:\n    /* \"#utility.yul\":197:198   */\n  0x00\n    /* \"#utility.yul\":194:195   */\n  dup1\n    /* \"#utility.yul\":187:199   */\n  revert\n    /* \"#utility.yul\":211:328   */\ntag_16:\n    /* \"#utility.yul\":320:321   */\n  0x00\n    /* \"#utility.yul\":317:318   */\n  dup1\n    /* \"#utility.yul\":310:322   */\n  revert\n    /* \"#utility.yul\":334:411   */\ntag_17:\n    /* \"#utility.yul\":371:378   */\n  0x00\n    /* \"#utility.yul\":400:405   */\n  dup2\n    /* \"#utility.yul\":389:405   */\n  swap1\n  pop\n    /* \"#utility.yul\":334:411   */\n  swap2\n  swap1\n  pop\n  jump\t// out\n    /* \"#utility.yul\":417:539   */\ntag_18:\n    /* \"#utility.yul\":490:514   */\n  tag_58\n    /* \"#utility.yul\":508:513   */\n  dup2\n    /* \"#utility.yul\":490:514   */\n  tag_17\n  jump\t// in\ntag_58:\n    /* \"#utility.yul\":483:488   */\n  dup2\n    /* \"#utility.yul\":480:515   */\n  eq\n    /* \"#utility.yul\":470:533   */\n  tag_59\n  jumpi\n    /* \"#utility.yul\":529:530   */\n  0x00\n    /* \"#utility.yul\":526:527   */\n  dup1\n    /* \"#utility.yul\":519:531   */\n  revert\n    /* \"#utility.yul\":470:533   */\ntag_59:\n    /* \"#utility.yul\":417:539   */\n  pop\n  jump\t// out\n    /* \"#utility.yul\":545:688   */\ntag_19:\n    /* \"#utility.yul\":602:607   */\n  0x00\n    /* \"#utility.yul\":633:639   */\n  dup2\n    /* \"#utility.yul\":627:640   */\n  mload\n    /* \"#utility.yul\":618:640   */\n  swap1\n  pop\n    /* \"#utility.yul\":649:682   */\n  tag_61\n    /* \"#utility.yul\":676:681   */\n  dup2\n    /* \"#utility.yul\":649:682   */\n  tag_18\n  jump\t// in\ntag_61:\n    /* \"#utility.yul\":545:688   */\n  swap3\n  swap2\n  pop\n  pop\n  jump\t// out\n    /* \"#utility.yul\":694:811   */\ntag_20:\n    /* \"#utility.yul\":803:804   */\n  0x00\n    /* \"#utility.yul\":800:801   */\n  dup1\n    /* \"#utility.yul\":793:805   */\n  revert\n    /* \"#utility.yul\":817:934   */\ntag_21:\n    /* \"#utility.yul\":926:927   */\n  0x00\n    /* \"#utility.yul\":923:924   */\n  dup1\n    /* \"#utility.yul\":916:928   */\n  revert\n    /* \"#utility.yul\":940:1042   */\ntag_22:\n    /* \"#utility.yul\":981:987   */\n  0x00\n    /* \"#utility.yul\":1032:1034   */\n  0x1f\n    /* \"#utility.yul\":1028:1035   */\n  not\n    /* \"#utility.yul\":1023:1025   */\n  0x1f\n    /* \"#utility.yul\":1016:1021   */\n  dup4\n    /* \"#utility.yul\":1012:1026   */\n  add\n    /* \"#utility.yul\":1008:1036   */\n  and\n    /* \"#utility.yul\":998:1036   */\n  swap1\n  pop\n    /* \"#utility.yul\":940:1042   */\n  swap2\n  swap1\n  pop\n  jump\t// out\n    /* \"#utility.yul\":1048:1228   */\ntag_23:\n    /* \"#utility.yul\":1096:1173   */\n  0x4e487b7100000000000000000000000000000000000000000000000000000000\n    /* \"#utility.yul\":1093:1094   */\n  0x00\n    /* \"#utility.yul\":1086:1174   */\n  mstore\n    /* \"#utility.yul\":1193:1197   */\n  0x41\n    /* \"#utility.yul\":1190:1191   */\n  0x04\n    /* \"#utility.yul\":1183:1198   */\n  mstore\n    /* \"#utility.yul\":1217:1221   */\n  0x24\n    /* \"#utility.yul\":1214:1215   */\n  0x00\n    /* \"#utility.yul\":1207:1222   */\n  revert\n    /* \"#utility.yul\":1234:1515   */\ntag_24:\n    /* \"#utility.yul\":1317:1344   */\n  tag_67\n    /* \"#utility.yul\":1339:1343   */\n  dup3\n    /* \"#utility.yul\":1317:1344   */\n  tag_22\n  jump\t// in\ntag_67:\n    /* \"#utility.yul\":1309:1315   */\n  dup2\n    /* \"#utility.yul\":1305:1345   */\n  add\n    /* \"#utility.yul\":1447:1453   */\n  dup2\n    /* \"#utility.yul\":1435:1445   */\n  dup2\n    /* \"#utility.yul\":1432:1454   */\n  lt\n    /* \"#utility.yul\":1411:1429   */\n  0xffffffffffffffff\n    /* \"#utility.yul\":1399:1409   */\n  dup3\n    /* \"#utility.yul\":1396:1430   */\n  gt\n    /* \"#utility.yul\":1393:1455   */\n  or\n    /* \"#utility.yul\":1390:1478   */\n  iszero\n  tag_68\n  jumpi\n    /* \"#utility.yul\":1458:1476   */\n  tag_69\n  tag_23\n  jump\t// in\ntag_69:\n    /* \"#utility.yul\":1390:1478   */\ntag_68:\n    /* \"#utility.yul\":1498:1508   */\n  dup1\n    /* \"#utility.yul\":1494:1496   */\n  0x40\n    /* \"#utility.yul\":1487:1509   */\n  mstore\n    /* \"#utility.yul\":1277:1515   */\n  pop\n    /* \"#utility.yul\":1234:1515   */\n  pop\n  pop\n  jump\t// out\n    /* \"#utility.yul\":1521:1650   */\ntag_25:\n    /* \"#utility.yul\":1555:1561   */\n  0x00\n    /* \"#utility.yul\":1582:1602   */\n  tag_71\n  tag_14\n  jump\t// in\ntag_71:\n    /* \"#utility.yul\":1572:1602   */\n  swap1\n  pop\n    /* \"#utility.yul\":1611:1644   */\n  tag_72\n    /* \"#utility.yul\":1639:1643   */\n  dup3\n    /* \"#utility.yul\":1631:1637   */\n  dup3\n    /* \"#utility.yul\":1611:1644   */\n  tag_24\n  jump\t// in\ntag_72:\n    /* \"#utility.yul\":1521:1650   */\n  swap2\n  swap1\n  pop\n  jump\t// out\n    /* \"#utility.yul\":1656:1964   */\ntag_26:\n    /* \"#utility.yul\":1718:1722   */\n  0x00\n    /* \"#utility.yul\":1808:1826   */\n  0xffffffffffffffff\n    /* \"#utility.yul\":1800:1806   */\n  dup3\n    /* \"#utility.yul\":1797:1827   */\n  gt\n    /* \"#utility.yul\":1794:1850   */\n  iszero\n  tag_74\n  jumpi\n    /* \"#utility.yul\":1830:1848   */\n  tag_75\n  tag_23\n  jump\t// in\ntag_75:\n    /* \"#utility.yul\":1794:1850   */\ntag_74:\n    /* \"#utility.yul\":1868:1897   */\n  tag_76\n    /* \"#utility.yul\":1890:1896   */\n  dup3\n    /* \"#utility.yul\":1868:1897   */\n  tag_22\n  jump\t// in\ntag_76:\n    /* \"#utility.yul\":1860:1897   */\n  swap1\n  pop\n    /* \"#utility.yul\":1952:1956   */\n  0x20\n    /* \"#utility.yul\":1946:1950   */\n  dup2\n    /* \"#utility.yul\":1942:1957   */\n  add\n    /* \"#utility.yul\":1934:1957   */\n  swap1\n  pop\n    /* \"#utility.yul\":1656:1964   */\n  swap2\n  swap1\n  pop\n  jump\t// out\n    /* \"#utility.yul\":1970:2216   */\ntag_27:\n    /* \"#utility.yul\":2051:2052   */\n  0x00\n    /* \"#utility.yul\":2061:2174   */\ntag_78:\n    /* \"#utility.yul\":2075:2081   */\n  dup4\n    /* \"#utility.yul\":2072:2073   */\n  dup2\n    /* \"#utility.yul\":2069:2082   */\n  lt\n    /* \"#utility.yul\":2061:2174   */\n  iszero\n  tag_80\n  jumpi\n    /* \"#utility.yul\":2160:2161   */\n  dup1\n    /* \"#utility.yul\":2155:2158   */\n  dup3\n    /* \"#utility.yul\":2151:2162   */\n  add\n    /* \"#utility.yul\":2145:2163   */\n  mload\n    /* \"#utility.yul\":2141:2142   */\n  dup2\n    /* \"#utility.yul\":2136:2139   */\n  dup5\n    /* \"#utility.yul\":2132:2143   */\n  add\n    /* \"#utility.yul\":2125:2164   */\n  mstore\n    /* \"#utility.yul\":2097:2099   */\n  0x20\n    /* \"#utility.yul\":2094:2095   */\n  dup2\n    /* \"#utility.yul\":2090:2100   */\n  add\n    /* \"#utility.yul\":2085:2100   */\n  swap1\n  pop\n    /* \"#utility.yul\":2061:2174   */\n  jump(tag_78)\ntag_80:\n    /* \"#utility.yul\":2208:2209   */\n  0x00\n    /* \"#utility.yul\":2199:2205   */\n  dup5\n    /* \"#utility.yul\":2194:2197   */\n  dup5\n    /* \"#utility.yul\":2190:2206   */\n  add\n    /* \"#utility.yul\":2183:2210   */\n  mstore\n    /* \"#utility.yul\":2032:2216   */\n  pop\n    /* \"#utility.yul\":1970:2216   */\n  pop\n  pop\n  pop\n  jump\t// out\n    /* \"#utility.yul\":2222:2656   */\ntag_28:\n    /* \"#utility.yul\":2311:2316   */\n  0x00\n    /* \"#utility.yul\":2336:2402   */\n  tag_82\n    /* \"#utility.yul\":2352:2401   */\n  tag_83\n    /* \"#utility.yul\":2394:2400   */\n  dup5\n    /* \"#utility.yul\":2352:2401   */\n  tag_26\n  jump\t// in\ntag_83:\n    /* \"#utility.yul\":2336:2402   */\n  tag_25\n  jump\t// in\ntag_82:\n    /* \"#utility.yul\":2327:2402   */\n  swap1\n  pop\n    /* \"#utility.yul\":2425:2431   */\n  dup3\n    /* \"#utility.yul\":2418:2423   */\n  dup2\n    /* \"#utility.yul\":2411:2432   */\n  mstore\n    /* \"#utility.yul\":2463:2467   */\n  0x20\n    /* \"#utility.yul\":2456:2461   */\n  dup2\n    /* \"#utility.yul\":2452:2468   */\n  add\n    /* \"#utility.yul\":2501:2504   */\n  dup5\n    /* \"#utility.yul\":2492:2498   */\n  dup5\n    /* \"#utility.yul\":2487:2490   */\n  dup5\n    /* \"#utility.yul\":2483:2499   */\n  add\n    /* \"#utility.yul\":2480:2505   */\n  gt\n    /* \"#utility.yul\":2477:2589   */\n  iszero\n  tag_84\n  jumpi\n    /* \"#utility.yul\":2508:2587   */\n  tag_85\n  tag_21\n  jump\t// in\ntag_85:\n    /* \"#utility.yul\":2477:2589   */\ntag_84:\n    /* \"#utility.yul\":2598:2650   */\n  tag_86\n    /* \"#utility.yul\":2643:2649   */\n  dup5\n    /* \"#utility.yul\":2638:2641   */\n  dup3\n    /* \"#utility.yul\":2633:2636   */\n  dup6\n    /* \"#utility.yul\":2598:2650   */\n  tag_27\n  jump\t// in\ntag_86:\n    /* \"#utility.yul\":2317:2656   */\n  pop\n    /* \"#utility.yul\":2222:2656   */\n  swap4\n  swap3\n  pop\n  pop\n  pop\n  jump\t// out\n    /* \"#utility.yul\":2676:3031   */\ntag_29:\n    /* \"#utility.yul\":2743:2748   */\n  0x00\n    /* \"#utility.yul\":2792:2795   */\n  dup3\n    /* \"#utility.yul\":2785:2789   */\n  0x1f\n    /* \"#utility.yul\":2777:2783   */\n  dup4\n    /* \"#utility.yul\":2773:2790   */\n  add\n    /* \"#utility.yul\":2769:2796   */\n  slt\n    /* \"#utility.yul\":2759:2881   */\n  tag_88\n  jumpi\n    /* \"#utility.yul\":2800:2879   */\n  tag_89\n  tag_20\n  jump\t// in\ntag_89:\n    /* \"#utility.yul\":2759:2881   */\ntag_88:\n    /* \"#utility.yul\":2910:2916   */\n  dup2\n    /* \"#utility.yul\":2904:2917   */\n  mload\n    /* \"#utility.yul\":2935:3025   */\n  tag_90\n    /* \"#utility.yul\":3021:3024   */\n  dup5\n    /* \"#utility.yul\":3013:3019   */\n  dup3\n    /* \"#utility.yul\":3006:3010   */\n  0x20\n    /* \"#utility.yul\":2998:3004   */\n  dup7\n    /* \"#utility.yul\":2994:3011   */\n  add\n    /* \"#utility.yul\":2935:3025   */\n  tag_28\n  jump\t// in\ntag_90:\n    /* \"#utility.yul\":2926:3025   */\n  swap2\n  pop\n    /* \"#utility.yul\":2749:3031   */\n  pop\n    /* \"#utility.yul\":2676:3031   */\n  swap3\n  swap2\n  pop\n  pop\n  jump\t// out\n    /* \"#utility.yul\":3037:4046   */\ntag_3:\n    /* \"#utility.yul\":3145:3151   */\n  0x00\n    /* \"#utility.yul\":3153:3159   */\n  dup1\n    /* \"#utility.yul\":3161:3167   */\n  0x00\n    /* \"#utility.yul\":3210:3212   */\n  0x60\n    /* \"#utility.yul\":3198:3207   */\n  dup5\n    /* \"#utility.yul\":3189:3196   */\n  dup7\n    /* \"#utility.yul\":3185:3208   */\n  sub\n    /* \"#utility.yul\":3181:3213   */\n  slt\n    /* \"#utility.yul\":3178:3297   */\n  iszero\n  tag_92\n  jumpi\n    /* \"#utility.yul\":3216:3295   */\n  tag_93\n  tag_15\n  jump\t// in\ntag_93:\n    /* \"#utility.yul\":3178:3297   */\ntag_92:\n    /* \"#utility.yul\":3336:3337   */\n  0x00\n    /* \"#utility.yul\":3361:3425   */\n  tag_94\n    /* \"#utility.yul\":3417:3424   */\n  dup7\n    /* \"#utility.yul\":3408:3414   */\n  dup3\n    /* \"#utility.yul\":3397:3406   */\n  dup8\n    /* \"#utility.yul\":3393:3415   */\n  add\n    /* \"#utility.yul\":3361:3425   */\n  tag_19\n  jump\t// in\ntag_94:\n    /* \"#utility.yul\":3351:3425   */\n  swap4\n  pop\n    /* \"#utility.yul\":3307:3435   */\n  pop\n    /* \"#utility.yul\":3495:3497   */\n  0x20\n    /* \"#utility.yul\":3484:3493   */\n  dup5\n    /* \"#utility.yul\":3480:3498   */\n  add\n    /* \"#utility.yul\":3474:3499   */\n  mload\n    /* \"#utility.yul\":3526:3544   */\n  0xffffffffffffffff\n    /* \"#utility.yul\":3518:3524   */\n  dup2\n    /* \"#utility.yul\":3515:3545   */\n  gt\n    /* \"#utility.yul\":3512:3629   */\n  iszero\n  tag_95\n  jumpi\n    /* \"#utility.yul\":3548:3627   */\n  tag_96\n  tag_16\n  jump\t// in\ntag_96:\n    /* \"#utility.yul\":3512:3629   */\ntag_95:\n    /* \"#utility.yul\":3653:3727   */\n  tag_97\n    /* \"#utility.yul\":3719:3726   */\n  dup7\n    /* \"#utility.yul\":3710:3716   */\n  dup3\n    /* \"#utility.yul\":3699:3708   */\n  dup8\n    /* \"#utility.yul\":3695:3717   */\n  add\n    /* \"#utility.yul\":3653:3727   */\n  tag_29\n  jump\t// in\ntag_97:\n    /* \"#utility.yul\":3643:3727   */\n  swap3\n  pop\n    /* \"#utility.yul\":3445:3737   */\n  pop\n    /* \"#utility.yul\":3797:3799   */\n  0x40\n    /* \"#utility.yul\":3786:3795   */\n  dup5\n    /* \"#utility.yul\":3782:3800   */\n  add\n    /* \"#utility.yul\":3776:3801   */\n  mload\n    /* \"#utility.yul\":3828:3846   */\n  0xffffffffffffffff\n    /* \"#utility.yul\":3820:3826   */\n  dup2\n    /* \"#utility.yul\":3817:3847   */\n  gt\n    /* \"#utility.yul\":3814:3931   */\n  iszero\n  tag_98\n  jumpi\n    /* \"#utility.yul\":3850:3929   */\n  tag_99\n  tag_16\n  jump\t// in\ntag_99:\n    /* \"#utility.yul\":3814:3931   */\ntag_98:\n    /* \"#utility.yul\":3955:4029   */\n  tag_100\n    /* \"#utility.yul\":4021:4028   */\n  dup7\n    /* \"#utility.yul\":4012:4018   */\n  dup3\n    /* \"#utility.yul\":4001:4010   */\n  dup8\n    /* \"#utility.yul\":3997:4019   */\n  add\n    /* \"#utility.yul\":3955:4029   */\n  tag_29\n  jump\t// in\ntag_100:\n    /* \"#utility.yul\":3945:4029   */\n  swap2\n  pop\n    /* \"#utility.yul\":3747:4039   */\n  pop\n    /* \"#utility.yul\":3037:4046   */\n  swap3\n  pop\n  swap3\n  pop\n  swap3\n  jump\t// out\n    /* \"#utility.yul\":4052:4232   */\ntag_30:\n    /* \"#utility.yul\":4100:4177   */\n  0x4e487b7100000000000000000000000000000000000000000000000000000000\n    /* \"#utility.yul\":4097:4098   */\n  0x00\n    /* \"#utility.yul\":4090:4178   */\n  mstore\n    /* \"#utility.yul\":4197:4201   */\n  0x11\n    /* \"#utility.yul\":4194:4195   */\n  0x04\n    /* \"#utility.yul\":4187:4202   */\n  mstore\n    /* \"#utility.yul\":4221:4225   */\n  0x24\n    /* \"#utility.yul\":4218:4219   */\n  0x00\n    /* \"#utility.yul\":4211:4226   */\n  revert\n    /* \"#utility.yul\":4238:4340   */\ntag_31:\n    /* \"#utility.yul\":4280:4288   */\n  0x00\n    /* \"#utility.yul\":4327:4332   */\n  dup2\n    /* \"#utility.yul\":4324:4325   */\n  0x01\n    /* \"#utility.yul\":4320:4333   */\n  shr\n    /* \"#utility.yul\":4299:4333   */\n  swap1\n  pop\n    /* \"#utility.yul\":4238:4340   */\n  swap2\n  swap1\n  pop\n  jump\t// out\n    /* \"#utility.yul\":4346:5194   */\ntag_32:\n    /* \"#utility.yul\":4407:4412   */\n  0x00\n    /* \"#utility.yul\":4414:4418   */\n  dup1\n    /* \"#utility.yul\":4438:4444   */\n  dup3\n    /* \"#utility.yul\":4429:4444   */\n  swap2\n  pop\n    /* \"#utility.yul\":4462:4467   */\n  dup4\n    /* \"#utility.yul\":4453:4467   */\n  swap1\n  pop\n    /* \"#utility.yul\":4476:5188   */\ntag_104:\n    /* \"#utility.yul\":4497:4498   */\n  0x01\n    /* \"#utility.yul\":4487:4495   */\n  dup6\n    /* \"#utility.yul\":4484:4499   */\n  gt\n    /* \"#utility.yul\":4476:5188   */\n  iszero\n  tag_106\n  jumpi\n    /* \"#utility.yul\":4592:4596   */\n  dup1\n    /* \"#utility.yul\":4587:4590   */\n  dup7\n    /* \"#utility.yul\":4583:4597   */\n  div\n    /* \"#utility.yul\":4577:4581   */\n  dup2\n    /* \"#utility.yul\":4574:4598   */\n  gt\n    /* \"#utility.yul\":4571:4621   */\n  iszero\n  tag_107\n  jumpi\n    /* \"#utility.yul\":4601:4619   */\n  tag_108\n  tag_30\n  jump\t// in\ntag_108:\n    /* \"#utility.yul\":4571:4621   */\ntag_107:\n    /* \"#utility.yul\":4651:4652   */\n  0x01\n    /* \"#utility.yul\":4641:4649   */\n  dup6\n    /* \"#utility.yul\":4637:4653   */\n  and\n    /* \"#utility.yul\":4634:5085   */\n  iszero\n  tag_109\n  jumpi\n    /* \"#utility.yul\":5066:5070   */\n  dup1\n    /* \"#utility.yul\":5059:5064   */\n  dup3\n    /* \"#utility.yul\":5055:5071   */\n  mul\n    /* \"#utility.yul\":5046:5071   */\n  swap2\n  pop\n    /* \"#utility.yul\":4634:5085   */\ntag_109:\n    /* \"#utility.yul\":5116:5120   */\n  dup1\n    /* \"#utility.yul\":5110:5114   */\n  dup2\n    /* \"#utility.yul\":5106:5121   */\n  mul\n    /* \"#utility.yul\":5098:5121   */\n  swap1\n  pop\n    /* \"#utility.yul\":5146:5178   */\n  tag_110\n    /* \"#utility.yul\":5169:5177   */\n  dup6\n    /* \"#utility.yul\":5146:5178   */\n  tag_31\n  jump\t// in\ntag_110:\n    /* \"#utility.yul\":5134:5178   */\n  swap5\n  pop\n    /* \"#utility.yul\":4476:5188   */\n  jump(tag_104)\ntag_106:\n    /* \"#utility.yul\":4346:5194   */\n  swap5\n  pop\n  swap5\n  swap3\n  pop\n  pop\n  pop\n  jump\t// out\n    /* \"#utility.yul\":5200:6273   */\ntag_33:\n    /* \"#utility.yul\":5254:5259   */\n  0x00\n    /* \"#utility.yul\":5445:5453   */\n  dup3\n    /* \"#utility.yul\":5435:5475   */\n  tag_112\n  jumpi\n    /* \"#utility.yul\":5466:5467   */\n  0x01\n    /* \"#utility.yul\":5457:5467   */\n  swap1\n  pop\n    /* \"#utility.yul\":5468:5473   */\n  jump(tag_111)\n    /* \"#utility.yul\":5435:5475   */\ntag_112:\n    /* \"#utility.yul\":5494:5498   */\n  dup2\n    /* \"#utility.yul\":5484:5520   */\n  tag_113\n  jumpi\n    /* \"#utility.yul\":5511:5512   */\n  0x00\n    /* \"#utility.yul\":5502:5512   */\n  swap1\n  pop\n    /* \"#utility.yul\":5513:5518   */\n  jump(tag_111)\n    /* \"#utility.yul\":5484:5520   */\ntag_113:\n    /* \"#utility.yul\":5580:5584   */\n  dup2\n    /* \"#utility.yul\":5628:5629   */\n  0x01\n    /* \"#utility.yul\":5623:5650   */\n  dup2\n  eq\n  tag_115\n  jumpi\n    /* \"#utility.yul\":5664:5665   */\n  0x02\n    /* \"#utility.yul\":5659:5850   */\n  dup2\n  eq\n  tag_116\n  jumpi\n    /* \"#utility.yul\":5573:5850   */\n  jump(tag_114)\n    /* \"#utility.yul\":5623:5650   */\ntag_115:\n    /* \"#utility.yul\":5641:5642   */\n  0x01\n    /* \"#utility.yul\":5632:5642   */\n  swap2\n  pop\n    /* \"#utility.yul\":5643:5648   */\n  pop\n  jump(tag_111)\n    /* \"#utility.yul\":5659:5850   */\ntag_116:\n    /* \"#utility.yul\":5704:5707   */\n  0xff\n    /* \"#utility.yul\":5694:5702   */\n  dup5\n    /* \"#utility.yul\":5691:5708   */\n  gt\n    /* \"#utility.yul\":5688:5731   */\n  iszero\n  tag_117\n  jumpi\n    /* \"#utility.yul\":5711:5729   */\n  tag_118\n  tag_30\n  jump\t// in\ntag_118:\n    /* \"#utility.yul\":5688:5731   */\ntag_117:\n    /* \"#utility.yul\":5760:5768   */\n  dup4\n    /* \"#utility.yul\":5757:5758   */\n  0x02\n    /* \"#utility.yul\":5753:5769   */\n  exp\n    /* \"#utility.yul\":5744:5769   */\n  swap2\n  pop\n    /* \"#utility.yul\":5795:5798   */\n  dup5\n    /* \"#utility.yul\":5788:5793   */\n  dup3\n    /* \"#utility.yul\":5785:5799   */\n  gt\n    /* \"#utility.yul\":5782:5822   */\n  iszero\n  tag_119\n  jumpi\n    /* \"#utility.yul\":5802:5820   */\n  tag_120\n  tag_30\n  jump\t// in\ntag_120:\n    /* \"#utility.yul\":5782:5822   */\ntag_119:\n    /* \"#utility.yul\":5835:5840   */\n  pop\n  jump(tag_111)\n    /* \"#utility.yul\":5573:5850   */\ntag_114:\n  pop\n    /* \"#utility.yul\":5959:5961   */\n  0x20\n    /* \"#utility.yul\":5949:5957   */\n  dup4\n    /* \"#utility.yul\":5946:5962   */\n  lt\n    /* \"#utility.yul\":5940:5943   */\n  0x0133\n    /* \"#utility.yul\":5934:5938   */\n  dup4\n    /* \"#utility.yul\":5931:5944   */\n  lt\n    /* \"#utility.yul\":5927:5963   */\n  and\n    /* \"#utility.yul\":5909:5911   */\n  0x4e\n    /* \"#utility.yul\":5899:5907   */\n  dup5\n    /* \"#utility.yul\":5896:5912   */\n  lt\n    /* \"#utility.yul\":5891:5893   */\n  0x0b\n    /* \"#utility.yul\":5885:5889   */\n  dup5\n    /* \"#utility.yul\":5882:5894   */\n  lt\n    /* \"#utility.yul\":5878:5913   */\n  and\n    /* \"#utility.yul\":5862:5973   */\n  or\n    /* \"#utility.yul\":5859:6105   */\n  iszero\n  tag_121\n  jumpi\n    /* \"#utility.yul\":6015:6023   */\n  dup3\n    /* \"#utility.yul\":6009:6013   */\n  dup3\n    /* \"#utility.yul\":6005:6024   */\n  exp\n    /* \"#utility.yul\":5996:6024   */\n  swap1\n  pop\n    /* \"#utility.yul\":6050:6053   */\n  dup4\n    /* \"#utility.yul\":6043:6048   */\n  dup2\n    /* \"#utility.yul\":6040:6054   */\n  gt\n    /* \"#utility.yul\":6037:6077   */\n  iszero\n  tag_122\n  jumpi\n    /* \"#utility.yul\":6057:6075   */\n  tag_123\n  tag_30\n  jump\t// in\ntag_123:\n    /* \"#utility.yul\":6037:6077   */\ntag_122:\n    /* \"#utility.yul\":6090:6095   */\n  jump(tag_111)\n    /* \"#utility.yul\":5859:6105   */\ntag_121:\n    /* \"#utility.yul\":6130:6172   */\n  tag_124\n    /* \"#utility.yul\":6168:6171   */\n  dup5\n    /* \"#utility.yul\":6158:6166   */\n  dup5\n    /* \"#utility.yul\":6152:6156   */\n  dup5\n    /* \"#utility.yul\":6149:6150   */\n  0x01\n    /* \"#utility.yul\":6130:6172   */\n  tag_32\n  jump\t// in\ntag_124:\n    /* \"#utility.yul\":6115:6172   */\n  swap3\n  pop\n  swap1\n  pop\n    /* \"#utility.yul\":6204:6208   */\n  dup2\n    /* \"#utility.yul\":6199:6202   */\n  dup5\n    /* \"#utility.yul\":6195:6209   */\n  div\n    /* \"#utility.yul\":6188:6193   */\n  dup2\n    /* \"#utility.yul\":6185:6210   */\n  gt\n    /* \"#utility.yul\":6182:6233   */\n  iszero\n  tag_125\n  jumpi\n    /* \"#utility.yul\":6213:6231   */\n  tag_126\n  tag_30\n  jump\t// in\ntag_126:\n    /* \"#utility.yul\":6182:6233   */\ntag_125:\n    /* \"#utility.yul\":6262:6266   */\n  dup2\n    /* \"#utility.yul\":6255:6260   */\n  dup2\n    /* \"#utility.yul\":6251:6267   */\n  mul\n    /* \"#utility.yul\":6242:6267   */\n  swap1\n  pop\n    /* \"#utility.yul\":5200:6273   */\ntag_111:\n  swap4\n  swap3\n  pop\n  pop\n  pop\n  jump\t// out\n    /* \"#utility.yul\":6279:6564   */\ntag_7:\n    /* \"#utility.yul\":6339:6344   */\n  0x00\n    /* \"#utility.yul\":6363:6386   */\n  tag_128\n    /* \"#utility.yul\":6381:6385   */\n  dup3\n    /* \"#utility.yul\":6363:6386   */\n  tag_17\n  jump\t// in\ntag_128:\n    /* \"#utility.yul\":6355:6386   */\n  swap2\n  pop\n    /* \"#utility.yul\":6407:6434   */\n  tag_129\n    /* \"#utility.yul\":6425:6433   */\n  dup4\n    /* \"#utility.yul\":6407:6434   */\n  tag_17\n  jump\t// in\ntag_129:\n    /* \"#utility.yul\":6395:6434   */\n  swap3\n  pop\n    /* \"#utility.yul\":6453:6557   */\n  tag_130\n    /* \"#utility.yul\":6490:6556   */\n  0xffffffffffffffffffffffffffffffffffffffffffffffffffffffffffffffff\n    /* \"#utility.yul\":6480:6488   */\n  dup5\n    /* \"#utility.yul\":6474:6478   */\n  dup5\n    /* \"#utility.yul\":6453:6557   */\n  tag_33\n  jump\t// in\ntag_130:\n    /* \"#utility.yul\":6444:6557   */\n  swap1\n  pop\n    /* \"#utility.yul\":6279:6564   */\n  swap3\n  swap2\n  pop\n  pop\n  jump\t// out\n    /* \"#utility.yul\":6570:6980   */\ntag_9:\n    /* \"#utility.yul\":6610:6617   */\n  0x00\n    /* \"#utility.yul\":6633:6653   */\n  tag_132\n    /* \"#utility.yul\":6651:6652   */\n  dup3\n    /* \"#utility.yul\":6633:6653   */\n  tag_17\n  jump\t// in\ntag_132:\n    /* \"#utility.yul\":6628:6653   */\n  swap2\n  pop\n    /* \"#utility.yul\":6667:6687   */\n  tag_133\n    /* \"#utility.yul\":6685:6686   */\n  dup4\n    /* \"#utility.yul\":6667:6687   */\n  tag_17\n  jump\t// in\ntag_133:\n    /* \"#utility.yul\":6662:6687   */\n  swap3\n  pop\n    /* \"#utility.yul\":6722:6723   */\n  dup3\n    /* \"#utility.yul\":6719:6720   */\n  dup3\n    /* \"#utility.yul\":6715:6724   */\n  mul\n    /* \"#utility.yul\":6744:6774   */\n  tag_134\n    /* \"#utility.yul\":6762:6773   */\n  dup2\n    /* \"#utility.yul\":6744:6774   */\n  tag_17\n  jump\t// in\ntag_134:\n    /* \"#utility.yul\":6733:6774   */\n  swap2\n  pop\n    /* \"#utility.yul\":6923:6924   */\n  dup3\n    /* \"#utility.yul\":6914:6921   */\n  dup3\n    /* \"#utility.yul\":6910:6925   */\n  div\n    /* \"#utility.yul\":6907:6908   */\n  dup5\n    /* \"#utility.yul\":6904:6926   */\n  eq\n    /* \"#utility.yul\":6884:6885   */\n  dup4\n    /* \"#utility.yul\":6877:6886   */\n  iszero\n    /* \"#utility.yul\":6857:6940   */\n  or\n    /* \"#utility.yul\":6834:6973   */\n  tag_135\n  jumpi\n    /* \"#utility.yul\":6953:6971   */\n  tag_136\n  tag_30\n  jump\t// in\ntag_136:\n    /* \"#utility.yul\":6834:6973   */\ntag_135:\n    /* \"#utility.yul\":6618:6980   */\n  pop\n    /* \"#utility.yul\":6570:6980   */\n  swap3\n  swap2\n  pop\n  pop\n  jump\t// out\n    /* \"#utility.yul\":6986:7085   */\ntag_34:\n    /* \"#utility.yul\":7038:7044   */\n  0x00\n    /* \"#utility.yul\":7072:7077   */\n  dup2\n    /* \"#utility.yul\":7066:7078   */\n  mload\n    /* \"#utility.yul\":7056:7078   */\n  swap1\n  pop\n    /* \"#utility.yul\":6986:7085   */\n  swap2\n  swap1\n  pop\n  jump\t// out\n    /* \"#utility.yul\":7091:7271   */\ntag_35:\n    /* \"#utility.yul\":7139:7216   */\n  0x4e487b7100000000000000000000000000000000000000000000000000000000\n    /* \"#utility.yul\":7136:7137   */\n  0x00\n    /* \"#utility.yul\":7129:7217   */\n  mstore\n    /* \"#utility.yul\":7236:7240   */\n  0x22\n    /* \"#utility.yul\":7233:7234   */\n  0x04\n    /* \"#utility.yul\":7226:7241   */\n  mstore\n    /* \"#utility.yul\":7260:7264   */\n  0x24\n    /* \"#utility.yul\":7257:7258   */\n  0x00\n    /* \"#utility.yul\":7250:7265   */\n  revert\n    /* \"#utility.yul\":7277:7597   */\ntag_36:\n    /* \"#utility.yul\":7321:7327   */\n  0x00\n    /* \"#utility.yul\":7358:7359   */\n  0x02\n    /* \"#utility.yul\":7352:7356   */\n  dup3\n    /* \"#utility.yul\":7348:7360   */\n  div\n    /* \"#utility.yul\":7338:7360   */\n  swap1\n  pop\n    /* \"#utility.yul\":7405:7406   */\n  0x01\n    /* \"#utility.yul\":7399:7403   */\n  dup3\n    /* \"#utility.yul\":7395:7407   */\n  and\n    /* \"#utility.yul\":7426:7444   */\n  dup1\n    /* \"#utility.yul\":7416:7497   */\n  tag_140\n  jumpi\n    /* \"#utility.yul\":7482:7486   */\n  0x7f\n    /* \"#utility.yul\":7474:7480   */\n  dup3\n    /* \"#utility.yul\":7470:7487   */\n  and\n    /* \"#utility.yul\":7460:7487   */\n  swap2\n  pop\n    /* \"#utility.yul\":7416:7497   */\ntag_140:\n    /* \"#utility.yul\":7544:7546   */\n  0x20\n    /* \"#utility.yul\":7536:7542   */\n  dup3\n    /* \"#utility.yul\":7533:7547   */\n  lt\n    /* \"#utility.yul\":7513:7531   */\n  dup2\n    /* \"#utility.yul\":7510:7548   */\n  sub\n    /* \"#utility.yul\":7507:7591   */\n  tag_141\n  jumpi\n    /* \"#utility.yul\":7563:7581   */\n  tag_142\n  tag_35\n  jump\t// in\ntag_142:\n    /* \"#utility.yul\":7507:7591   */\ntag_141:\n    /* \"#utility.yul\":7328:7597   */\n  pop\n    /* \"#utility.yul\":7277:7597   */\n  swap2\n  swap1\n  pop\n  jump\t// out\n    /* \"#utility.yul\":7603:7744   */\ntag_37:\n    /* \"#utility.yul\":7652:7656   */\n  0x00\n    /* \"#utility.yul\":7675:7678   */\n  dup2\n    /* \"#utility.yul\":7667:7678   */\n  swap1\n  pop\n    /* \"#utility.yul\":7698:7701   */\n  dup2\n    /* \"#utility.yul\":7695:7696   */\n  0x00\n    /* \"#utility.yul\":7688:7702   */\n  mstore\n    /* \"#utility.yul\":7732:7736   */\n  0x20\n    /* \"#utility.yul\":7729:7730   */\n  0x00\n    /* \"#utility.yul\":7719:7737   */\n  keccak256\n    /* \"#utility.yul\":7711:7737   */\n  swap1\n  pop\n    /* \"#utility.yul\":7603:7744   */\n  swap2\n  swap1\n  pop\n  jump\t// out\n    /* \"#utility.yul\":7750:7843   */\ntag_38:\n    /* \"#utility.yul\":7787:7793   */\n  0x00\n    /* \"#utility.yul\":7834:7836   */\n  0x20\n    /* \"#utility.yul\":7829:7831   */\n  0x1f\n    /* \"#utility.yul\":7822:7827   */\n  dup4\n    /* \"#utility.yul\":7818:7832   */\n  add\n    /* \"#utility.yul\":7814:7837   */\n  div\n    /* \"#utility.yul\":7804:7837   */\n  swap1\n  pop\n    /* \"#utility.yul\":7750:7843   */\n  swap2\n  swap1\n  pop\n  jump\t// out\n    /* \"#utility.yul\":7849:7956   */\ntag_39:\n    /* \"#utility.yul\":7893:7901   */\n  0x00\n    /* \"#utility.yul\":7943:7948   */\n  dup3\n    /* \"#utility.yul\":7937:7941   */\n  dup3\n    /* \"#utility.yul\":7933:7949   */\n  shl\n    /* \"#utility.yul\":7912:7949   */\n  swap1\n  pop\n    /* \"#utility.yul\":7849:7956   */\n  swap3\n  swap2\n  pop\n  pop\n  jump\t// out\n    /* \"#utility.yul\":7962:8355   */\ntag_40:\n    /* \"#utility.yul\":8031:8037   */\n  0x00\n    /* \"#utility.yul\":8081:8082   */\n  0x08\n    /* \"#utility.yul\":8069:8079   */\n  dup4\n    /* \"#utility.yul\":8065:8083   */\n  mul\n    /* \"#utility.yul\":8104:8201   */\n  tag_147\n    /* \"#utility.yul\":8134:8200   */\n  0xffffffffffffffffffffffffffffffffffffffffffffffffffffffffffffffff\n    /* \"#utility.yul\":8123:8132   */\n  dup3\n    /* \"#utility.yul\":8104:8201   */\n  tag_39\n  jump\t// in\ntag_147:\n    /* \"#utility.yul\":8222:8261   */\n  tag_148\n    /* \"#utility.yul\":8252:8260   */\n  dup7\n    /* \"#utility.yul\":8241:8250   */\n  dup4\n    /* \"#utility.yul\":8222:8261   */\n  tag_39\n  jump\t// in\ntag_148:\n    /* \"#utility.yul\":8210:8261   */\n  swap6\n  pop\n    /* \"#utility.yul\":8294:8298   */\n  dup1\n    /* \"#utility.yul\":8290:8299   */\n  not\n    /* \"#utility.yul\":8283:8288   */\n  dup5\n    /* \"#utility.yul\":8279:8300   */\n  and\n    /* \"#utility.yul\":8270:8300   */\n  swap4\n  pop\n    /* \"#utility.yul\":8343:8347   */\n  dup1\n    /* \"#utility.yul\":8333:8341   */\n  dup7\n    /* \"#utility.yul\":8329:8348   */\n  and\n    /* \"#utility.yul\":8322:8327   */\n  dup5\n    /* \"#utility.yul\":8319:8349   */\n  or\n    /* \"#utility.yul\":8309:8349   */\n  swap3\n  pop\n    /* \"#utility.yul\":8038:8355   */\n  pop\n  pop\n    /* \"#utility.yul\":7962:8355   */\n  swap4\n  swap3\n  pop\n  pop\n  pop\n  jump\t// out\n    /* \"#utility.yul\":8361:8421   */\ntag_41:\n    /* \"#utility.yul\":8389:8392   */\n  0x00\n    /* \"#utility.yul\":8410:8415   */\n  dup2\n    /* \"#utility.yul\":8403:8415   */\n  swap1\n  pop\n    /* \"#utility.yul\":8361:8421   */\n  swap2\n  swap1\n  pop\n  jump\t// out\n    /* \"#utility.yul\":8427:8569   */\ntag_42:\n    /* \"#utility.yul\":8477:8486   */\n  0x00\n    /* \"#utility.yul\":8510:8563   */\n  tag_151\n    /* \"#utility.yul\":8528:8562   */\n  tag_152\n    /* \"#utility.yul\":8537:8561   */\n  tag_153\n    /* \"#utility.yul\":8555:8560   */\n  dup5\n    /* \"#utility.yul\":8537:8561   */\n  tag_17\n  jump\t// in\ntag_153:\n    /* \"#utility.yul\":8528:8562   */\n  tag_41\n  jump\t// in\ntag_152:\n    /* \"#utility.yul\":8510:8563   */\n  tag_17\n  jump\t// in\ntag_151:\n    /* \"#utility.yul\":8497:8563   */\n  swap1\n  pop\n    /* \"#utility.yul\":8427:8569   */\n  swap2\n  swap1\n  pop\n  jump\t// out\n    /* \"#utility.yul\":8575:8650   */\ntag_43:\n    /* \"#utility.yul\":8618:8621   */\n  0x00\n    /* \"#utility.yul\":8639:8644   */\n  dup2\n    /* \"#utility.yul\":8632:8644   */\n  swap1\n  pop\n    /* \"#utility.yul\":8575:8650   */\n  swap2\n  swap1\n  pop\n  jump\t// out\n    /* \"#utility.yul\":8656:8925   */\ntag_44:\n    /* \"#utility.yul\":8766:8805   */\n  tag_156\n    /* \"#utility.yul\":8797:8804   */\n  dup4\n    /* \"#utility.yul\":8766:8805   */\n  tag_42\n  jump\t// in\ntag_156:\n    /* \"#utility.yul\":8827:8918   */\n  tag_157\n    /* \"#utility.yul\":8876:8917   */\n  tag_158\n    /* \"#utility.yul\":8900:8916   */\n  dup3\n    /* \"#utility.yul\":8876:8917   */\n  tag_43\n  jump\t// in\ntag_158:\n    /* \"#utility.yul\":8868:8874   */\n  dup5\n    /* \"#utility.yul\":8861:8865   */\n  dup5\n    /* \"#utility.yul\":8855:8866   */\n  sload\n    /* \"#utility.yul\":8827:8918   */\n  tag_40\n  jump\t// in\ntag_157:\n    /* \"#utility.yul\":8821:8825   */\n  dup3\n    /* \"#utility.yul\":8814:8919   */\n  sstore\n    /* \"#utility.yul\":8732:8925   */\n  pop\n    /* \"#utility.yul\":8656:8925   */\n  pop\n  pop\n  pop\n  jump\t// out\n    /* \"#utility.yul\":8931:9004   */\ntag_45:\n    /* \"#utility.yul\":8976:8979   */\n  0x00\n    /* \"#utility.yul\":8931:9004   */\n  swap1\n  jump\t// out\n    /* \"#utility.yul\":9010:9199   */\ntag_46:\n    /* \"#utility.yul\":9087:9119   */\n  tag_161\n  tag_45\n  jump\t// in\ntag_161:\n    /* \"#utility.yul\":9128:9193   */\n  tag_162\n    /* \"#utility.yul\":9186:9192   */\n  dup2\n    /* \"#utility.yul\":9178:9184   */\n  dup5\n    /* \"#utility.yul\":9172:9176   */\n  dup5\n    /* \"#utility.yul\":9128:9193   */\n  tag_44\n  jump\t// in\ntag_162:\n    /* \"#utility.yul\":9063:9199   */\n  pop\n    /* \"#utility.yul\":9010:9199   */\n  pop\n  pop\n  jump\t// out\n    /* \"#utility.yul\":9205:9391   */\ntag_47:\n    /* \"#utility.yul\":9265:9385   */\ntag_164:\n    /* \"#utility.yul\":9282:9285   */\n  dup2\n    /* \"#utility.yul\":9275:9280   */\n  dup2\n    /* \"#utility.yul\":9272:9286   */\n  lt\n    /* \"#utility.yul\":9265:9385   */\n  iszero\n  tag_166\n  jumpi\n    /* \"#utility.yul\":9336:9375   */\n  tag_167\n    /* \"#utility.yul\":9373:9374   */\n  0x00\n    /* \"#utility.yul\":9366:9371   */\n  dup3\n    /* \"#utility.yul\":9336:9375   */\n  tag_46\n  jump\t// in\ntag_167:\n    /* \"#utility.yul\":9309:9310   */\n  0x01\n    /* \"#utility.yul\":9302:9307   */\n  dup2\n    /* \"#utility.yul\":9298:9311   */\n  add\n    /* \"#utility.yul\":9289:9311   */\n  swap1\n  pop\n    /* \"#utility.yul\":9265:9385   */\n  jump(tag_164)\ntag_166:\n    /* \"#utility.yul\":9205:9391   */\n  pop\n  pop\n  jump\t// out\n    /* \"#utility.yul\":9397:9940   */\ntag_48:\n    /* \"#utility.yul\":9498:9500   */\n  0x1f\n    /* \"#utility.yul\":9493:9496   */\n  dup3\n    /* \"#utility.yul\":9490:9501   */\n  gt\n    /* \"#utility.yul\":9487:9933   */\n  iszero\n  tag_169\n  jumpi\n    /* \"#utility.yul\":9532:9570   */\n  tag_170\n    /* \"#utility.yul\":9564:9569   */\n  dup2\n    /* \"#utility.yul\":9532:9570   */\n  tag_37\n  jump\t// in\ntag_170:\n    /* \"#utility.yul\":9616:9645   */\n  tag_171\n    /* \"#utility.yul\":9634:9644   */\n  dup5\n    /* \"#utility.yul\":9616:9645   */\n  tag_38\n  jump\t// in\ntag_171:\n    /* \"#utility.yul\":9606:9614   */\n  dup2\n    /* \"#utility.yul\":9602:9646   */\n  add\n    /* \"#utility.yul\":9799:9801   */\n  0x20\n    /* \"#utility.yul\":9787:9797   */\n  dup6\n    /* \"#utility.yul\":9784:9802   */\n  lt\n    /* \"#utility.yul\":9781:9830   */\n  iszero\n  tag_172\n  jumpi\n    /* \"#utility.yul\":9820:9828   */\n  dup2\n    /* \"#utility.yul\":9805:9828   */\n  swap1\n  pop\n    /* \"#utility.yul\":9781:9830   */\ntag_172:\n    /* \"#utility.yul\":9843:9923   */\n  tag_173\n    /* \"#utility.yul\":9899:9921   */\n  tag_174\n    /* \"#utility.yul\":9917:9920   */\n  dup6\n    /* \"#utility.yul\":9899:9921   */\n  tag_38\n  jump\t// in\ntag_174:\n    /* \"#utility.yul\":9889:9897   */\n  dup4\n    /* \"#utility.yul\":9885:9922   */\n  add\n    /* \"#utility.yul\":9872:9883   */\n  dup3\n    /* \"#utility.yul\":9843:9923   */\n  tag_47\n  jump\t// in\ntag_173:\n    /* \"#utility.yul\":9502:9933   */\n  pop\n  pop\n    /* \"#utility.yul\":9487:9933   */\ntag_169:\n    /* \"#utility.yul\":9397:9940   */\n  pop\n  pop\n  pop\n  jump\t// out\n    /* \"#utility.yul\":9946:10063   */\ntag_49:\n    /* \"#utility.yul\":10000:10008   */\n  0x00\n    /* \"#utility.yul\":10050:10055   */\n  dup3\n    /* \"#utility.yul\":10044:10048   */\n  dup3\n    /* \"#utility.yul\":10040:10056   */\n  shr\n    /* \"#utility.yul\":10019:10056   */\n  swap1\n  pop\n    /* \"#utility.yul\":9946:10063   */\n  swap3\n  swap2\n  pop\n  pop\n  jump\t// out\n    /* \"#utility.yul\":10069:10238   */\ntag_50:\n    /* \"#utility.yul\":10113:10119   */\n  0x00\n    /* \"#utility.yul\":10146:10197   */\n  tag_177\n    /* \"#utility.yul\":10194:10195   */\n  0x00\n    /* \"#utility.yul\":10190:10196   */\n  not\n    /* \"#utility.yul\":10182:10187   */\n  dup5\n    /* \"#utility.yul\":10179:10180   */\n  0x08\n    /* \"#utility.yul\":10175:10188   */\n  mul\n    /* \"#utility.yul\":10146:10197   */\n  tag_49\n  jump\t// in\ntag_177:\n    /* \"#utility.yul\":10142:10198   */\n  not\n    /* \"#utility.yul\":10227:10231   */\n  dup1\n    /* \"#utility.yul\":10221:10225   */\n  dup4\n    /* \"#utility.yul\":10217:10232   */\n  and\n    /* \"#utility.yul\":10207:10232   */\n  swap2\n  pop\n    /* \"#utility.yul\":10120:10238   */\n  pop\n    /* \"#utility.yul\":10069:10238   */\n  swap3\n  swap2\n  pop\n  pop\n  jump\t// out\n    /* \"#utility.yul\":10243:10538   */\ntag_51:\n    /* \"#utility.yul\":10319:10323   */\n  0x00\n    /* \"#utility.yul\":10465:10494   */\n  tag_179\n    /* \"#utility.yul\":10490:10493   */\n  dup4\n    /* \"#utility.yul\":10484:10488   */\n  dup4\n    /* \"#utility.yul\":10465:10494   */\n  tag_50\n  jump\t// in\ntag_179:\n    /* \"#utility.yul\":10457:10494   */\n  swap2\n  pop\n    /* \"#utility.yul\":10527:10530   */\n  dup3\n    /* \"#utility.yul\":10524:10525   */\n  0x02\n    /* \"#utility.yul\":10520:10531   */\n  mul\n    /* \"#utility.yul\":10514:10518   */\n  dup3\n    /* \"#utility.yul\":10511:10532   */\n  or\n    /* \"#utility.yul\":10503:10532   */\n  swap1\n  pop\n    /* \"#utility.yul\":10243:10538   */\n  swap3\n  swap2\n  pop\n  pop\n  jump\t// out\n    /* \"#utility.yul\":10543:11938   */\ntag_11:\n    /* \"#utility.yul\":10660:10697   */\n  tag_181\n    /* \"#utility.yul\":10693:10696   */\n  dup3\n    /* \"#utility.yul\":10660:10697   */\n  tag_34\n  jump\t// in\ntag_181:\n    /* \"#utility.yul\":10762:10780   */\n  0xffffffffffffffff\n    /* \"#utility.yul\":10754:10760   */\n  dup2\n    /* \"#utility.yul\":10751:10781   */\n  gt\n    /* \"#utility.yul\":10748:10804   */\n  iszero\n  tag_182\n  jumpi\n    /* \"#utility.yul\":10784:10802   */\n  tag_183\n  tag_23\n  jump\t// in\ntag_183:\n    /* \"#utility.yul\":10748:10804   */\ntag_182:\n    /* \"#utility.yul\":10828:10866   */\n  tag_184\n    /* \"#utility.yul\":10860:10864   */\n  dup3\n    /* \"#utility.yul\":10854:10865   */\n  sload\n    /* \"#utility.yul\":10828:10866   */\n  tag_36\n  jump\t// in\ntag_184:\n    /* \"#utility.yul\":10913:10980   */\n  tag_185\n    /* \"#utility.yul\":10973:10979   */\n  dup3\n    /* \"#utility.yul\":10965:10971   */\n  dup3\n    /* \"#utility.yul\":10959:10963   */\n  dup6\n    /* \"#utility.yul\":10913:10980   */\n  tag_48\n  jump\t// in\ntag_185:\n    /* \"#utility.yul\":11007:11008   */\n  0x00\n    /* \"#utility.yul\":11031:11035   */\n  0x20\n    /* \"#utility.yul\":11018:11035   */\n  swap1\n  pop\n    /* \"#utility.yul\":11063:11065   */\n  0x1f\n    /* \"#utility.yul\":11055:11061   */\n  dup4\n    /* \"#utility.yul\":11052:11066   */\n  gt\n    /* \"#utility.yul\":11080:11081   */\n  0x01\n    /* \"#utility.yul\":11075:11693   */\n  dup2\n  eq\n  tag_187\n  jumpi\n    /* \"#utility.yul\":11737:11738   */\n  0x00\n    /* \"#utility.yul\":11754:11760   */\n  dup5\n    /* \"#utility.yul\":11751:11828   */\n  iszero\n  tag_188\n  jumpi\n    /* \"#utility.yul\":11803:11812   */\n  dup3\n    /* \"#utility.yul\":11798:11801   */\n  dup8\n    /* \"#utility.yul\":11794:11813   */\n  add\n    /* \"#utility.yul\":11788:11814   */\n  mload\n    /* \"#utility.yul\":11779:11814   */\n  swap1\n  pop\n    /* \"#utility.yul\":11751:11828   */\ntag_188:\n    /* \"#utility.yul\":11854:11921   */\n  tag_189\n    /* \"#utility.yul\":11914:11920   */\n  dup6\n    /* \"#utility.yul\":11907:11912   */\n  dup3\n    /* \"#utility.yul\":11854:11921   */\n  tag_51\n  jump\t// in\ntag_189:\n    /* \"#utility.yul\":11848:11852   */\n  dup7\n    /* \"#utility.yul\":11841:11922   */\n  sstore\n    /* \"#utility.yul\":11710:11932   */\n  pop\n    /* \"#utility.yul\":11045:11932   */\n  jump(tag_186)\n    /* \"#utility.yul\":11075:11693   */\ntag_187:\n    /* \"#utility.yul\":11127:11131   */\n  0x1f\n    /* \"#utility.yul\":11123:11132   */\n  not\n    /* \"#utility.yul\":11115:11121   */\n  dup5\n    /* \"#utility.yul\":11111:11133   */\n  and\n    /* \"#utility.yul\":11161:11198   */\n  tag_190\n    /* \"#utility.yul\":11193:11197   */\n  dup7\n    /* \"#utility.yul\":11161:11198   */\n  tag_37\n  jump\t// in\ntag_190:\n    /* \"#utility.yul\":11220:11221   */\n  0x00\n    /* \"#utility.yul\":11234:11442   */\ntag_191:\n    /* \"#utility.yul\":11248:11255   */\n  dup3\n    /* \"#utility.yul\":11245:11246   */\n  dup2\n    /* \"#utility.yul\":11242:11256   */\n  lt\n    /* \"#utility.yul\":11234:11442   */\n  iszero\n  tag_193\n  jumpi\n    /* \"#utility.yul\":11327:11336   */\n  dup5\n    /* \"#utility.yul\":11322:11325   */\n  dup10\n    /* \"#utility.yul\":11318:11337   */\n  add\n    /* \"#utility.yul\":11312:11338   */\n  mload\n    /* \"#utility.yul\":11304:11310   */\n  dup3\n    /* \"#utility.yul\":11297:11339   */\n  sstore\n    /* \"#utility.yul\":11378:11379   */\n  0x01\n    /* \"#utility.yul\":11370:11376   */\n  dup3\n    /* \"#utility.yul\":11366:11380   */\n  add\n    /* \"#utility.yul\":11356:11380   */\n  swap2\n  pop\n    /* \"#utility.yul\":11425:11427   */\n  0x20\n    /* \"#utility.yul\":11414:11423   */\n  dup6\n    /* \"#utility.yul\":11410:11428   */\n  add\n    /* \"#utility.yul\":11397:11428   */\n  swap5\n  pop\n    /* \"#utility.yul\":11271:11275   */\n  0x20\n    /* \"#utility.yul\":11268:11269   */\n  dup2\n    /* \"#utility.yul\":11264:11276   */\n  add\n    /* \"#utility.yul\":11259:11276   */\n  swap1\n  pop\n    /* \"#utility.yul\":11234:11442   */\n  jump(tag_191)\ntag_193:\n    /* \"#utility.yul\":11470:11476   */\n  dup7\n    /* \"#utility.yul\":11461:11468   */\n  dup4\n    /* \"#utility.yul\":11458:11477   */\n  lt\n    /* \"#utility.yul\":11455:11634   */\n  iszero\n  tag_194\n  jumpi\n    /* \"#utility.yul\":11528:11537   */\n  dup5\n    /* \"#utility.yul\":11523:11526   */\n  dup10\n    /* \"#utility.yul\":11519:11538   */\n  add\n    /* \"#utility.yul\":11513:11539   */\n  mload\n    /* \"#utility.yul\":11571:11619   */\n  tag_195\n    /* \"#utility.yul\":11613:11617   */\n  0x1f\n    /* \"#utility.yul\":11605:11611   */\n  dup10\n    /* \"#utility.yul\":11601:11618   */\n  and\n    /* \"#utility.yul\":11590:11599   */\n  dup3\n    /* \"#utility.yul\":11571:11619   */\n  tag_50\n  jump\t// in\ntag_195:\n    /* \"#utility.yul\":11563:11569   */\n  dup4\n    /* \"#utility.yul\":11556:11620   */\n  sstore\n    /* \"#utility.yul\":11478:11634   */\n  pop\n    /* \"#utility.yul\":11455:11634   */\ntag_194:\n    /* \"#utility.yul\":11680:11681   */\n  0x01\n    /* \"#utility.yul\":11676:11677   */\n  0x02\n    /* \"#utility.yul\":11668:11674   */\n  dup9\n    /* \"#utility.yul\":11664:11678   */\n  mul\n    /* \"#utility.yul\":11660:11682   */\n  add\n    /* \"#utility.yul\":11654:11658   */\n  dup9\n    /* \"#utility.yul\":11647:11683   */\n  sstore\n    /* \"#utility.yul\":11082:11693   */\n  pop\n  pop\n  pop\n    /* \"#utility.yul\":11045:11932   */\ntag_186:\n  pop\n    /* \"#utility.yul\":10635:11938   */\n  pop\n  pop\n  pop\n    /* \"#utility.yul\":10543:11938   */\n  pop\n  pop\n  jump\t// out\n    /* \"MyContract.sol\":60:4415  contract MyToken{... */\ntag_13:\n  dataSize(sub_0)\n  dup1\n  dataOffset(sub_0)\n  0x00\n  codecopy\n  0x00\n  return\nstop\n\nsub_0: assembly {\n        /* \"MyContract.sol\":60:4415  contract MyToken{... */\n      mstore(0x40, 0x80)\n      callvalue\n      dup1\n      iszero\n      tag_1\n      jumpi\n      0x00\n      dup1\n      revert\n    tag_1:\n      pop\n      jumpi(tag_2, lt(calldatasize, 0x04))\n      shr(0xe0, calldataload(0x00))\n      dup1\n      0x45b7d5da\n      gt\n      tag_15\n      jumpi\n      dup1\n      0x45b7d5da\n      eq\n      tag_9\n      jumpi\n      dup1\n      0x70a08231\n      eq\n      tag_10\n      jumpi\n      dup1\n      0x95d89b41\n      eq\n      tag_11\n      jumpi\n      dup1\n      0xa9059cbb\n      eq\n      tag_12\n      jumpi\n      dup1\n      0xb2bdfa7b\n      eq\n      tag_13\n      jumpi\n      dup1\n      0xe5839836\n      eq\n      tag_14\n      jumpi\n      jump(tag_2)\n    tag_15:\n      dup1\n      0x06fdde03\n      eq\n      tag_3\n      jumpi\n      dup1\n      0x0af4187d\n      eq\n      tag_4\n      jumpi\n      dup1\n      0x18160ddd\n      eq\n      tag_5\n      jumpi\n      dup1\n      0x23b872dd\n      eq\n      tag_6\n      jumpi\n      dup1\n      0x310ec4a7\n      eq\n      tag_7\n      jumpi\n      dup1\n      0x313ce567\n      eq\n      tag_8\n      jumpi\n    tag_2:\n      0x00\n      dup1\n      revert\n        /* \"MyContract.sol\":209:227  string public name */\n    tag_3:\n      tag_16\n      tag_17\n      jump\t// in\n    tag_16:\n      mload(0x40)\n      tag_18\n      swap2\n      swap1\n      tag_19\n      jump\t// in\n    tag_18:\n      mload(0x40)\n      dup1\n      swap2\n      sub\n      swap1\n      return\n        /* \"MyContract.sol\":3094:3230  function getAllowance(address owner, address _spender) public view returns (uint256) {... */\n    tag_4:\n      tag_20\n      0x04\n      dup1\n      calldatasize\n      sub\n      dup2\n      add\n      swap1\n      tag_21\n      swap2\n      swap1\n      tag_22\n      jump\t// in\n    tag_21:\n      tag_23\n      jump\t// in\n    tag_20:\n      mload(0x40)\n      tag_24\n      swap2\n      swap1\n      tag_25\n      jump\t// in\n    tag_24:\n      mload(0x40)\n      dup1\n      swap2\n      sub\n      swap1\n      return\n        /* \"MyContract.sol\":330:356  uint256 public totalSupply */\n    tag_5:\n      tag_26\n      tag_27\n      jump\t// in\n    tag_26:\n      mload(0x40)\n      tag_28\n      swap2\n      swap1\n      tag_25\n      jump\t// in\n    tag_28:\n      mload(0x40)\n      dup1\n      swap2\n      sub\n      swap1\n      return\n        /* \"MyContract.sol\":2092:2784  function transferFrom(address _from, address _to, uint256 _value) public returns (bool success) {... */\n    tag_6:\n      tag_29\n      0x04\n      dup1\n      calldatasize\n      sub\n      dup2\n      add\n      swap1\n      tag_30\n      swap2\n      swap1\n      tag_31\n      jump\t// in\n    tag_30:\n      tag_32\n      jump\t// in\n    tag_29:\n      mload(0x40)\n      tag_33\n      swap2\n      swap1\n      tag_34\n      jump\t// in\n    tag_33:\n      mload(0x40)\n      dup1\n      swap2\n      sub\n      swap1\n      return\n        /* \"MyContract.sol\":2792:3086  function setAllowance(address _spender, uint256 _value) public returns(bool) {... */\n    tag_7:\n      tag_35\n      0x04\n      dup1\n      calldatasize\n      sub\n      dup2\n      add\n      swap1\n      tag_36\n      swap2\n      swap1\n      tag_37\n      jump\t// in\n    tag_36:\n      tag_38\n      jump\t// in\n    tag_35:\n      mload(0x40)\n      tag_39\n      swap2\n      swap1\n      tag_34\n      jump\t// in\n    tag_39:\n      mload(0x40)\n      dup1\n      swap2\n      sub\n      swap1\n      return\n        /* \"MyContract.sol\":297:323  uint8 public decimals = 18 */\n    tag_8:\n      tag_40\n      tag_41\n      jump\t// in\n    tag_40:\n      mload(0x40)\n      tag_42\n      swap2\n      swap1\n      tag_43\n      jump\t// in\n    tag_42:\n      mload(0x40)\n      dup1\n      swap2\n      sub\n      swap1\n      return\n        /* \"MyContract.sol\":3283:4089  function setFrozenAccount(address account, bool status) public returns (bool success) {... */\n    tag_9:\n      tag_44\n      0x04\n      dup1\n      calldatasize\n      sub\n      dup2\n      add\n      swap1\n      tag_45\n      swap2\n      swap1\n      tag_46\n      jump\t// in\n    tag_45:\n      tag_47\n      jump\t// in\n    tag_44:\n      mload(0x40)\n      tag_48\n      swap2\n      swap1\n      tag_34\n      jump\t// in\n    tag_48:\n      mload(0x40)\n      dup1\n      swap2\n      sub\n      swap1\n      return\n        /* \"MyContract.sol\":365:410  mapping(address => uint256) public  balanceOf */\n    tag_10:\n      tag_49\n      0x04\n      dup1\n      calldatasize\n      sub\n      dup2\n      add\n      swap1\n      tag_50\n      swap2\n      swap1\n      tag_51\n      jump\t// in\n    tag_50:\n      tag_52\n      jump\t// in\n    tag_49:\n      mload(0x40)\n      tag_53\n      swap2\n      swap1\n      tag_25\n      jump\t// in\n    tag_53:\n      mload(0x40)\n      dup1\n      swap2\n      sub\n      swap1\n      return\n        /* \"MyContract.sol\":253:273  string public symbol */\n    tag_11:\n      tag_54\n      tag_55\n      jump\t// in\n    tag_54:\n      mload(0x40)\n      tag_56\n      swap2\n      swap1\n      tag_19\n      jump\t// in\n    tag_56:\n      mload(0x40)\n      dup1\n      swap2\n      sub\n      swap1\n      return\n        /* \"MyContract.sol\":1347:2084  function transfer(address _to, uint256 _value) public returns (bool success) {... */\n    tag_12:\n      tag_57\n      0x04\n      dup1\n      calldatasize\n      sub\n      dup2\n      add\n      swap1\n      tag_58\n      swap2\n      swap1\n      tag_37\n      jump\t// in\n    tag_58:\n      tag_59\n      jump\t// in\n    tag_57:\n      mload(0x40)\n      tag_60\n      swap2\n      swap1\n      tag_34\n      jump\t// in\n    tag_60:\n      mload(0x40)\n      dup1\n      swap2\n      sub\n      swap1\n      return\n        /* \"MyContract.sol\":155:176  address public _owner */\n    tag_13:\n      tag_61\n      tag_62\n      jump\t// in\n    tag_61:\n      mload(0x40)\n      tag_63\n      swap2\n      swap1\n      tag_64\n      jump\t// in\n    tag_63:\n      mload(0x40)\n      dup1\n      swap2\n      sub\n      swap1\n      return\n        /* \"MyContract.sol\":4151:4412  function isFrozen(address account) public view returns(bool) {... */\n    tag_14:\n      tag_65\n      0x04\n      dup1\n      calldatasize\n      sub\n      dup2\n      add\n      swap1\n      tag_66\n      swap2\n      swap1\n      tag_51\n      jump\t// in\n    tag_66:\n      tag_67\n      jump\t// in\n    tag_65:\n      mload(0x40)\n      tag_68\n      swap2\n      swap1\n      tag_34\n      jump\t// in\n    tag_68:\n      mload(0x40)\n      dup1\n      swap2\n      sub\n      swap1\n      return\n        /* \"MyContract.sol\":209:227  string public name */\n    tag_17:\n      0x01\n      dup1\n      sload\n      tag_69\n      swap1\n      tag_70\n      jump\t// in\n    tag_69:\n      dup1\n      0x1f\n      add\n      0x20\n      dup1\n      swap2\n      div\n      mul\n      0x20\n      add\n      mload(0x40)\n      swap1\n      dup2\n      add\n      0x40\n      mstore\n      dup1\n      swap3\n      swap2\n      swap1\n      dup2\n      dup2\n      mstore\n      0x20\n      add\n      dup3\n      dup1\n      sload\n      tag_71\n      swap1\n      tag_70\n      jump\t// in\n    tag_71:\n      dup1\n      iszero\n      tag_72\n      jumpi\n      dup1\n      0x1f\n      lt\n      tag_73\n      jumpi\n      0x0100\n      dup1\n      dup4\n      sload\n      div\n      mul\n      dup4\n      mstore\n      swap2\n      0x20\n      add\n      swap2\n      jump(tag_72)\n    tag_73:\n      dup3\n      add\n      swap2\n      swap1\n      0x00\n      mstore\n      keccak256(0x00, 0x20)\n      swap1\n    tag_74:\n      dup2\n      sload\n      dup2\n      mstore\n      swap1\n      0x01\n      add\n      swap1\n      0x20\n      add\n      dup1\n      dup4\n      gt\n      tag_74\n      jumpi\n      dup3\n      swap1\n      sub\n      0x1f\n      and\n      dup3\n      add\n      swap2\n    tag_72:\n      pop\n      pop\n      pop\n      pop\n      pop\n      dup2\n      jump\t// out\n        /* \"MyContract.sol\":3094:3230  function getAllowance(address owner, address _spender) public view returns (uint256) {... */\n    tag_23:\n        /* \"MyContract.sol\":3170:3177  uint256 */\n      0x00\n        /* \"MyContract.sol\":3197:3205  _allowed */\n      0x06\n        /* \"MyContract.sol\":3197:3212  _allowed[owner] */\n      0x00\n        /* \"MyContract.sol\":3206:3211  owner */\n      dup5\n        /* \"MyContract.sol\":3197:3212  _allowed[owner] */\n      0xffffffffffffffffffffffffffffffffffffffff\n      and\n      0xffffffffffffffffffffffffffffffffffffffff\n      and\n      dup2\n      mstore\n      0x20\n      add\n      swap1\n      dup2\n      mstore\n      0x20\n      add\n      0x00\n      keccak256\n        /* \"MyContract.sol\":3197:3222  _allowed[owner][_spender] */\n      0x00\n        /* \"MyContract.sol\":3213:3221  _spender */\n      dup4\n        /* \"MyContract.sol\":3197:3222  _allowed[owner][_spender] */\n      0xffffffffffffffffffffffffffffffffffffffff\n      and\n      0xffffffffffffffffffffffffffffffffffffffff\n      and\n      dup2\n      mstore\n      0x20\n      add\n      swap1\n      dup2\n      mstore\n      0x20\n      add\n      0x00\n      keccak256\n      sload\n        /* \"MyContract.sol\":3190:3222  return _allowed[owner][_spender] */\n      swap1\n      pop\n        /* \"MyContract.sol\":3094:3230  function getAllowance(address owner, address _spender) public view returns (uint256) {... */\n      swap3\n      swap2\n      pop\n      pop\n      jump\t// out\n        /* \"MyContract.sol\":330:356  uint256 public totalSupply */\n    tag_27:\n      sload(0x04)\n      dup2\n      jump\t// out\n        /* \"MyContract.sol\":2092:2784  function transferFrom(address _from, address _to, uint256 _value) public returns (bool success) {... */\n    tag_32:\n        /* \"MyContract.sol\":2174:2186  bool success */\n      0x00\n        /* \"MyContract.sol\":2222:2223  0 */\n      dup1\n        /* \"MyContract.sol\":2207:2224  _to != address(0) */\n      0xffffffffffffffffffffffffffffffffffffffff\n      and\n        /* \"MyContract.sol\":2207:2210  _to */\n      dup4\n        /* \"MyContract.sol\":2207:2224  _to != address(0) */\n      0xffffffffffffffffffffffffffffffffffffffff\n      and\n      sub\n        /* \"MyContract.sol\":2199:2225  require(_to != address(0)) */\n      tag_77\n      jumpi\n      0x00\n      dup1\n      revert\n    tag_77:\n        /* \"MyContract.sol\":2275:2295  isFrozen(msg.sender) */\n      tag_78\n        /* \"MyContract.sol\":2284:2294  msg.sender */\n      caller\n        /* \"MyContract.sol\":2275:2283  isFrozen */\n      tag_67\n        /* \"MyContract.sol\":2275:2295  isFrozen(msg.sender) */\n      jump\t// in\n    tag_78:\n        /* \"MyContract.sol\":2274:2295  !isFrozen(msg.sender) */\n      iszero\n        /* \"MyContract.sol\":2266:2296  require(!isFrozen(msg.sender)) */\n      tag_79\n      jumpi\n      0x00\n      dup1\n      revert\n    tag_79:\n        /* \"MyContract.sol\":2358:2371  isFrozen(_to) */\n      tag_80\n        /* \"MyContract.sol\":2367:2370  _to */\n      dup4\n        /* \"MyContract.sol\":2358:2366  isFrozen */\n      tag_67\n        /* \"MyContract.sol\":2358:2371  isFrozen(_to) */\n      jump\t// in\n    tag_80:\n        /* \"MyContract.sol\":2357:2371  !isFrozen(_to) */\n      iszero\n        /* \"MyContract.sol\":2349:2372  require(!isFrozen(_to)) */\n      tag_81\n      jumpi\n      0x00\n      dup1\n      revert\n    tag_81:\n        /* \"MyContract.sol\":2462:2468  _value */\n      dup2\n        /* \"MyContract.sol\":2442:2451  balanceOf */\n      0x05\n        /* \"MyContract.sol\":2442:2458  balanceOf[_from] */\n      0x00\n        /* \"MyContract.sol\":2452:2457  _from */\n      dup7\n        /* \"MyContract.sol\":2442:2458  balanceOf[_from] */\n      0xffffffffffffffffffffffffffffffffffffffff\n      and\n      0xffffffffffffffffffffffffffffffffffffffff\n      and\n      dup2\n      mstore\n      0x20\n      add\n      swap1\n      dup2\n      mstore\n      0x20\n      add\n      0x00\n      keccak256\n      sload\n        /* \"MyContract.sol\":2442:2468  balanceOf[_from] >= _value */\n      lt\n      iszero\n        /* \"MyContract.sol\":2434:2469  require(balanceOf[_from] >= _value) */\n      tag_82\n      jumpi\n      0x00\n      dup1\n      revert\n    tag_82:\n        /* \"MyContract.sol\":2519:2525  _value */\n      dup2\n        /* \"MyContract.sol\":2488:2496  _allowed */\n      0x06\n        /* \"MyContract.sol\":2488:2503  _allowed[_from] */\n      0x00\n        /* \"MyContract.sol\":2497:2502  _from */\n      dup7\n        /* \"MyContract.sol\":2488:2503  _allowed[_from] */\n      0xffffffffffffffffffffffffffffffffffffffff\n      and\n      0xffffffffffffffffffffffffffffffffffffffff\n      and\n      dup2\n      mstore\n      0x20\n      add\n      swap1\n      dup2\n      mstore\n      0x20\n      add\n      0x00\n      keccak256\n        /* \"MyContract.sol\":2488:2515  _allowed[_from][msg.sender] */\n      0x00\n        /* \"MyContract.sol\":2504:2514  msg.sender */\n      caller\n        /* \"MyContract.sol\":2488:2515  _allowed[_from][msg.sender] */\n      0xffffffffffffffffffffffffffffffffffffffff\n      and\n      0xffffffffffffffffffffffffffffffffffffffff\n      and\n      dup2\n      mstore\n      0x20\n      add\n      swap1\n      dup2\n      mstore\n      0x20\n      add\n      0x00\n      keccak256\n      sload\n        /* \"MyContract.sol\":2488:2525  _allowed[_from][msg.sender] >= _value */\n      lt\n      iszero\n        /* \"MyContract.sol\":2480:2526  require(_allowed[_from][msg.sender] >= _value) */\n      tag_83\n      jumpi\n      0x00\n      dup1\n      revert\n    tag_83:\n        /* \"MyContract.sol\":2571:2580  balanceOf */\n      0x05\n        /* \"MyContract.sol\":2571:2585  balanceOf[_to] */\n      0x00\n        /* \"MyContract.sol\":2581:2584  _to */\n      dup5\n        /* \"MyContract.sol\":2571:2585  balanceOf[_to] */\n      0xffffffffffffffffffffffffffffffffffffffff\n      and\n      0xffffffffffffffffffffffffffffffffffffffff\n      and\n      dup2\n      mstore\n      0x20\n      add\n      swap1\n      dup2\n      mstore\n      0x20\n      add\n      0x00\n      keccak256\n      sload\n        /* \"MyContract.sol\":2562:2568  _value */\n      dup3\n        /* \"MyContract.sol\":2545:2554  balanceOf */\n      0x05\n        /* \"MyContract.sol\":2545:2559  balanceOf[_to] */\n      0x00\n        /* \"MyContract.sol\":2555:2558  _to */\n      dup7\n        /* \"MyContract.sol\":2545:2559  balanceOf[_to] */\n      0xffffffffffffffffffffffffffffffffffffffff\n      and\n      0xffffffffffffffffffffffffffffffffffffffff\n      and\n      dup2\n      mstore\n      0x20\n      add\n      swap1\n      dup2\n      mstore\n      0x20\n      add\n      0x00\n      keccak256\n      sload\n        /* \"MyContract.sol\":2545:2568  balanceOf[_to] + _value */\n      tag_84\n      swap2\n      swap1\n      tag_85\n      jump\t// in\n    tag_84:\n        /* \"MyContract.sol\":2545:2585  balanceOf[_to] + _value > balanceOf[_to] */\n      gt\n        /* \"MyContract.sol\":2537:2586  require(balanceOf[_to] + _value > balanceOf[_to]) */\n      tag_86\n      jumpi\n      0x00\n      dup1\n      revert\n    tag_86:\n        /* \"MyContract.sol\":2619:2625  _value */\n      dup2\n        /* \"MyContract.sol\":2599:2608  balanceOf */\n      0x05\n        /* \"MyContract.sol\":2599:2615  balanceOf[_from] */\n      0x00\n        /* \"MyContract.sol\":2609:2614  _from */\n      dup7\n        /* \"MyContract.sol\":2599:2615  balanceOf[_from] */\n      0xffffffffffffffffffffffffffffffffffffffff\n      and\n      0xffffffffffffffffffffffffffffffffffffffff\n      and\n      dup2\n      mstore\n      0x20\n      add\n      swap1\n      dup2\n      mstore\n      0x20\n      add\n      0x00\n      keccak256\n      0x00\n        /* \"MyContract.sol\":2599:2625  balanceOf[_from] -= _value */\n      dup3\n      dup3\n      sload\n      tag_87\n      swap2\n      swap1\n      tag_88\n      jump\t// in\n    tag_87:\n      swap3\n      pop\n      pop\n      dup2\n      swap1\n      sstore\n      pop\n        /* \"MyContract.sol\":2654:2660  _value */\n      dup2\n        /* \"MyContract.sol\":2636:2645  balanceOf */\n      0x05\n        /* \"MyContract.sol\":2636:2650  balanceOf[_to] */\n      0x00\n        /* \"MyContract.sol\":2646:2649  _to */\n      dup6\n        /* \"MyContract.sol\":2636:2650  balanceOf[_to] */\n      0xffffffffffffffffffffffffffffffffffffffff\n      and\n      0xffffffffffffffffffffffffffffffffffffffff\n      and\n      dup2\n      mstore\n      0x20\n      add\n      swap1\n      dup2\n      mstore\n      0x20\n      add\n      0x00\n      keccak256\n      0x00\n        /* \"MyContract.sol\":2636:2660  balanceOf[_to] += _value */\n      dup3\n      dup3\n      sload\n      tag_89\n      swap2\n      swap1\n      tag_85\n      jump\t// in\n    tag_89:\n      swap3\n      pop\n      pop\n      dup2\n      swap1\n      sstore\n      pop\n        /* \"MyContract.sol\":2704:2710  _value */\n      dup2\n        /* \"MyContract.sol\":2673:2681  _allowed */\n      0x06\n        /* \"MyContract.sol\":2673:2688  _allowed[_from] */\n      0x00\n        /* \"MyContract.sol\":2682:2687  _from */\n      dup7\n        /* \"MyContract.sol\":2673:2688  _allowed[_from] */\n      0xffffffffffffffffffffffffffffffffffffffff\n      and\n      0xffffffffffffffffffffffffffffffffffffffff\n      and\n      dup2\n      mstore\n      0x20\n      add\n      swap1\n      dup2\n      mstore\n      0x20\n      add\n      0x00\n      keccak256\n        /* \"MyContract.sol\":2673:2700  _allowed[_from][msg.sender] */\n      0x00\n        /* \"MyContract.sol\":2689:2699  msg.sender */\n      caller\n        /* \"MyContract.sol\":2673:2700  _allowed[_from][msg.sender] */\n      0xffffffffffffffffffffffffffffffffffffffff\n      and\n      0xffffffffffffffffffffffffffffffffffffffff\n      and\n      dup2\n      mstore\n      0x20\n      add\n      swap1\n      dup2\n      mstore\n      0x20\n      add\n      0x00\n      keccak256\n      0x00\n        /* \"MyContract.sol\":2673:2710  _allowed[_from][msg.sender] -= _value */\n      dup3\n      dup3\n      sload\n      tag_90\n      swap2\n      swap1\n      tag_88\n      jump\t// in\n    tag_90:\n      swap3\n      pop\n      pop\n      dup2\n      swap1\n      sstore\n      pop\n        /* \"MyContract.sol\":2726:2754  Transfer(_from, _to, _value) */\n      0xddf252ad1be2c89b69c2b068fc378daa952ba7f163c4a11628f55a4df523b3ef\n        /* \"MyContract.sol\":2735:2740  _from */\n      dup5\n        /* \"MyContract.sol\":2742:2745  _to */\n      dup5\n        /* \"MyContract.sol\":2747:2753  _value */\n      dup5\n        /* \"MyContract.sol\":2726:2754  Transfer(_from, _to, _value) */\n      mload(0x40)\n      tag_91\n      swap4\n      swap3\n      swap2\n      swap1\n      tag_92\n      jump\t// in\n    tag_91:\n      mload(0x40)\n      dup1\n      swap2\n      sub\n      swap1\n      log1\n        /* \"MyContract.sol\":2772:2776  true */\n      0x01\n        /* \"MyContract.sol\":2765:2776  return true */\n      swap1\n      pop\n        /* \"MyContract.sol\":2092:2784  function transferFrom(address _from, address _to, uint256 _value) public returns (bool success) {... */\n      swap4\n      swap3\n      pop\n      pop\n      pop\n      jump\t// out\n        /* \"MyContract.sol\":2792:3086  function setAllowance(address _spender, uint256 _value) public returns(bool) {... */\n    tag_38:\n        /* \"MyContract.sol\":2863:2867  bool */\n      0x00\n        /* \"MyContract.sol\":2908:2909  0 */\n      dup1\n        /* \"MyContract.sol\":2888:2910  _spender != address(0) */\n      0xffffffffffffffffffffffffffffffffffffffff\n      and\n        /* \"MyContract.sol\":2888:2896  _spender */\n      dup4\n        /* \"MyContract.sol\":2888:2910  _spender != address(0) */\n      0xffffffffffffffffffffffffffffffffffffffff\n      and\n      sub\n        /* \"MyContract.sol\":2880:2911  require(_spender != address(0)) */\n      tag_94\n      jumpi\n      0x00\n      dup1\n      revert\n    tag_94:\n        /* \"MyContract.sol\":2931:2949  isFrozen(_spender) */\n      tag_95\n        /* \"MyContract.sol\":2940:2948  _spender */\n      dup4\n        /* \"MyContract.sol\":2931:2939  isFrozen */\n      tag_67\n        /* \"MyContract.sol\":2931:2949  isFrozen(_spender) */\n      jump\t// in\n    tag_95:\n        /* \"MyContract.sol\":2930:2949  !isFrozen(_spender) */\n      iszero\n        /* \"MyContract.sol\":2922:2950  require(!isFrozen(_spender)) */\n      tag_96\n      jumpi\n      0x00\n      dup1\n      revert\n    tag_96:\n        /* \"MyContract.sol\":2996:3002  _value */\n      dup2\n        /* \"MyContract.sol\":2961:2971  _allowance */\n      0x07\n        /* \"MyContract.sol\":2961:2983  _allowance[msg.sender] */\n      0x00\n        /* \"MyContract.sol\":2972:2982  msg.sender */\n      caller\n        /* \"MyContract.sol\":2961:2983  _allowance[msg.sender] */\n      0xffffffffffffffffffffffffffffffffffffffff\n      and\n      0xffffffffffffffffffffffffffffffffffffffff\n      and\n      dup2\n      mstore\n      0x20\n      add\n      swap1\n      dup2\n      mstore\n      0x20\n      add\n      0x00\n      keccak256\n        /* \"MyContract.sol\":2961:2993  _allowance[msg.sender][_spender] */\n      0x00\n        /* \"MyContract.sol\":2984:2992  _spender */\n      dup6\n        /* \"MyContract.sol\":2961:2993  _allowance[msg.sender][_spender] */\n      0xffffffffffffffffffffffffffffffffffffffff\n      and\n      0xffffffffffffffffffffffffffffffffffffffff\n      and\n      dup2\n      mstore\n      0x20\n      add\n      swap1\n      dup2\n      mstore\n      0x20\n      add\n      0x00\n      keccak256\n        /* \"MyContract.sol\":2961:3002  _allowance[msg.sender][_spender] = _value */\n      dup2\n      swap1\n      sstore\n      pop\n        /* \"MyContract.sol\":3039:3047  _spender */\n      dup3\n        /* \"MyContract.sol\":3018:3056  Approval(msg.sender, _spender, _value) */\n      0xffffffffffffffffffffffffffffffffffffffff\n      and\n        /* \"MyContract.sol\":3027:3037  msg.sender */\n      caller\n        /* \"MyContract.sol\":3018:3056  Approval(msg.sender, _spender, _value) */\n      0xffffffffffffffffffffffffffffffffffffffff\n      and\n      0x8c5be1e5ebec7d5bd14f71427d1e84f3dd0314c0f7b2291e5b200ac8c7c3b925\n        /* \"MyContract.sol\":3049:3055  _value */\n      dup5\n        /* \"MyContract.sol\":3018:3056  Approval(msg.sender, _spender, _value) */\n      mload(0x40)\n      tag_97\n      swap2\n      swap1\n      tag_25\n      jump\t// in\n    tag_97:\n      mload(0x40)\n      dup1\n      swap2\n      sub\n      swap1\n      log3\n        /* \"MyContract.sol\":3074:3078  true */\n      0x01\n        /* \"MyContract.sol\":3067:3078  return true */\n      swap1\n      pop\n        /* \"MyContract.sol\":2792:3086  function setAllowance(address _spender, uint256 _value) public returns(bool) {... */\n      swap3\n      swap2\n      pop\n      pop\n      jump\t// out\n        /* \"MyContract.sol\":297:323  uint8 public decimals = 18 */\n    tag_41:\n      0x03\n      0x00\n      swap1\n      sload\n      swap1\n      0x0100\n      exp\n      swap1\n      div\n      0xff\n      and\n      dup2\n      jump\t// out\n        /* \"MyContract.sol\":3283:4089  function setFrozenAccount(address account, bool status) public returns (bool success) {... */\n    tag_47:\n        /* \"MyContract.sol\":3355:3367  bool success */\n      0x00\n        /* \"MyContract.sol\":3402:3408  _owner */\n      dup1\n      0x00\n      swap1\n      sload\n      swap1\n      0x0100\n      exp\n      swap1\n      div\n      0xffffffffffffffffffffffffffffffffffffffff\n      and\n        /* \"MyContract.sol\":3388:3408  msg.sender == _owner */\n      0xffffffffffffffffffffffffffffffffffffffff\n      and\n        /* \"MyContract.sol\":3388:3398  msg.sender */\n      caller\n        /* \"MyContract.sol\":3388:3408  msg.sender == _owner */\n      0xffffffffffffffffffffffffffffffffffffffff\n      and\n      eq\n        /* \"MyContract.sol\":3380:3409  require(msg.sender == _owner) */\n      tag_99\n      jumpi\n      0x00\n      dup1\n      revert\n    tag_99:\n        /* \"MyContract.sol\":3619:3624  false */\n      0x00\n        /* \"MyContract.sol\":3609:3624  status == false */\n      iszero\n      iszero\n        /* \"MyContract.sol\":3609:3615  status */\n      dup3\n        /* \"MyContract.sol\":3609:3624  status == false */\n      iszero\n      iszero\n      eq\n        /* \"MyContract.sol\":3609:3645  status == false && isFrozen(account) */\n      dup1\n      iszero\n      tag_100\n      jumpi\n      pop\n        /* \"MyContract.sol\":3628:3645  isFrozen(account) */\n      tag_101\n        /* \"MyContract.sol\":3637:3644  account */\n      dup4\n        /* \"MyContract.sol\":3628:3636  isFrozen */\n      tag_67\n        /* \"MyContract.sol\":3628:3645  isFrozen(account) */\n      jump\t// in\n    tag_101:\n        /* \"MyContract.sol\":3609:3645  status == false && isFrozen(account) */\n    tag_100:\n        /* \"MyContract.sol\":3605:4060  if (status == false && isFrozen(account)) {... */\n      iszero\n      tag_102\n      jumpi\n        /* \"MyContract.sol\":3667:3673  uint i */\n      0x00\n        /* \"MyContract.sol\":3662:3966  for (uint i = 0; i < _frozenAddresses.length; i++) {... */\n    tag_103:\n        /* \"MyContract.sol\":3683:3699  _frozenAddresses */\n      0x08\n        /* \"MyContract.sol\":3683:3706  _frozenAddresses.length */\n      dup1\n      sload\n      swap1\n      pop\n        /* \"MyContract.sol\":3679:3680  i */\n      dup2\n        /* \"MyContract.sol\":3679:3706  i < _frozenAddresses.length */\n      lt\n        /* \"MyContract.sol\":3662:3966  for (uint i = 0; i < _frozenAddresses.length; i++) {... */\n      iszero\n      tag_104\n      jumpi\n        /* \"MyContract.sol\":3759:3766  account */\n      dup4\n        /* \"MyContract.sol\":3736:3766  _frozenAddresses[i] == account */\n      0xffffffffffffffffffffffffffffffffffffffff\n      and\n        /* \"MyContract.sol\":3736:3752  _frozenAddresses */\n      0x08\n        /* \"MyContract.sol\":3753:3754  i */\n      dup3\n        /* \"MyContract.sol\":3736:3755  _frozenAddresses[i] */\n      dup2\n      sload\n      dup2\n      lt\n      tag_106\n      jumpi\n      tag_107\n      tag_108\n      jump\t// in\n    tag_107:\n    tag_106:\n      swap1\n      0x00\n      mstore\n      keccak256(0x00, 0x20)\n      add\n      0x00\n      swap1\n      sload\n      swap1\n      0x0100\n      exp\n      swap1\n      div\n      0xffffffffffffffffffffffffffffffffffffffff\n      and\n        /* \"MyContract.sol\":3736:3766  _frozenAddresses[i] == account */\n      0xffffffffffffffffffffffffffffffffffffffff\n      and\n      sub\n        /* \"MyContract.sol\":3732:3951  if (_frozenAddresses[i] == account) {... */\n      tag_110\n      jumpi\n        /* \"MyContract.sol\":3813:3829  _frozenAddresses */\n      0x08\n        /* \"MyContract.sol\":3856:3857  1 */\n      0x01\n        /* \"MyContract.sol\":3830:3846  _frozenAddresses */\n      0x08\n        /* \"MyContract.sol\":3830:3853  _frozenAddresses.length */\n      dup1\n      sload\n      swap1\n      pop\n        /* \"MyContract.sol\":3830:3857  _frozenAddresses.length - 1 */\n      tag_111\n      swap2\n      swap1\n      tag_88\n      jump\t// in\n    tag_111:\n        /* \"MyContract.sol\":3813:3858  _frozenAddresses[_frozenAddresses.length - 1] */\n      dup2\n      sload\n      dup2\n      lt\n      tag_112\n      jumpi\n      tag_113\n      tag_108\n      jump\t// in\n    tag_113:\n    tag_112:\n      swap1\n      0x00\n      mstore\n      keccak256(0x00, 0x20)\n      add\n      0x00\n      swap1\n      sload\n      swap1\n      0x0100\n      exp\n      swap1\n      div\n      0xffffffffffffffffffffffffffffffffffffffff\n      and\n        /* \"MyContract.sol\":3791:3807  _frozenAddresses */\n      0x08\n        /* \"MyContract.sol\":3808:3809  i */\n      dup3\n        /* \"MyContract.sol\":3791:3810  _frozenAddresses[i] */\n      dup2\n      sload\n      dup2\n      lt\n      tag_115\n      jumpi\n      tag_116\n      tag_108\n      jump\t// in\n    tag_116:\n    tag_115:\n      swap1\n      0x00\n      mstore\n      keccak256(0x00, 0x20)\n      add\n      0x00\n        /* \"MyContract.sol\":3791:3858  _frozenAddresses[i] = _frozenAddresses[_frozenAddresses.length - 1] */\n      0x0100\n      exp\n      dup2\n      sload\n      dup2\n      0xffffffffffffffffffffffffffffffffffffffff\n      mul\n      not\n      and\n      swap1\n      dup4\n      0xffffffffffffffffffffffffffffffffffffffff\n      and\n      mul\n      or\n      swap1\n      sstore\n      pop\n        /* \"MyContract.sol\":3881:3897  _frozenAddresses */\n      0x08\n        /* \"MyContract.sol\":3881:3903  _frozenAddresses.pop() */\n      dup1\n      sload\n      dup1\n      tag_118\n      jumpi\n      tag_119\n      tag_120\n      jump\t// in\n    tag_119:\n    tag_118:\n      0x01\n      swap1\n      sub\n      dup2\n      dup2\n      swap1\n      0x00\n      mstore\n      keccak256(0x00, 0x20)\n      add\n      exp(0x0100, 0x00)\n      dup2\n      sload\n      swap1\n      0xffffffffffffffffffffffffffffffffffffffff\n      mul\n      not\n      and\n      swap1\n      sstore\n      swap1\n      sstore\n        /* \"MyContract.sol\":3926:3931  break */\n      jump(tag_104)\n        /* \"MyContract.sol\":3732:3951  if (_frozenAddresses[i] == account) {... */\n    tag_110:\n        /* \"MyContract.sol\":3708:3711  i++ */\n      dup1\n      dup1\n      tag_122\n      swap1\n      tag_123\n      jump\t// in\n    tag_122:\n      swap2\n      pop\n      pop\n        /* \"MyContract.sol\":3662:3966  for (uint i = 0; i < _frozenAddresses.length; i++) {... */\n      jump(tag_103)\n    tag_104:\n      pop\n        /* \"MyContract.sol\":3605:4060  if (status == false && isFrozen(account)) {... */\n      jump(tag_124)\n    tag_102:\n        /* \"MyContract.sol\":3997:4001  true */\n      0x01\n        /* \"MyContract.sol\":3987:4001  status == true */\n      iszero\n      iszero\n        /* \"MyContract.sol\":3987:3993  status */\n      dup3\n        /* \"MyContract.sol\":3987:4001  status == true */\n      iszero\n      iszero\n      sub\n        /* \"MyContract.sol\":3983:4060  if (status == true) {... */\n      tag_125\n      jumpi\n        /* \"MyContract.sol\":4018:4034  _frozenAddresses */\n      0x08\n        /* \"MyContract.sol\":4040:4047  account */\n      dup4\n        /* \"MyContract.sol\":4018:4048  _frozenAddresses.push(account) */\n      swap1\n      dup1\n      0x01\n      dup2\n      sload\n      add\n      dup1\n      dup3\n      sstore\n      dup1\n      swap2\n      pop\n      pop\n      0x01\n      swap1\n      sub\n      swap1\n      0x00\n      mstore\n      keccak256(0x00, 0x20)\n      add\n      0x00\n      swap1\n      swap2\n      swap1\n      swap2\n      swap1\n      swap2\n      0x0100\n      exp\n      dup2\n      sload\n      dup2\n      0xffffffffffffffffffffffffffffffffffffffff\n      mul\n      not\n      and\n      swap1\n      dup4\n      0xffffffffffffffffffffffffffffffffffffffff\n      and\n      mul\n      or\n      swap1\n      sstore\n      pop\n        /* \"MyContract.sol\":3983:4060  if (status == true) {... */\n    tag_125:\n        /* \"MyContract.sol\":3605:4060  if (status == false && isFrozen(account)) {... */\n    tag_124:\n        /* \"MyContract.sol\":4077:4081  true */\n      0x01\n        /* \"MyContract.sol\":4070:4081  return true */\n      swap1\n      pop\n        /* \"MyContract.sol\":3283:4089  function setFrozenAccount(address account, bool status) public returns (bool success) {... */\n      swap3\n      swap2\n      pop\n      pop\n      jump\t// out\n        /* \"MyContract.sol\":365:410  mapping(address => uint256) public  balanceOf */\n    tag_52:\n      mstore(0x20, 0x05)\n      dup1\n      0x00\n      mstore\n      keccak256(0x00, 0x40)\n      0x00\n      swap2\n      pop\n      swap1\n      pop\n      sload\n      dup2\n      jump\t// out\n        /* \"MyContract.sol\":253:273  string public symbol */\n    tag_55:\n      0x02\n      dup1\n      sload\n      tag_127\n      swap1\n      tag_70\n      jump\t// in\n    tag_127:\n      dup1\n      0x1f\n      add\n      0x20\n      dup1\n      swap2\n      div\n      mul\n      0x20\n      add\n      mload(0x40)\n      swap1\n      dup2\n      add\n      0x40\n      mstore\n      dup1\n      swap3\n      swap2\n      swap1\n      dup2\n      dup2\n      mstore\n      0x20\n      add\n      dup3\n      dup1\n      sload\n      tag_128\n      swap1\n      tag_70\n      jump\t// in\n    tag_128:\n      dup1\n      iszero\n      tag_129\n      jumpi\n      dup1\n      0x1f\n      lt\n      tag_130\n      jumpi\n      0x0100\n      dup1\n      dup4\n      sload\n      div\n      mul\n      dup4\n      mstore\n      swap2\n      0x20\n      add\n      swap2\n      jump(tag_129)\n    tag_130:\n      dup3\n      add\n      swap2\n      swap1\n      0x00\n      mstore\n      keccak256(0x00, 0x20)\n      swap1\n    tag_131:\n      dup2\n      sload\n      dup2\n      mstore\n      swap1\n      0x01\n      add\n      swap1\n      0x20\n      add\n      dup1\n      dup4\n      gt\n      tag_131\n      jumpi\n      dup3\n      swap1\n      sub\n      0x1f\n      and\n      dup3\n      add\n      swap2\n    tag_129:\n      pop\n      pop\n      pop\n      pop\n      pop\n      dup2\n      jump\t// out\n        /* \"MyContract.sol\":1347:2084  function transfer(address _to, uint256 _value) public returns (bool success) {... */\n    tag_59:\n        /* \"MyContract.sol\":1410:1422  bool success */\n      0x00\n        /* \"MyContract.sol\":1458:1459  0 */\n      dup1\n        /* \"MyContract.sol\":1443:1460  _to != address(0) */\n      0xffffffffffffffffffffffffffffffffffffffff\n      and\n        /* \"MyContract.sol\":1443:1446  _to */\n      dup4\n        /* \"MyContract.sol\":1443:1460  _to != address(0) */\n      0xffffffffffffffffffffffffffffffffffffffff\n      and\n      sub\n        /* \"MyContract.sol\":1435:1461  require(_to != address(0)) */\n      tag_133\n      jumpi\n      0x00\n      dup1\n      revert\n    tag_133:\n        /* \"MyContract.sol\":1511:1531  isFrozen(msg.sender) */\n      tag_134\n        /* \"MyContract.sol\":1520:1530  msg.sender */\n      caller\n        /* \"MyContract.sol\":1511:1519  isFrozen */\n      tag_67\n        /* \"MyContract.sol\":1511:1531  isFrozen(msg.sender) */\n      jump\t// in\n    tag_134:\n        /* \"MyContract.sol\":1510:1531  !isFrozen(msg.sender) */\n      iszero\n        /* \"MyContract.sol\":1502:1532  require(!isFrozen(msg.sender)) */\n      tag_135\n      jumpi\n      0x00\n      dup1\n      revert\n    tag_135:\n        /* \"MyContract.sol\":1594:1607  isFrozen(_to) */\n      tag_136\n        /* \"MyContract.sol\":1603:1606  _to */\n      dup4\n        /* \"MyContract.sol\":1594:1602  isFrozen */\n      tag_67\n        /* \"MyContract.sol\":1594:1607  isFrozen(_to) */\n      jump\t// in\n    tag_136:\n        /* \"MyContract.sol\":1593:1607  !isFrozen(_to) */\n      iszero\n        /* \"MyContract.sol\":1585:1608  require(!isFrozen(_to)) */\n      tag_137\n      jumpi\n      0x00\n      dup1\n      revert\n    tag_137:\n        /* \"MyContract.sol\":1695:1701  _value */\n      dup2\n        /* \"MyContract.sol\":1670:1679  balanceOf */\n      0x05\n        /* \"MyContract.sol\":1670:1691  balanceOf[msg.sender] */\n      0x00\n        /* \"MyContract.sol\":1680:1690  msg.sender */\n      caller\n        /* \"MyContract.sol\":1670:1691  balanceOf[msg.sender] */\n      0xffffffffffffffffffffffffffffffffffffffff\n      and\n      0xffffffffffffffffffffffffffffffffffffffff\n      and\n      dup2\n      mstore\n      0x20\n      add\n      swap1\n      dup2\n      mstore\n      0x20\n      add\n      0x00\n      keccak256\n      sload\n        /* \"MyContract.sol\":1670:1701  balanceOf[msg.sender] >= _value */\n      lt\n      iszero\n        /* \"MyContract.sol\":1662:1702  require(balanceOf[msg.sender] >= _value) */\n      tag_138\n      jumpi\n      0x00\n      dup1\n      revert\n    tag_138:\n        /* \"MyContract.sol\":1748:1757  balanceOf */\n      0x05\n        /* \"MyContract.sol\":1748:1762  balanceOf[_to] */\n      0x00\n        /* \"MyContract.sol\":1758:1761  _to */\n      dup5\n        /* \"MyContract.sol\":1748:1762  balanceOf[_to] */\n      0xffffffffffffffffffffffffffffffffffffffff\n      and\n      0xffffffffffffffffffffffffffffffffffffffff\n      and\n      dup2\n      mstore\n      0x20\n      add\n      swap1\n      dup2\n      mstore\n      0x20\n      add\n      0x00\n      keccak256\n      sload\n        /* \"MyContract.sol\":1738:1744  _value */\n      dup3\n        /* \"MyContract.sol\":1721:1730  balanceOf */\n      0x05\n        /* \"MyContract.sol\":1721:1735  balanceOf[_to] */\n      0x00\n        /* \"MyContract.sol\":1731:1734  _to */\n      dup7\n        /* \"MyContract.sol\":1721:1735  balanceOf[_to] */\n      0xffffffffffffffffffffffffffffffffffffffff\n      and\n      0xffffffffffffffffffffffffffffffffffffffff\n      and\n      dup2\n      mstore\n      0x20\n      add\n      swap1\n      dup2\n      mstore\n      0x20\n      add\n      0x00\n      keccak256\n      sload\n        /* \"MyContract.sol\":1721:1744  balanceOf[_to] + _value */\n      tag_139\n      swap2\n      swap1\n      tag_85\n      jump\t// in\n    tag_139:\n        /* \"MyContract.sol\":1721:1762  balanceOf[_to] + _value >= balanceOf[_to] */\n      lt\n      iszero\n        /* \"MyContract.sol\":1713:1763  require(balanceOf[_to] + _value >= balanceOf[_to]) */\n      tag_140\n      jumpi\n      0x00\n      dup1\n      revert\n    tag_140:\n        /* \"MyContract.sol\":1784:1803  uint256 previousBAL */\n      0x00\n        /* \"MyContract.sol\":1830:1839  balanceOf */\n      0x05\n        /* \"MyContract.sol\":1830:1844  balanceOf[_to] */\n      0x00\n        /* \"MyContract.sol\":1840:1843  _to */\n      dup6\n        /* \"MyContract.sol\":1830:1844  balanceOf[_to] */\n      0xffffffffffffffffffffffffffffffffffffffff\n      and\n      0xffffffffffffffffffffffffffffffffffffffff\n      and\n      dup2\n      mstore\n      0x20\n      add\n      swap1\n      dup2\n      mstore\n      0x20\n      add\n      0x00\n      keccak256\n      sload\n        /* \"MyContract.sol\":1806:1815  balanceOf */\n      0x05\n        /* \"MyContract.sol\":1806:1827  balanceOf[msg.sender] */\n      0x00\n        /* \"MyContract.sol\":1816:1826  msg.sender */\n      caller\n        /* \"MyContract.sol\":1806:1827  balanceOf[msg.sender] */\n      0xffffffffffffffffffffffffffffffffffffffff\n      and\n      0xffffffffffffffffffffffffffffffffffffffff\n      and\n      dup2\n      mstore\n      0x20\n      add\n      swap1\n      dup2\n      mstore\n      0x20\n      add\n      0x00\n      keccak256\n      sload\n        /* \"MyContract.sol\":1806:1844  balanceOf[msg.sender] + balanceOf[_to] */\n      tag_141\n      swap2\n      swap1\n      tag_85\n      jump\t// in\n    tag_141:\n        /* \"MyContract.sol\":1784:1844  uint256 previousBAL = balanceOf[msg.sender] + balanceOf[_to] */\n      swap1\n      pop\n        /* \"MyContract.sol\":1890:1896  _value */\n      dup3\n        /* \"MyContract.sol\":1865:1874  balanceOf */\n      0x05\n        /* \"MyContract.sol\":1865:1886  balanceOf[msg.sender] */\n      0x00\n        /* \"MyContract.sol\":1875:1885  msg.sender */\n      caller\n        /* \"MyContract.sol\":1865:1886  balanceOf[msg.sender] */\n      0xffffffffffffffffffffffffffffffffffffffff\n      and\n      0xffffffffffffffffffffffffffffffffffffffff\n      and\n      dup2\n      mstore\n      0x20\n      add\n      swap1\n      dup2\n      mstore\n      0x20\n      add\n      0x00\n      keccak256\n      0x00\n        /* \"MyContract.sol\":1865:1896  balanceOf[msg.sender] -= _value */\n      dup3\n      dup3\n      sload\n      tag_142\n      swap2\n      swap1\n      tag_88\n      jump\t// in\n    tag_142:\n      swap3\n      pop\n      pop\n      dup2\n      swap1\n      sstore\n      pop\n        /* \"MyContract.sol\":1925:1931  _value */\n      dup3\n        /* \"MyContract.sol\":1907:1916  balanceOf */\n      0x05\n        /* \"MyContract.sol\":1907:1921  balanceOf[_to] */\n      0x00\n        /* \"MyContract.sol\":1917:1920  _to */\n      dup7\n        /* \"MyContract.sol\":1907:1921  balanceOf[_to] */\n      0xffffffffffffffffffffffffffffffffffffffff\n      and\n      0xffffffffffffffffffffffffffffffffffffffff\n      and\n      dup2\n      mstore\n      0x20\n      add\n      swap1\n      dup2\n      mstore\n      0x20\n      add\n      0x00\n      keccak256\n      0x00\n        /* \"MyContract.sol\":1907:1931  balanceOf[_to] += _value */\n      dup3\n      dup3\n      sload\n      tag_143\n      swap2\n      swap1\n      tag_85\n      jump\t// in\n    tag_143:\n      swap3\n      pop\n      pop\n      dup2\n      swap1\n      sstore\n      pop\n        /* \"MyContract.sol\":1993:2004  previousBAL */\n      dup1\n        /* \"MyContract.sol\":1975:1984  balanceOf */\n      0x05\n        /* \"MyContract.sol\":1975:1989  balanceOf[_to] */\n      0x00\n        /* \"MyContract.sol\":1985:1988  _to */\n      dup7\n        /* \"MyContract.sol\":1975:1989  balanceOf[_to] */\n      0xffffffffffffffffffffffffffffffffffffffff\n      and\n      0xffffffffffffffffffffffffffffffffffffffff\n      and\n      dup2\n      mstore\n      0x20\n      add\n      swap1\n      dup2\n      mstore\n      0x20\n      add\n      0x00\n      keccak256\n      sload\n        /* \"MyContract.sol\":1951:1960  balanceOf */\n      0x05\n        /* \"MyContract.sol\":1951:1972  balanceOf[msg.sender] */\n      0x00\n        /* \"MyContract.sol\":1961:1971  msg.sender */\n      caller\n        /* \"MyContract.sol\":1951:1972  balanceOf[msg.sender] */\n      0xffffffffffffffffffffffffffffffffffffffff\n      and\n      0xffffffffffffffffffffffffffffffffffffffff\n      and\n      dup2\n      mstore\n      0x20\n      add\n      swap1\n      dup2\n      mstore\n      0x20\n      add\n      0x00\n      keccak256\n      sload\n        /* \"MyContract.sol\":1951:1989  balanceOf[msg.sender] + balanceOf[_to] */\n      tag_144\n      swap2\n      swap1\n      tag_85\n      jump\t// in\n    tag_144:\n        /* \"MyContract.sol\":1951:2004  balanceOf[msg.sender] + balanceOf[_to] == previousBAL */\n      eq\n        /* \"MyContract.sol\":1944:2005  assert(balanceOf[msg.sender] + balanceOf[_to] == previousBAL) */\n      tag_145\n      jumpi\n      tag_146\n      tag_147\n      jump\t// in\n    tag_146:\n    tag_145:\n        /* \"MyContract.sol\":2021:2054  Transfer(msg.sender, _to, _value) */\n      0xddf252ad1be2c89b69c2b068fc378daa952ba7f163c4a11628f55a4df523b3ef\n        /* \"MyContract.sol\":2030:2040  msg.sender */\n      caller\n        /* \"MyContract.sol\":2042:2045  _to */\n      dup6\n        /* \"MyContract.sol\":2047:2053  _value */\n      dup6\n        /* \"MyContract.sol\":2021:2054  Transfer(msg.sender, _to, _value) */\n      mload(0x40)\n      tag_148\n      swap4\n      swap3\n      swap2\n      swap1\n      tag_92\n      jump\t// in\n    tag_148:\n      mload(0x40)\n      dup1\n      swap2\n      sub\n      swap1\n      log1\n        /* \"MyContract.sol\":2072:2076  true */\n      0x01\n        /* \"MyContract.sol\":2065:2076  return true */\n      swap2\n      pop\n      pop\n        /* \"MyContract.sol\":1347:2084  function transfer(address _to, uint256 _value) public returns (bool success) {... */\n      swap3\n      swap2\n      pop\n      pop\n      jump\t// out\n        /* \"MyContract.sol\":155:176  address public _owner */\n    tag_62:\n      0x00\n      dup1\n      sload\n      swap1\n      0x0100\n      exp\n      swap1\n      div\n      0xffffffffffffffffffffffffffffffffffffffff\n      and\n      dup2\n      jump\t// out\n        /* \"MyContract.sol\":4151:4412  function isFrozen(address account) public view returns(bool) {... */\n    tag_67:\n        /* \"MyContract.sol\":4206:4210  bool */\n      0x00\n        /* \"MyContract.sol\":4228:4234  uint i */\n      dup1\n        /* \"MyContract.sol\":4237:4238  0 */\n      0x00\n        /* \"MyContract.sol\":4228:4238  uint i = 0 */\n      swap1\n      pop\n        /* \"MyContract.sol\":4223:4382  for (uint i = 0; i < _frozenAddresses.length; i++) {... */\n    tag_150:\n        /* \"MyContract.sol\":4244:4260  _frozenAddresses */\n      0x08\n        /* \"MyContract.sol\":4244:4267  _frozenAddresses.length */\n      dup1\n      sload\n      swap1\n      pop\n        /* \"MyContract.sol\":4240:4241  i */\n      dup2\n        /* \"MyContract.sol\":4240:4267  i < _frozenAddresses.length */\n      lt\n        /* \"MyContract.sol\":4223:4382  for (uint i = 0; i < _frozenAddresses.length; i++) {... */\n      iszero\n      tag_151\n      jumpi\n        /* \"MyContract.sol\":4316:4323  account */\n      dup3\n        /* \"MyContract.sol\":4293:4323  _frozenAddresses[i] == account */\n      0xffffffffffffffffffffffffffffffffffffffff\n      and\n        /* \"MyContract.sol\":4293:4309  _frozenAddresses */\n      0x08\n        /* \"MyContract.sol\":4310:4311  i */\n      dup3\n        /* \"MyContract.sol\":4293:4312  _frozenAddresses[i] */\n      dup2\n      sload\n      dup2\n      lt\n      tag_153\n      jumpi\n      tag_154\n      tag_108\n      jump\t// in\n    tag_154:\n    tag_153:\n      swap1\n      0x00\n      mstore\n      keccak256(0x00, 0x20)\n      add\n      0x00\n      swap1\n      sload\n      swap1\n      0x0100\n      exp\n      swap1\n      div\n      0xffffffffffffffffffffffffffffffffffffffff\n      and\n        /* \"MyContract.sol\":4293:4323  _frozenAddresses[i] == account */\n      0xffffffffffffffffffffffffffffffffffffffff\n      and\n      sub\n        /* \"MyContract.sol\":4289:4371  if (_frozenAddresses[i] == account) {... */\n      tag_156\n      jumpi\n        /* \"MyContract.sol\":4351:4355  true */\n      0x01\n        /* \"MyContract.sol\":4344:4355  return true */\n      swap2\n      pop\n      pop\n      jump(tag_149)\n        /* \"MyContract.sol\":4289:4371  if (_frozenAddresses[i] == account) {... */\n    tag_156:\n        /* \"MyContract.sol\":4269:4272  i++ */\n      dup1\n      dup1\n      tag_157\n      swap1\n      tag_123\n      jump\t// in\n    tag_157:\n      swap2\n      pop\n      pop\n        /* \"MyContract.sol\":4223:4382  for (uint i = 0; i < _frozenAddresses.length; i++) {... */\n      jump(tag_150)\n    tag_151:\n      pop\n        /* \"MyContract.sol\":4399:4404  false */\n      0x00\n        /* \"MyContract.sol\":4392:4404  return false */\n      swap1\n      pop\n        /* \"MyContract.sol\":4151:4412  function isFrozen(address account) public view returns(bool) {... */\n    tag_149:\n      swap2\n      swap1\n      pop\n      jump\t// out\n        /* \"#utility.yul\":7:106   */\n    tag_158:\n        /* \"#utility.yul\":59:65   */\n      0x00\n        /* \"#utility.yul\":93:98   */\n      dup2\n        /* \"#utility.yul\":87:99   */\n      mload\n        /* \"#utility.yul\":77:99   */\n      swap1\n      pop\n        /* \"#utility.yul\":7:106   */\n      swap2\n      swap1\n      pop\n      jump\t// out\n        /* \"#utility.yul\":112:281   */\n    tag_159:\n        /* \"#utility.yul\":196:207   */\n      0x00\n        /* \"#utility.yul\":230:236   */\n      dup3\n        /* \"#utility.yul\":225:228   */\n      dup3\n        /* \"#utility.yul\":218:237   */\n      mstore\n        /* \"#utility.yul\":270:274   */\n      0x20\n        /* \"#utility.yul\":265:268   */\n      dup3\n        /* \"#utility.yul\":261:275   */\n      add\n        /* \"#utility.yul\":246:275   */\n      swap1\n      pop\n        /* \"#utility.yul\":112:281   */\n      swap3\n      swap2\n      pop\n      pop\n      jump\t// out\n        /* \"#utility.yul\":287:533   */\n    tag_160:\n        /* \"#utility.yul\":368:369   */\n      0x00\n        /* \"#utility.yul\":378:491   */\n    tag_187:\n        /* \"#utility.yul\":392:398   */\n      dup4\n        /* \"#utility.yul\":389:390   */\n      dup2\n        /* \"#utility.yul\":386:399   */\n      lt\n        /* \"#utility.yul\":378:491   */\n      iszero\n      tag_189\n      jumpi\n        /* \"#utility.yul\":477:478   */\n      dup1\n        /* \"#utility.yul\":472:475   */\n      dup3\n        /* \"#utility.yul\":468:479   */\n      add\n        /* \"#utility.yul\":462:480   */\n      mload\n        /* \"#utility.yul\":458:459   */\n      dup2\n        /* \"#utility.yul\":453:456   */\n      dup5\n        /* \"#utility.yul\":449:460   */\n      add\n        /* \"#utility.yul\":442:481   */\n      mstore\n        /* \"#utility.yul\":414:416   */\n      0x20\n        /* \"#utility.yul\":411:412   */\n      dup2\n        /* \"#utility.yul\":407:417   */\n      add\n        /* \"#utility.yul\":402:417   */\n      swap1\n      pop\n        /* \"#utility.yul\":378:491   */\n      jump(tag_187)\n    tag_189:\n        /* \"#utility.yul\":525:526   */\n      0x00\n        /* \"#utility.yul\":516:522   */\n      dup5\n        /* \"#utility.yul\":511:514   */\n      dup5\n        /* \"#utility.yul\":507:523   */\n      add\n        /* \"#utility.yul\":500:527   */\n      mstore\n        /* \"#utility.yul\":349:533   */\n      pop\n        /* \"#utility.yul\":287:533   */\n      pop\n      pop\n      pop\n      jump\t// out\n        /* \"#utility.yul\":539:641   */\n    tag_161:\n        /* \"#utility.yul\":580:586   */\n      0x00\n        /* \"#utility.yul\":631:633   */\n      0x1f\n        /* \"#utility.yul\":627:634   */\n      not\n        /* \"#utility.yul\":622:624   */\n      0x1f\n        /* \"#utility.yul\":615:620   */\n      dup4\n        /* \"#utility.yul\":611:625   */\n      add\n        /* \"#utility.yul\":607:635   */\n      and\n        /* \"#utility.yul\":597:635   */\n      swap1\n      pop\n        /* \"#utility.yul\":539:641   */\n      swap2\n      swap1\n      pop\n      jump\t// out\n        /* \"#utility.yul\":647:1024   */\n    tag_162:\n        /* \"#utility.yul\":735:738   */\n      0x00\n        /* \"#utility.yul\":763:802   */\n      tag_192\n        /* \"#utility.yul\":796:801   */\n      dup3\n        /* \"#utility.yul\":763:802   */\n      tag_158\n      jump\t// in\n    tag_192:\n        /* \"#utility.yul\":818:889   */\n      tag_193\n        /* \"#utility.yul\":882:888   */\n      dup2\n        /* \"#utility.yul\":877:880   */\n      dup6\n        /* \"#utility.yul\":818:889   */\n      tag_159\n      jump\t// in\n    tag_193:\n        /* \"#utility.yul\":811:889   */\n      swap4\n      pop\n        /* \"#utility.yul\":898:963   */\n      tag_194\n        /* \"#utility.yul\":956:962   */\n      dup2\n        /* \"#utility.yul\":951:954   */\n      dup6\n        /* \"#utility.yul\":944:948   */\n      0x20\n        /* \"#utility.yul\":937:942   */\n      dup7\n        /* \"#utility.yul\":933:949   */\n      add\n        /* \"#utility.yul\":898:963   */\n      tag_160\n      jump\t// in\n    tag_194:\n        /* \"#utility.yul\":988:1017   */\n      tag_195\n        /* \"#utility.yul\":1010:1016   */\n      dup2\n        /* \"#utility.yul\":988:1017   */\n      tag_161\n      jump\t// in\n    tag_195:\n        /* \"#utility.yul\":983:986   */\n      dup5\n        /* \"#utility.yul\":979:1018   */\n      add\n        /* \"#utility.yul\":972:1018   */\n      swap2\n      pop\n        /* \"#utility.yul\":739:1024   */\n      pop\n        /* \"#utility.yul\":647:1024   */\n      swap3\n      swap2\n      pop\n      pop\n      jump\t// out\n        /* \"#utility.yul\":1030:1343   */\n    tag_19:\n        /* \"#utility.yul\":1143:1147   */\n      0x00\n        /* \"#utility.yul\":1181:1183   */\n      0x20\n        /* \"#utility.yul\":1170:1179   */\n      dup3\n        /* \"#utility.yul\":1166:1184   */\n      add\n        /* \"#utility.yul\":1158:1184   */\n      swap1\n      pop\n        /* \"#utility.yul\":1230:1239   */\n      dup2\n        /* \"#utility.yul\":1224:1228   */\n      dup2\n        /* \"#utility.yul\":1220:1240   */\n      sub\n        /* \"#utility.yul\":1216:1217   */\n      0x00\n        /* \"#utility.yul\":1205:1214   */\n      dup4\n        /* \"#utility.yul\":1201:1218   */\n      add\n        /* \"#utility.yul\":1194:1241   */\n      mstore\n        /* \"#utility.yul\":1258:1336   */\n      tag_197\n        /* \"#utility.yul\":1331:1335   */\n      dup2\n        /* \"#utility.yul\":1322:1328   */\n      dup5\n        /* \"#utility.yul\":1258:1336   */\n      tag_162\n      jump\t// in\n    tag_197:\n        /* \"#utility.yul\":1250:1336   */\n      swap1\n      pop\n        /* \"#utility.yul\":1030:1343   */\n      swap3\n      swap2\n      pop\n      pop\n      jump\t// out\n        /* \"#utility.yul\":1430:1547   */\n    tag_164:\n        /* \"#utility.yul\":1539:1540   */\n      0x00\n        /* \"#utility.yul\":1536:1537   */\n      dup1\n        /* \"#utility.yul\":1529:1541   */\n      revert\n        /* \"#utility.yul\":1676:1802   */\n    tag_166:\n        /* \"#utility.yul\":1713:1720   */\n      0x00\n        /* \"#utility.yul\":1753:1795   */\n      0xffffffffffffffffffffffffffffffffffffffff\n        /* \"#utility.yul\":1746:1751   */\n      dup3\n        /* \"#utility.yul\":1742:1796   */\n      and\n        /* \"#utility.yul\":1731:1796   */\n      swap1\n      pop\n        /* \"#utility.yul\":1676:1802   */\n      swap2\n      swap1\n      pop\n      jump\t// out\n        /* \"#utility.yul\":1808:1904   */\n    tag_167:\n        /* \"#utility.yul\":1845:1852   */\n      0x00\n        /* \"#utility.yul\":1874:1898   */\n      tag_203\n        /* \"#utility.yul\":1892:1897   */\n      dup3\n        /* \"#utility.yul\":1874:1898   */\n      tag_166\n      jump\t// in\n    tag_203:\n        /* \"#utility.yul\":1863:1898   */\n      swap1\n      pop\n        /* \"#utility.yul\":1808:1904   */\n      swap2\n      swap1\n      pop\n      jump\t// out\n        /* \"#utility.yul\":1910:2032   */\n    tag_168:\n        /* \"#utility.yul\":1983:2007   */\n      tag_205\n        /* \"#utility.yul\":2001:2006   */\n      dup2\n        /* \"#utility.yul\":1983:2007   */\n      tag_167\n      jump\t// in\n    tag_205:\n        /* \"#utility.yul\":1976:1981   */\n      dup2\n        /* \"#utility.yul\":1973:2008   */\n      eq\n        /* \"#utility.yul\":1963:2026   */\n      tag_206\n      jumpi\n        /* \"#utility.yul\":2022:2023   */\n      0x00\n        /* \"#utility.yul\":2019:2020   */\n      dup1\n        /* \"#utility.yul\":2012:2024   */\n      revert\n        /* \"#utility.yul\":1963:2026   */\n    tag_206:\n        /* \"#utility.yul\":1910:2032   */\n      pop\n      jump\t// out\n        /* \"#utility.yul\":2038:2177   */\n    tag_169:\n        /* \"#utility.yul\":2084:2089   */\n      0x00\n        /* \"#utility.yul\":2122:2128   */\n      dup2\n        /* \"#utility.yul\":2109:2129   */\n      calldataload\n        /* \"#utility.yul\":2100:2129   */\n      swap1\n      pop\n        /* \"#utility.yul\":2138:2171   */\n      tag_208\n        /* \"#utility.yul\":2165:2170   */\n      dup2\n        /* \"#utility.yul\":2138:2171   */\n      tag_168\n      jump\t// in\n    tag_208:\n        /* \"#utility.yul\":2038:2177   */\n      swap3\n      swap2\n      pop\n      pop\n      jump\t// out\n        /* \"#utility.yul\":2183:2657   */\n    tag_22:\n        /* \"#utility.yul\":2251:2257   */\n      0x00\n        /* \"#utility.yul\":2259:2265   */\n      dup1\n        /* \"#utility.yul\":2308:2310   */\n      0x40\n        /* \"#utility.yul\":2296:2305   */\n      dup4\n        /* \"#utility.yul\":2287:2294   */\n      dup6\n        /* \"#utility.yul\":2283:2306   */\n      sub\n        /* \"#utility.yul\":2279:2311   */\n      slt\n        /* \"#utility.yul\":2276:2395   */\n      iszero\n      tag_210\n      jumpi\n        /* \"#utility.yul\":2314:2393   */\n      tag_211\n      tag_164\n      jump\t// in\n    tag_211:\n        /* \"#utility.yul\":2276:2395   */\n    tag_210:\n        /* \"#utility.yul\":2434:2435   */\n      0x00\n        /* \"#utility.yul\":2459:2512   */\n      tag_212\n        /* \"#utility.yul\":2504:2511   */\n      dup6\n        /* \"#utility.yul\":2495:2501   */\n      dup3\n        /* \"#utility.yul\":2484:2493   */\n      dup7\n        /* \"#utility.yul\":2480:2502   */\n      add\n        /* \"#utility.yul\":2459:2512   */\n      tag_169\n      jump\t// in\n    tag_212:\n        /* \"#utility.yul\":2449:2512   */\n      swap3\n      pop\n        /* \"#utility.yul\":2405:2522   */\n      pop\n        /* \"#utility.yul\":2561:2563   */\n      0x20\n        /* \"#utility.yul\":2587:2640   */\n      tag_213\n        /* \"#utility.yul\":2632:2639   */\n      dup6\n        /* \"#utility.yul\":2623:2629   */\n      dup3\n        /* \"#utility.yul\":2612:2621   */\n      dup7\n        /* \"#utility.yul\":2608:2630   */\n      add\n        /* \"#utility.yul\":2587:2640   */\n      tag_169\n      jump\t// in\n    tag_213:\n        /* \"#utility.yul\":2577:2640   */\n      swap2\n      pop\n        /* \"#utility.yul\":2532:2650   */\n      pop\n        /* \"#utility.yul\":2183:2657   */\n      swap3\n      pop\n      swap3\n      swap1\n      pop\n      jump\t// out\n        /* \"#utility.yul\":2663:2740   */\n    tag_170:\n        /* \"#utility.yul\":2700:2707   */\n      0x00\n        /* \"#utility.yul\":2729:2734   */\n      dup2\n        /* \"#utility.yul\":2718:2734   */\n      swap1\n      pop\n        /* \"#utility.yul\":2663:2740   */\n      swap2\n      swap1\n      pop\n      jump\t// out\n        /* \"#utility.yul\":2746:2864   */\n    tag_171:\n        /* \"#utility.yul\":2833:2857   */\n      tag_216\n        /* \"#utility.yul\":2851:2856   */\n      dup2\n        /* \"#utility.yul\":2833:2857   */\n      tag_170\n      jump\t// in\n    tag_216:\n        /* \"#utility.yul\":2828:2831   */\n      dup3\n        /* \"#utility.yul\":2821:2858   */\n      mstore\n        /* \"#utility.yul\":2746:2864   */\n      pop\n      pop\n      jump\t// out\n        /* \"#utility.yul\":2870:3092   */\n    tag_25:\n        /* \"#utility.yul\":2963:2967   */\n      0x00\n        /* \"#utility.yul\":3001:3003   */\n      0x20\n        /* \"#utility.yul\":2990:2999   */\n      dup3\n        /* \"#utility.yul\":2986:3004   */\n      add\n        /* \"#utility.yul\":2978:3004   */\n      swap1\n      pop\n        /* \"#utility.yul\":3014:3085   */\n      tag_218\n        /* \"#utility.yul\":3082:3083   */\n      0x00\n        /* \"#utility.yul\":3071:3080   */\n      dup4\n        /* \"#utility.yul\":3067:3084   */\n      add\n        /* \"#utility.yul\":3058:3064   */\n      dup5\n        /* \"#utility.yul\":3014:3085   */\n      tag_171\n      jump\t// in\n    tag_218:\n        /* \"#utility.yul\":2870:3092   */\n      swap3\n      swap2\n      pop\n      pop\n      jump\t// out\n        /* \"#utility.yul\":3098:3220   */\n    tag_172:\n        /* \"#utility.yul\":3171:3195   */\n      tag_220\n        /* \"#utility.yul\":3189:3194   */\n      dup2\n        /* \"#utility.yul\":3171:3195   */\n      tag_170\n      jump\t// in\n    tag_220:\n        /* \"#utility.yul\":3164:3169   */\n      dup2\n        /* \"#utility.yul\":3161:3196   */\n      eq\n        /* \"#utility.yul\":3151:3214   */\n      tag_221\n      jumpi\n        /* \"#utility.yul\":3210:3211   */\n      0x00\n        /* \"#utility.yul\":3207:3208   */\n      dup1\n        /* \"#utility.yul\":3200:3212   */\n      revert\n        /* \"#utility.yul\":3151:3214   */\n    tag_221:\n        /* \"#utility.yul\":3098:3220   */\n      pop\n      jump\t// out\n        /* \"#utility.yul\":3226:3365   */\n    tag_173:\n        /* \"#utility.yul\":3272:3277   */\n      0x00\n        /* \"#utility.yul\":3310:3316   */\n      dup2\n        /* \"#utility.yul\":3297:3317   */\n      calldataload\n        /* \"#utility.yul\":3288:3317   */\n      swap1\n      pop\n        /* \"#utility.yul\":3326:3359   */\n      tag_223\n        /* \"#utility.yul\":3353:3358   */\n      dup2\n        /* \"#utility.yul\":3326:3359   */\n      tag_172\n      jump\t// in\n    tag_223:\n        /* \"#utility.yul\":3226:3365   */\n      swap3\n      swap2\n      pop\n      pop\n      jump\t// out\n        /* \"#utility.yul\":3371:3990   */\n    tag_31:\n        /* \"#utility.yul\":3448:3454   */\n      0x00\n        /* \"#utility.yul\":3456:3462   */\n      dup1\n        /* \"#utility.yul\":3464:3470   */\n      0x00\n        /* \"#utility.yul\":3513:3515   */\n      0x60\n        /* \"#utility.yul\":3501:3510   */\n      dup5\n        /* \"#utility.yul\":3492:3499   */\n      dup7\n        /* \"#utility.yul\":3488:3511   */\n      sub\n        /* \"#utility.yul\":3484:3516   */\n      slt\n        /* \"#utility.yul\":3481:3600   */\n      iszero\n      tag_225\n      jumpi\n        /* \"#utility.yul\":3519:3598   */\n      tag_226\n      tag_164\n      jump\t// in\n    tag_226:\n        /* \"#utility.yul\":3481:3600   */\n    tag_225:\n        /* \"#utility.yul\":3639:3640   */\n      0x00\n        /* \"#utility.yul\":3664:3717   */\n      tag_227\n        /* \"#utility.yul\":3709:3716   */\n      dup7\n        /* \"#utility.yul\":3700:3706   */\n      dup3\n        /* \"#utility.yul\":3689:3698   */\n      dup8\n        /* \"#utility.yul\":3685:3707   */\n      add\n        /* \"#utility.yul\":3664:3717   */\n      tag_169\n      jump\t// in\n    tag_227:\n        /* \"#utility.yul\":3654:3717   */\n      swap4\n      pop\n        /* \"#utility.yul\":3610:3727   */\n      pop\n        /* \"#utility.yul\":3766:3768   */\n      0x20\n        /* \"#utility.yul\":3792:3845   */\n      tag_228\n        /* \"#utility.yul\":3837:3844   */\n      dup7\n        /* \"#utility.yul\":3828:3834   */\n      dup3\n        /* \"#utility.yul\":3817:3826   */\n      dup8\n        /* \"#utility.yul\":3813:3835   */\n      add\n        /* \"#utility.yul\":3792:3845   */\n      tag_169\n      jump\t// in\n    tag_228:\n        /* \"#utility.yul\":3782:3845   */\n      swap3\n      pop\n        /* \"#utility.yul\":3737:3855   */\n      pop\n        /* \"#utility.yul\":3894:3896   */\n      0x40\n        /* \"#utility.yul\":3920:3973   */\n      tag_229\n        /* \"#utility.yul\":3965:3972   */\n      dup7\n        /* \"#utility.yul\":3956:3962   */\n      dup3\n        /* \"#utility.yul\":3945:3954   */\n      dup8\n        /* \"#utility.yul\":3941:3963   */\n      add\n        /* \"#utility.yul\":3920:3973   */\n      tag_173\n      jump\t// in\n    tag_229:\n        /* \"#utility.yul\":3910:3973   */\n      swap2\n      pop\n        /* \"#utility.yul\":3865:3983   */\n      pop\n        /* \"#utility.yul\":3371:3990   */\n      swap3\n      pop\n      swap3\n      pop\n      swap3\n      jump\t// out\n        /* \"#utility.yul\":3996:4086   */\n    tag_174:\n        /* \"#utility.yul\":4030:4037   */\n      0x00\n        /* \"#utility.yul\":4073:4078   */\n      dup2\n        /* \"#utility.yul\":4066:4079   */\n      iszero\n        /* \"#utility.yul\":4059:4080   */\n      iszero\n        /* \"#utility.yul\":4048:4080   */\n      swap1\n      pop\n        /* \"#utility.yul\":3996:4086   */\n      swap2\n      swap1\n      pop\n      jump\t// out\n        /* \"#utility.yul\":4092:4201   */\n    tag_175:\n        /* \"#utility.yul\":4173:4194   */\n      tag_232\n        /* \"#utility.yul\":4188:4193   */\n      dup2\n        /* \"#utility.yul\":4173:4194   */\n      tag_174\n      jump\t// in\n    tag_232:\n        /* \"#utility.yul\":4168:4171   */\n      dup3\n        /* \"#utility.yul\":4161:4195   */\n      mstore\n        /* \"#utility.yul\":4092:4201   */\n      pop\n      pop\n      jump\t// out\n        /* \"#utility.yul\":4207:4417   */\n    tag_34:\n        /* \"#utility.yul\":4294:4298   */\n      0x00\n        /* \"#utility.yul\":4332:4334   */\n      0x20\n        /* \"#utility.yul\":4321:4330   */\n      dup3\n        /* \"#utility.yul\":4317:4335   */\n      add\n        /* \"#utility.yul\":4309:4335   */\n      swap1\n      pop\n        /* \"#utility.yul\":4345:4410   */\n      tag_234\n        /* \"#utility.yul\":4407:4408   */\n      0x00\n        /* \"#utility.yul\":4396:4405   */\n      dup4\n        /* \"#utility.yul\":4392:4409   */\n      add\n        /* \"#utility.yul\":4383:4389   */\n      dup5\n        /* \"#utility.yul\":4345:4410   */\n      tag_175\n      jump\t// in\n    tag_234:\n        /* \"#utility.yul\":4207:4417   */\n      swap3\n      swap2\n      pop\n      pop\n      jump\t// out\n        /* \"#utility.yul\":4423:4897   */\n    tag_37:\n        /* \"#utility.yul\":4491:4497   */\n      0x00\n        /* \"#utility.yul\":4499:4505   */\n      dup1\n        /* \"#utility.yul\":4548:4550   */\n      0x40\n        /* \"#utility.yul\":4536:4545   */\n      dup4\n        /* \"#utility.yul\":4527:4534   */\n      dup6\n        /* \"#utility.yul\":4523:4546   */\n      sub\n        /* \"#utility.yul\":4519:4551   */\n      slt\n        /* \"#utility.yul\":4516:4635   */\n      iszero\n      tag_236\n      jumpi\n        /* \"#utility.yul\":4554:4633   */\n      tag_237\n      tag_164\n      jump\t// in\n    tag_237:\n        /* \"#utility.yul\":4516:4635   */\n    tag_236:\n        /* \"#utility.yul\":4674:4675   */\n      0x00\n        /* \"#utility.yul\":4699:4752   */\n      tag_238\n        /* \"#utility.yul\":4744:4751   */\n      dup6\n        /* \"#utility.yul\":4735:4741   */\n      dup3\n        /* \"#utility.yul\":4724:4733   */\n      dup7\n        /* \"#utility.yul\":4720:4742   */\n      add\n        /* \"#utility.yul\":4699:4752   */\n      tag_169\n      jump\t// in\n    tag_238:\n        /* \"#utility.yul\":4689:4752   */\n      swap3\n      pop\n        /* \"#utility.yul\":4645:4762   */\n      pop\n        /* \"#utility.yul\":4801:4803   */\n      0x20\n        /* \"#utility.yul\":4827:4880   */\n      tag_239\n        /* \"#utility.yul\":4872:4879   */\n      dup6\n        /* \"#utility.yul\":4863:4869   */\n      dup3\n        /* \"#utility.yul\":4852:4861   */\n      dup7\n        /* \"#utility.yul\":4848:4870   */\n      add\n        /* \"#utility.yul\":4827:4880   */\n      tag_173\n      jump\t// in\n    tag_239:\n        /* \"#utility.yul\":4817:4880   */\n      swap2\n      pop\n        /* \"#utility.yul\":4772:4890   */\n      pop\n        /* \"#utility.yul\":4423:4897   */\n      swap3\n      pop\n      swap3\n      swap1\n      pop\n      jump\t// out\n        /* \"#utility.yul\":4903:4989   */\n    tag_176:\n        /* \"#utility.yul\":4938:4945   */\n      0x00\n        /* \"#utility.yul\":4978:4982   */\n      0xff\n        /* \"#utility.yul\":4971:4976   */\n      dup3\n        /* \"#utility.yul\":4967:4983   */\n      and\n        /* \"#utility.yul\":4956:4983   */\n      swap1\n      pop\n        /* \"#utility.yul\":4903:4989   */\n      swap2\n      swap1\n      pop\n      jump\t// out\n        /* \"#utility.yul\":4995:5107   */\n    tag_177:\n        /* \"#utility.yul\":5078:5100   */\n      tag_242\n        /* \"#utility.yul\":5094:5099   */\n      dup2\n        /* \"#utility.yul\":5078:5100   */\n      tag_176\n      jump\t// in\n    tag_242:\n        /* \"#utility.yul\":5073:5076   */\n      dup3\n        /* \"#utility.yul\":5066:5101   */\n      mstore\n        /* \"#utility.yul\":4995:5107   */\n      pop\n      pop\n      jump\t// out\n        /* \"#utility.yul\":5113:5327   */\n    tag_43:\n        /* \"#utility.yul\":5202:5206   */\n      0x00\n        /* \"#utility.yul\":5240:5242   */\n      0x20\n        /* \"#utility.yul\":5229:5238   */\n      dup3\n        /* \"#utility.yul\":5225:5243   */\n      add\n        /* \"#utility.yul\":5217:5243   */\n      swap1\n      pop\n        /* \"#utility.yul\":5253:5320   */\n      tag_244\n        /* \"#utility.yul\":5317:5318   */\n      0x00\n        /* \"#utility.yul\":5306:5315   */\n      dup4\n        /* \"#utility.yul\":5302:5319   */\n      add\n        /* \"#utility.yul\":5293:5299   */\n      dup5\n        /* \"#utility.yul\":5253:5320   */\n      tag_177\n      jump\t// in\n    tag_244:\n        /* \"#utility.yul\":5113:5327   */\n      swap3\n      swap2\n      pop\n      pop\n      jump\t// out\n        /* \"#utility.yul\":5333:5449   */\n    tag_178:\n        /* \"#utility.yul\":5403:5424   */\n      tag_246\n        /* \"#utility.yul\":5418:5423   */\n      dup2\n        /* \"#utility.yul\":5403:5424   */\n      tag_174\n      jump\t// in\n    tag_246:\n        /* \"#utility.yul\":5396:5401   */\n      dup2\n        /* \"#utility.yul\":5393:5425   */\n      eq\n        /* \"#utility.yul\":5383:5443   */\n      tag_247\n      jumpi\n        /* \"#utility.yul\":5439:5440   */\n      0x00\n        /* \"#utility.yul\":5436:5437   */\n      dup1\n        /* \"#utility.yul\":5429:5441   */\n      revert\n        /* \"#utility.yul\":5383:5443   */\n    tag_247:\n        /* \"#utility.yul\":5333:5449   */\n      pop\n      jump\t// out\n        /* \"#utility.yul\":5455:5588   */\n    tag_179:\n        /* \"#utility.yul\":5498:5503   */\n      0x00\n        /* \"#utility.yul\":5536:5542   */\n      dup2\n        /* \"#utility.yul\":5523:5543   */\n      calldataload\n        /* \"#utility.yul\":5514:5543   */\n      swap1\n      pop\n        /* \"#utility.yul\":5552:5582   */\n      tag_249\n        /* \"#utility.yul\":5576:5581   */\n      dup2\n        /* \"#utility.yul\":5552:5582   */\n      tag_178\n      jump\t// in\n    tag_249:\n        /* \"#utility.yul\":5455:5588   */\n      swap3\n      swap2\n      pop\n      pop\n      jump\t// out\n        /* \"#utility.yul\":5594:6062   */\n    tag_46:\n        /* \"#utility.yul\":5659:5665   */\n      0x00\n        /* \"#utility.yul\":5667:5673   */\n      dup1\n        /* \"#utility.yul\":5716:5718   */\n      0x40\n        /* \"#utility.yul\":5704:5713   */\n      dup4\n        /* \"#utility.yul\":5695:5702   */\n      dup6\n        /* \"#utility.yul\":5691:5714   */\n      sub\n        /* \"#utility.yul\":5687:5719   */\n      slt\n        /* \"#utility.yul\":5684:5803   */\n      iszero\n      tag_251\n      jumpi\n        /* \"#utility.yul\":5722:5801   */\n      tag_252\n      tag_164\n      jump\t// in\n    tag_252:\n        /* \"#utility.yul\":5684:5803   */\n    tag_251:\n        /* \"#utility.yul\":5842:5843   */\n      0x00\n        /* \"#utility.yul\":5867:5920   */\n      tag_253\n        /* \"#utility.yul\":5912:5919   */\n      dup6\n        /* \"#utility.yul\":5903:5909   */\n      dup3\n        /* \"#utility.yul\":5892:5901   */\n      dup7\n        /* \"#utility.yul\":5888:5910   */\n      add\n        /* \"#utility.yul\":5867:5920   */\n      tag_169\n      jump\t// in\n    tag_253:\n        /* \"#utility.yul\":5857:5920   */\n      swap3\n      pop\n        /* \"#utility.yul\":5813:5930   */\n      pop\n        /* \"#utility.yul\":5969:5971   */\n      0x20\n        /* \"#utility.yul\":5995:6045   */\n      tag_254\n        /* \"#utility.yul\":6037:6044   */\n      dup6\n        /* \"#utility.yul\":6028:6034   */\n      dup3\n        /* \"#utility.yul\":6017:6026   */\n      dup7\n        /* \"#utility.yul\":6013:6035   */\n      add\n        /* \"#utility.yul\":5995:6045   */\n      tag_179\n      jump\t// in\n    tag_254:\n        /* \"#utility.yul\":5985:6045   */\n      swap2\n      pop\n        /* \"#utility.yul\":5940:6055   */\n      pop\n        /* \"#utility.yul\":5594:6062   */\n      swap3\n      pop\n      swap3\n      swap1\n      pop\n      jump\t// out\n        /* \"#utility.yul\":6068:6397   */\n    tag_51:\n        /* \"#utility.yul\":6127:6133   */\n      0x00\n        /* \"#utility.yul\":6176:6178   */\n      0x20\n        /* \"#utility.yul\":6164:6173   */\n      dup3\n        /* \"#utility.yul\":6155:6162   */\n      dup5\n        /* \"#utility.yul\":6151:6174   */\n      sub\n        /* \"#utility.yul\":6147:6179   */\n      slt\n        /* \"#utility.yul\":6144:6263   */\n      iszero\n      tag_256\n      jumpi\n        /* \"#utility.yul\":6182:6261   */\n      tag_257\n      tag_164\n      jump\t// in\n    tag_257:\n        /* \"#utility.yul\":6144:6263   */\n    tag_256:\n        /* \"#utility.yul\":6302:6303   */\n      0x00\n        /* \"#utility.yul\":6327:6380   */\n      tag_258\n        /* \"#utility.yul\":6372:6379   */\n      dup5\n        /* \"#utility.yul\":6363:6369   */\n      dup3\n        /* \"#utility.yul\":6352:6361   */\n      dup6\n        /* \"#utility.yul\":6348:6370   */\n      add\n        /* \"#utility.yul\":6327:6380   */\n      tag_169\n      jump\t// in\n    tag_258:\n        /* \"#utility.yul\":6317:6380   */\n      swap2\n      pop\n        /* \"#utility.yul\":6273:6390   */\n      pop\n        /* \"#utility.yul\":6068:6397   */\n      swap3\n      swap2\n      pop\n      pop\n      jump\t// out\n        /* \"#utility.yul\":6403:6521   */\n    tag_180:\n        /* \"#utility.yul\":6490:6514   */\n      tag_260\n        /* \"#utility.yul\":6508:6513   */\n      dup2\n        /* \"#utility.yul\":6490:6514   */\n      tag_167\n      jump\t// in\n    tag_260:\n        /* \"#utility.yul\":6485:6488   */\n      dup3\n        /* \"#utility.yul\":6478:6515   */\n      mstore\n        /* \"#utility.yul\":6403:6521   */\n      pop\n      pop\n      jump\t// out\n        /* \"#utility.yul\":6527:6749   */\n    tag_64:\n        /* \"#utility.yul\":6620:6624   */\n      0x00\n        /* \"#utility.yul\":6658:6660   */\n      0x20\n        /* \"#utility.yul\":6647:6656   */\n      dup3\n        /* \"#utility.yul\":6643:6661   */\n      add\n        /* \"#utility.yul\":6635:6661   */\n      swap1\n      pop\n        /* \"#utility.yul\":6671:6742   */\n      tag_262\n        /* \"#utility.yul\":6739:6740   */\n      0x00\n        /* \"#utility.yul\":6728:6737   */\n      dup4\n        /* \"#utility.yul\":6724:6741   */\n      add\n        /* \"#utility.yul\":6715:6721   */\n      dup5\n        /* \"#utility.yul\":6671:6742   */\n      tag_180\n      jump\t// in\n    tag_262:\n        /* \"#utility.yul\":6527:6749   */\n      swap3\n      swap2\n      pop\n      pop\n      jump\t// out\n        /* \"#utility.yul\":6755:6935   */\n    tag_181:\n        /* \"#utility.yul\":6803:6880   */\n      0x4e487b7100000000000000000000000000000000000000000000000000000000\n        /* \"#utility.yul\":6800:6801   */\n      0x00\n        /* \"#utility.yul\":6793:6881   */\n      mstore\n        /* \"#utility.yul\":6900:6904   */\n      0x22\n        /* \"#utility.yul\":6897:6898   */\n      0x04\n        /* \"#utility.yul\":6890:6905   */\n      mstore\n        /* \"#utility.yul\":6924:6928   */\n      0x24\n        /* \"#utility.yul\":6921:6922   */\n      0x00\n        /* \"#utility.yul\":6914:6929   */\n      revert\n        /* \"#utility.yul\":6941:7261   */\n    tag_70:\n        /* \"#utility.yul\":6985:6991   */\n      0x00\n        /* \"#utility.yul\":7022:7023   */\n      0x02\n        /* \"#utility.yul\":7016:7020   */\n      dup3\n        /* \"#utility.yul\":7012:7024   */\n      div\n        /* \"#utility.yul\":7002:7024   */\n      swap1\n      pop\n        /* \"#utility.yul\":7069:7070   */\n      0x01\n        /* \"#utility.yul\":7063:7067   */\n      dup3\n        /* \"#utility.yul\":7059:7071   */\n      and\n        /* \"#utility.yul\":7090:7108   */\n      dup1\n        /* \"#utility.yul\":7080:7161   */\n      tag_265\n      jumpi\n        /* \"#utility.yul\":7146:7150   */\n      0x7f\n        /* \"#utility.yul\":7138:7144   */\n      dup3\n        /* \"#utility.yul\":7134:7151   */\n      and\n        /* \"#utility.yul\":7124:7151   */\n      swap2\n      pop\n        /* \"#utility.yul\":7080:7161   */\n    tag_265:\n        /* \"#utility.yul\":7208:7210   */\n      0x20\n        /* \"#utility.yul\":7200:7206   */\n      dup3\n        /* \"#utility.yul\":7197:7211   */\n      lt\n        /* \"#utility.yul\":7177:7195   */\n      dup2\n        /* \"#utility.yul\":7174:7212   */\n      sub\n        /* \"#utility.yul\":7171:7255   */\n      tag_266\n      jumpi\n        /* \"#utility.yul\":7227:7245   */\n      tag_267\n      tag_181\n      jump\t// in\n    tag_267:\n        /* \"#utility.yul\":7171:7255   */\n    tag_266:\n        /* \"#utility.yul\":6992:7261   */\n      pop\n        /* \"#utility.yul\":6941:7261   */\n      swap2\n      swap1\n      pop\n      jump\t// out\n        /* \"#utility.yul\":7267:7447   */\n    tag_182:\n        /* \"#utility.yul\":7315:7392   */\n      0x4e487b7100000000000000000000000000000000000000000000000000000000\n        /* \"#utility.yul\":7312:7313   */\n      0x00\n        /* \"#utility.yul\":7305:7393   */\n      mstore\n        /* \"#utility.yul\":7412:7416   */\n      0x11\n        /* \"#utility.yul\":7409:7410   */\n      0x04\n        /* \"#utility.yul\":7402:7417   */\n      mstore\n        /* \"#utility.yul\":7436:7440   */\n      0x24\n        /* \"#utility.yul\":7433:7434   */\n      0x00\n        /* \"#utility.yul\":7426:7441   */\n      revert\n        /* \"#utility.yul\":7453:7644   */\n    tag_85:\n        /* \"#utility.yul\":7493:7496   */\n      0x00\n        /* \"#utility.yul\":7512:7532   */\n      tag_270\n        /* \"#utility.yul\":7530:7531   */\n      dup3\n        /* \"#utility.yul\":7512:7532   */\n      tag_170\n      jump\t// in\n    tag_270:\n        /* \"#utility.yul\":7507:7532   */\n      swap2\n      pop\n        /* \"#utility.yul\":7546:7566   */\n      tag_271\n        /* \"#utility.yul\":7564:7565   */\n      dup4\n        /* \"#utility.yul\":7546:7566   */\n      tag_170\n      jump\t// in\n    tag_271:\n        /* \"#utility.yul\":7541:7566   */\n      swap3\n      pop\n        /* \"#utility.yul\":7589:7590   */\n      dup3\n        /* \"#utility.yul\":7586:7587   */\n      dup3\n        /* \"#utility.yul\":7582:7591   */\n      add\n        /* \"#utility.yul\":7575:7591   */\n      swap1\n      pop\n        /* \"#utility.yul\":7610:7613   */\n      dup1\n        /* \"#utility.yul\":7607:7608   */\n      dup3\n        /* \"#utility.yul\":7604:7614   */\n      gt\n        /* \"#utility.yul\":7601:7637   */\n      iszero\n      tag_272\n      jumpi\n        /* \"#utility.yul\":7617:7635   */\n      tag_273\n      tag_182\n      jump\t// in\n    tag_273:\n        /* \"#utility.yul\":7601:7637   */\n    tag_272:\n        /* \"#utility.yul\":7453:7644   */\n      swap3\n      swap2\n      pop\n      pop\n      jump\t// out\n        /* \"#utility.yul\":7650:7844   */\n    tag_88:\n        /* \"#utility.yul\":7690:7694   */\n      0x00\n        /* \"#utility.yul\":7710:7730   */\n      tag_275\n        /* \"#utility.yul\":7728:7729   */\n      dup3\n        /* \"#utility.yul\":7710:7730   */\n      tag_170\n      jump\t// in\n    tag_275:\n        /* \"#utility.yul\":7705:7730   */\n      swap2\n      pop\n        /* \"#utility.yul\":7744:7764   */\n      tag_276\n        /* \"#utility.yul\":7762:7763   */\n      dup4\n        /* \"#utility.yul\":7744:7764   */\n      tag_170\n      jump\t// in\n    tag_276:\n        /* \"#utility.yul\":7739:7764   */\n      swap3\n      pop\n        /* \"#utility.yul\":7788:7789   */\n      dup3\n        /* \"#utility.yul\":7785:7786   */\n      dup3\n        /* \"#utility.yul\":7781:7790   */\n      sub\n        /* \"#utility.yul\":7773:7790   */\n      swap1\n      pop\n        /* \"#utility.yul\":7812:7813   */\n      dup2\n        /* \"#utility.yul\":7806:7810   */\n      dup2\n        /* \"#utility.yul\":7803:7814   */\n      gt\n        /* \"#utility.yul\":7800:7837   */\n      iszero\n      tag_277\n      jumpi\n        /* \"#utility.yul\":7817:7835   */\n      tag_278\n      tag_182\n      jump\t// in\n    tag_278:\n        /* \"#utility.yul\":7800:7837   */\n    tag_277:\n        /* \"#utility.yul\":7650:7844   */\n      swap3\n      swap2\n      pop\n      pop\n      jump\t// out\n        /* \"#utility.yul\":7850:8292   */\n    tag_92:\n        /* \"#utility.yul\":7999:8003   */\n      0x00\n        /* \"#utility.yul\":8037:8039   */\n      0x60\n        /* \"#utility.yul\":8026:8035   */\n      dup3\n        /* \"#utility.yul\":8022:8040   */\n      add\n        /* \"#utility.yul\":8014:8040   */\n      swap1\n      pop\n        /* \"#utility.yul\":8050:8121   */\n      tag_280\n        /* \"#utility.yul\":8118:8119   */\n      0x00\n        /* \"#utility.yul\":8107:8116   */\n      dup4\n        /* \"#utility.yul\":8103:8120   */\n      add\n        /* \"#utility.yul\":8094:8100   */\n      dup7\n        /* \"#utility.yul\":8050:8121   */\n      tag_180\n      jump\t// in\n    tag_280:\n        /* \"#utility.yul\":8131:8203   */\n      tag_281\n        /* \"#utility.yul\":8199:8201   */\n      0x20\n        /* \"#utility.yul\":8188:8197   */\n      dup4\n        /* \"#utility.yul\":8184:8202   */\n      add\n        /* \"#utility.yul\":8175:8181   */\n      dup6\n        /* \"#utility.yul\":8131:8203   */\n      tag_180\n      jump\t// in\n    tag_281:\n        /* \"#utility.yul\":8213:8285   */\n      tag_282\n        /* \"#utility.yul\":8281:8283   */\n      0x40\n        /* \"#utility.yul\":8270:8279   */\n      dup4\n        /* \"#utility.yul\":8266:8284   */\n      add\n        /* \"#utility.yul\":8257:8263   */\n      dup5\n        /* \"#utility.yul\":8213:8285   */\n      tag_171\n      jump\t// in\n    tag_282:\n        /* \"#utility.yul\":7850:8292   */\n      swap5\n      swap4\n      pop\n      pop\n      pop\n      pop\n      jump\t// out\n        /* \"#utility.yul\":8298:8478   */\n    tag_108:\n        /* \"#utility.yul\":8346:8423   */\n      0x4e487b7100000000000000000000000000000000000000000000000000000000\n        /* \"#utility.yul\":8343:8344   */\n      0x00\n        /* \"#utility.yul\":8336:8424   */\n      mstore\n        /* \"#utility.yul\":8443:8447   */\n      0x32\n        /* \"#utility.yul\":8440:8441   */\n      0x04\n        /* \"#utility.yul\":8433:8448   */\n      mstore\n        /* \"#utility.yul\":8467:8471   */\n      0x24\n        /* \"#utility.yul\":8464:8465   */\n      0x00\n        /* \"#utility.yul\":8457:8472   */\n      revert\n        /* \"#utility.yul\":8484:8664   */\n    tag_120:\n        /* \"#utility.yul\":8532:8609   */\n      0x4e487b7100000000000000000000000000000000000000000000000000000000\n        /* \"#utility.yul\":8529:8530   */\n      0x00\n        /* \"#utility.yul\":8522:8610   */\n      mstore\n        /* \"#utility.yul\":8629:8633   */\n      0x31\n        /* \"#utility.yul\":8626:8627   */\n      0x04\n        /* \"#utility.yul\":8619:8634   */\n      mstore\n        /* \"#utility.yul\":8653:8657   */\n      0x24\n        /* \"#utility.yul\":8650:8651   */\n      0x00\n        /* \"#utility.yul\":8643:8658   */\n      revert\n        /* \"#utility.yul\":8670:8903   */\n    tag_123:\n        /* \"#utility.yul\":8709:8712   */\n      0x00\n        /* \"#utility.yul\":8732:8756   */\n      tag_286\n        /* \"#utility.yul\":8750:8755   */\n      dup3\n        /* \"#utility.yul\":8732:8756   */\n      tag_170\n      jump\t// in\n    tag_286:\n        /* \"#utility.yul\":8723:8756   */\n      swap2\n      pop\n        /* \"#utility.yul\":8778:8844   */\n      0xffffffffffffffffffffffffffffffffffffffffffffffffffffffffffffffff\n        /* \"#utility.yul\":8771:8776   */\n      dup3\n        /* \"#utility.yul\":8768:8845   */\n      sub\n        /* \"#utility.yul\":8765:8868   */\n      tag_287\n      jumpi\n        /* \"#utility.yul\":8848:8866   */\n      tag_288\n      tag_182\n      jump\t// in\n    tag_288:\n        /* \"#utility.yul\":8765:8868   */\n    tag_287:\n        /* \"#utility.yul\":8895:8896   */\n      0x01\n        /* \"#utility.yul\":8888:8893   */\n      dup3\n        /* \"#utility.yul\":8884:8897   */\n      add\n        /* \"#utility.yul\":8877:8897   */\n      swap1\n      pop\n        /* \"#utility.yul\":8670:8903   */\n      swap2\n      swap1\n      pop\n      jump\t// out\n        /* \"#utility.yul\":8909:9089   */\n    tag_147:\n        /* \"#utility.yul\":8957:9034   */\n      0x4e487b7100000000000000000000000000000000000000000000000000000000\n        /* \"#utility.yul\":8954:8955   */\n      0x00\n        /* \"#utility.yul\":8947:9035   */\n      mstore\n        /* \"#utility.yul\":9054:9058   */\n      0x01\n        /* \"#utility.yul\":9051:9052   */\n      0x04\n        /* \"#utility.yul\":9044:9059   */\n      mstore\n        /* \"#utility.yul\":9078:9082   */\n      0x24\n        /* \"#utility.yul\":9075:9076   */\n      0x00\n        /* \"#utility.yul\":9068:9083   */\n      revert\n\n    auxdata: 0xa264697066735822122005252995a067e2f0c37652846b2e315883970bee4996a302655b91a21709dfe464736f6c63430008120033\n}\n",
				"bytecode": {
					"linkReferences": {},
					"object": "60806040526012600360006101000a81548160ff021916908360ff1602179055503480156200002d57600080fd5b5060405162001e5c38038062001e5c833981810160405281019062000053919062000308565b600360009054906101000a900460ff1660ff16600a62000074919062000525565b8362000081919062000576565b600481905550600454600560003373ffffffffffffffffffffffffffffffffffffffff1673ffffffffffffffffffffffffffffffffffffffff168152602001908152602001600020819055508160019081620000de919062000802565b508060029081620000f0919062000802565b50336000806101000a81548173ffffffffffffffffffffffffffffffffffffffff021916908373ffffffffffffffffffffffffffffffffffffffff160217905550505050620008e9565b6000604051905090565b600080fd5b600080fd5b6000819050919050565b62000163816200014e565b81146200016f57600080fd5b50565b600081519050620001838162000158565b92915050565b600080fd5b600080fd5b6000601f19601f8301169050919050565b7f4e487b7100000000000000000000000000000000000000000000000000000000600052604160045260246000fd5b620001de8262000193565b810181811067ffffffffffffffff821117156200020057620001ff620001a4565b5b80604052505050565b6000620002156200013a565b9050620002238282620001d3565b919050565b600067ffffffffffffffff821115620002465762000245620001a4565b5b620002518262000193565b9050602081019050919050565b60005b838110156200027e57808201518184015260208101905062000261565b60008484015250505050565b6000620002a16200029b8462000228565b62000209565b905082815260208101848484011115620002c057620002bf6200018e565b5b620002cd8482856200025e565b509392505050565b600082601f830112620002ed57620002ec62000189565b5b8151620002ff8482602086016200028a565b91505092915050565b60008060006060848603121562000324576200032362000144565b5b6000620003348682870162000172565b935050602084015167ffffffffffffffff81111562000358576200035762000149565b5b6200036686828701620002d5565b925050604084015167ffffffffffffffff8111156200038a576200038962000149565b5b6200039886828701620002d5565b9150509250925092565b7f4e487b7100000000000000000000000000000000000000000000000000000000600052601160045260246000fd5b60008160011c9050919050565b6000808291508390505b60018511156200043057808604811115620004085762000407620003a2565b5b6001851615620004185780820291505b80810290506200042885620003d1565b9450620003e8565b94509492505050565b6000826200044b57600190506200051e565b816200045b57600090506200051e565b81600181146200047457600281146200047f57620004b5565b60019150506200051e565b60ff841115620004945762000493620003a2565b5b8360020a915084821115620004ae57620004ad620003a2565b5b506200051e565b5060208310610133831016604e8410600b8410161715620004ef5782820a905083811115620004e957620004e8620003a2565b5b6200051e565b620004fe8484846001620003de565b92509050818404811115620005185762000517620003a2565b5b81810290505b9392505050565b600062000532826200014e565b91506200053f836200014e565b92506200056e7fffffffffffffffffffffffffffffffffffffffffffffffffffffffffffffffff848462000439565b905092915050565b600062000583826200014e565b915062000590836200014e565b9250828202620005a0816200014e565b91508282048414831517620005ba57620005b9620003a2565b5b5092915050565b600081519050919050565b7f4e487b7100000000000000000000000000000000000000000000000000000000600052602260045260246000fd5b600060028204905060018216806200061457607f821691505b6020821081036200062a5762000629620005cc565b5b50919050565b60008190508160005260206000209050919050565b60006020601f8301049050919050565b600082821b905092915050565b600060088302620006947fffffffffffffffffffffffffffffffffffffffffffffffffffffffffffffffff8262000655565b620006a0868362000655565b95508019841693508086168417925050509392505050565b6000819050919050565b6000620006e3620006dd620006d7846200014e565b620006b8565b6200014e565b9050919050565b6000819050919050565b620006ff83620006c2565b620007176200070e82620006ea565b84845462000662565b825550505050565b600090565b6200072e6200071f565b6200073b818484620006f4565b505050565b5b8181101562000763576200075760008262000724565b60018101905062000741565b5050565b601f821115620007b2576200077c8162000630565b620007878462000645565b8101602085101562000797578190505b620007af620007a68562000645565b83018262000740565b50505b505050565b600082821c905092915050565b6000620007d760001984600802620007b7565b1980831691505092915050565b6000620007f28383620007c4565b9150826002028217905092915050565b6200080d82620005c1565b67ffffffffffffffff811115620008295762000828620001a4565b5b620008358254620005fb565b6200084282828562000767565b600060209050601f8311600181146200087a576000841562000865578287015190505b620008718582620007e4565b865550620008e1565b601f1984166200088a8662000630565b60005b82811015620008b4578489015182556001820191506020850194506020810190506200088d565b86831015620008d45784890151620008d0601f891682620007c4565b8355505b6001600288020188555050505b505050505050565b61156380620008f96000396000f3fe608060405234801561001057600080fd5b50600436106100b45760003560e01c806345b7d5da1161007157806345b7d5da146101a357806370a08231146101d357806395d89b4114610203578063a9059cbb14610221578063b2bdfa7b14610251578063e58398361461026f576100b4565b806306fdde03146100b95780630af4187d146100d757806318160ddd1461010757806323b872dd14610125578063310ec4a714610155578063313ce56714610185575b600080fd5b6100c161029f565b6040516100ce9190611042565b60405180910390f35b6100f160048036038101906100ec91906110c7565b61032d565b6040516100fe9190611120565b60405180910390f35b61010f6103b4565b60405161011c9190611120565b60405180910390f35b61013f600480360381019061013a9190611167565b6103ba565b60405161014c91906111d5565b60405180910390f35b61016f600480360381019061016a91906111f0565b610709565b60405161017c91906111d5565b60405180910390f35b61018d610846565b60405161019a919061124c565b60405180910390f35b6101bd60048036038101906101b89190611293565b610859565b6040516101ca91906111d5565b60405180910390f35b6101ed60048036038101906101e891906112d3565b610adf565b6040516101fa9190611120565b60405180910390f35b61020b610af7565b6040516102189190611042565b60405180910390f35b61023b600480360381019061023691906111f0565b610b85565b60405161024891906111d5565b60405180910390f35b610259610ee0565b604051610266919061130f565b60405180910390f35b610289600480360381019061028491906112d3565b610f04565b60405161029691906111d5565b60405180910390f35b600180546102ac90611359565b80601f01602080910402602001604051908101604052809291908181526020018280546102d890611359565b80156103255780601f106102fa57610100808354040283529160200191610325565b820191906000526020600020905b81548152906001019060200180831161030857829003601f168201915b505050505081565b6000600660008473ffffffffffffffffffffffffffffffffffffffff1673ffffffffffffffffffffffffffffffffffffffff16815260200190815260200160002060008373ffffffffffffffffffffffffffffffffffffffff1673ffffffffffffffffffffffffffffffffffffffff16815260200190815260200160002054905092915050565b60045481565b60008073ffffffffffffffffffffffffffffffffffffffff168373ffffffffffffffffffffffffffffffffffffffff16036103f457600080fd5b6103fd33610f04565b1561040757600080fd5b61041083610f04565b1561041a57600080fd5b81600560008673ffffffffffffffffffffffffffffffffffffffff1673ffffffffffffffffffffffffffffffffffffffff16815260200190815260200160002054101561046657600080fd5b81600660008673ffffffffffffffffffffffffffffffffffffffff1673ffffffffffffffffffffffffffffffffffffffff16815260200190815260200160002060003373ffffffffffffffffffffffffffffffffffffffff1673ffffffffffffffffffffffffffffffffffffffff1681526020019081526020016000205410156104ef57600080fd5b600560008473ffffffffffffffffffffffffffffffffffffffff1673ffffffffffffffffffffffffffffffffffffffff1681526020019081526020016000205482600560008673ffffffffffffffffffffffffffffffffffffffff1673ffffffffffffffffffffffffffffffffffffffff1681526020019081526020016000205461057a91906113b9565b1161058457600080fd5b81600560008673ffffffffffffffffffffffffffffffffffffffff1673ffffffffffffffffffffffffffffffffffffffff16815260200190815260200160002060008282546105d391906113ed565b9250508190555081600560008573ffffffffffffffffffffffffffffffffffffffff1673ffffffffffffffffffffffffffffffffffffffff168152602001908152602001600020600082825461062991906113b9565b9250508190555081600660008673ffffffffffffffffffffffffffffffffffffffff1673ffffffffffffffffffffffffffffffffffffffff16815260200190815260200160002060003373ffffffffffffffffffffffffffffffffffffffff1673ffffffffffffffffffffffffffffffffffffffff16815260200190815260200160002060008282546106bc91906113ed565b925050819055507fddf252ad1be2c89b69c2b068fc378daa952ba7f163c4a11628f55a4df523b3ef8484846040516106f693929190611421565b60405180910390a1600190509392505050565b60008073ffffffffffffffffffffffffffffffffffffffff168373ffffffffffffffffffffffffffffffffffffffff160361074357600080fd5b61074c83610f04565b1561075657600080fd5b81600760003373ffffffffffffffffffffffffffffffffffffffff1673ffffffffffffffffffffffffffffffffffffffff16815260200190815260200160002060008573ffffffffffffffffffffffffffffffffffffffff1673ffffffffffffffffffffffffffffffffffffffff168152602001908152602001600020819055508273ffffffffffffffffffffffffffffffffffffffff163373ffffffffffffffffffffffffffffffffffffffff167f8c5be1e5ebec7d5bd14f71427d1e84f3dd0314c0f7b2291e5b200ac8c7c3b925846040516108349190611120565b60405180910390a36001905092915050565b600360009054906101000a900460ff1681565b60008060009054906101000a900473ffffffffffffffffffffffffffffffffffffffff1673ffffffffffffffffffffffffffffffffffffffff163373ffffffffffffffffffffffffffffffffffffffff16146108b457600080fd5b600015158215151480156108cd57506108cc83610f04565b5b15610a645760005b600880549050811015610a5e578373ffffffffffffffffffffffffffffffffffffffff166008828154811061090d5761090c611458565b5b9060005260206000200160009054906101000a900473ffffffffffffffffffffffffffffffffffffffff1673ffffffffffffffffffffffffffffffffffffffff1603610a4b576008600160088054905061096791906113ed565b8154811061097857610977611458565b5b9060005260206000200160009054906101000a900473ffffffffffffffffffffffffffffffffffffffff16600882815481106109b7576109b6611458565b5b9060005260206000200160006101000a81548173ffffffffffffffffffffffffffffffffffffffff021916908373ffffffffffffffffffffffffffffffffffffffff1602179055506008805480610a1157610a10611487565b5b6001900381819060005260206000200160006101000a81549073ffffffffffffffffffffffffffffffffffffffff02191690559055610a5e565b8080610a56906114b6565b9150506108d5565b50610ad5565b6001151582151503610ad4576008839080600181540180825580915050600190039060005260206000200160009091909190916101000a81548173ffffffffffffffffffffffffffffffffffffffff021916908373ffffffffffffffffffffffffffffffffffffffff1602179055505b5b6001905092915050565b60056020528060005260406000206000915090505481565b60028054610b0490611359565b80601f0160208091040260200160405190810160405280929190818152602001828054610b3090611359565b8015610b7d5780601f10610b5257610100808354040283529160200191610b7d565b820191906000526020600020905b815481529060010190602001808311610b6057829003601f168201915b505050505081565b60008073ffffffffffffffffffffffffffffffffffffffff168373ffffffffffffffffffffffffffffffffffffffff1603610bbf57600080fd5b610bc833610f04565b15610bd257600080fd5b610bdb83610f04565b15610be557600080fd5b81600560003373ffffffffffffffffffffffffffffffffffffffff1673ffffffffffffffffffffffffffffffffffffffff168152602001908152602001600020541015610c3157600080fd5b600560008473ffffffffffffffffffffffffffffffffffffffff1673ffffffffffffffffffffffffffffffffffffffff1681526020019081526020016000205482600560008673ffffffffffffffffffffffffffffffffffffffff1673ffffffffffffffffffffffffffffffffffffffff16815260200190815260200160002054610cbc91906113b9565b1015610cc757600080fd5b6000600560008573ffffffffffffffffffffffffffffffffffffffff1673ffffffffffffffffffffffffffffffffffffffff16815260200190815260200160002054600560003373ffffffffffffffffffffffffffffffffffffffff1673ffffffffffffffffffffffffffffffffffffffff16815260200190815260200160002054610d5391906113b9565b905082600560003373ffffffffffffffffffffffffffffffffffffffff1673ffffffffffffffffffffffffffffffffffffffff1681526020019081526020016000206000828254610da491906113ed565b9250508190555082600560008673ffffffffffffffffffffffffffffffffffffffff1673ffffffffffffffffffffffffffffffffffffffff1681526020019081526020016000206000828254610dfa91906113b9565b9250508190555080600560008673ffffffffffffffffffffffffffffffffffffffff1673ffffffffffffffffffffffffffffffffffffffff16815260200190815260200160002054600560003373ffffffffffffffffffffffffffffffffffffffff1673ffffffffffffffffffffffffffffffffffffffff16815260200190815260200160002054610e8c91906113b9565b14610e9a57610e996114fe565b5b7fddf252ad1be2c89b69c2b068fc378daa952ba7f163c4a11628f55a4df523b3ef338585604051610ecd93929190611421565b60405180910390a1600191505092915050565b60008054906101000a900473ffffffffffffffffffffffffffffffffffffffff1681565b600080600090505b600880549050811015610fa7578273ffffffffffffffffffffffffffffffffffffffff1660088281548110610f4457610f43611458565b5b9060005260206000200160009054906101000a900473ffffffffffffffffffffffffffffffffffffffff1673ffffffffffffffffffffffffffffffffffffffff1603610f94576001915050610fad565b8080610f9f906114b6565b915050610f0c565b50600090505b919050565b600081519050919050565b600082825260208201905092915050565b60005b83811015610fec578082015181840152602081019050610fd1565b60008484015250505050565b6000601f19601f8301169050919050565b600061101482610fb2565b61101e8185610fbd565b935061102e818560208601610fce565b61103781610ff8565b840191505092915050565b6000602082019050818103600083015261105c8184611009565b905092915050565b600080fd5b600073ffffffffffffffffffffffffffffffffffffffff82169050919050565b600061109482611069565b9050919050565b6110a481611089565b81146110af57600080fd5b50565b6000813590506110c18161109b565b92915050565b600080604083850312156110de576110dd611064565b5b60006110ec858286016110b2565b92505060206110fd858286016110b2565b9150509250929050565b6000819050919050565b61111a81611107565b82525050565b60006020820190506111356000830184611111565b92915050565b61114481611107565b811461114f57600080fd5b50565b6000813590506111618161113b565b92915050565b6000806000606084860312156111805761117f611064565b5b600061118e868287016110b2565b935050602061119f868287016110b2565b92505060406111b086828701611152565b9150509250925092565b60008115159050919050565b6111cf816111ba565b82525050565b60006020820190506111ea60008301846111c6565b92915050565b6000806040838503121561120757611206611064565b5b6000611215858286016110b2565b925050602061122685828601611152565b9150509250929050565b600060ff82169050919050565b61124681611230565b82525050565b6000602082019050611261600083018461123d565b92915050565b611270816111ba565b811461127b57600080fd5b50565b60008135905061128d81611267565b92915050565b600080604083850312156112aa576112a9611064565b5b60006112b8858286016110b2565b92505060206112c98582860161127e565b9150509250929050565b6000602082840312156112e9576112e8611064565b5b60006112f7848285016110b2565b91505092915050565b61130981611089565b82525050565b60006020820190506113246000830184611300565b92915050565b7f4e487b7100000000000000000000000000000000000000000000000000000000600052602260045260246000fd5b6000600282049050600182168061137157607f821691505b6020821081036113845761138361132a565b5b50919050565b7f4e487b7100000000000000000000000000000000000000000000000000000000600052601160045260246000fd5b60006113c482611107565b91506113cf83611107565b92508282019050808211156113e7576113e661138a565b5b92915050565b60006113f882611107565b915061140383611107565b925082820390508181111561141b5761141a61138a565b5b92915050565b60006060820190506114366000830186611300565b6114436020830185611300565b6114506040830184611111565b949350505050565b7f4e487b7100000000000000000000000000000000000000000000000000000000600052603260045260246000fd5b7f4e487b7100000000000000000000000000000000000000000000000000000000600052603160045260246000fd5b60006114c182611107565b91507fffffffffffffffffffffffffffffffffffffffffffffffffffffffffffffffff82036114f3576114f261138a565b5b600182019050919050565b7f4e487b7100000000000000000000000000000000000000000000000000000000600052600160045260246000fdfea264697066735822122005252995a067e2f0c37652846b2e315883970bee4996a302655b91a21709dfe464736f6c63430008120033",
					"opcodes": "PUSH1 0x80 PUSH1 0x40 MSTORE PUSH1 0x12 PUSH1 0x3 PUSH1 0x0 PUSH2 0x100 EXP DUP2 SLOAD DUP2 PUSH1 0xFF MUL NOT AND SWAP1 DUP4 PUSH1 0xFF AND MUL OR SWAP1 SSTORE POP CALLVALUE DUP1 ISZERO PUSH3 0x2D JUMPI PUSH1 0x0 DUP1 REVERT JUMPDEST POP PUSH1 0x40 MLOAD PUSH3 0x1E5C CODESIZE SUB DUP1 PUSH3 0x1E5C DUP4 CODECOPY DUP2 DUP2 ADD PUSH1 0x40 MSTORE DUP2 ADD SWAP1 PUSH3 0x53 SWAP2 SWAP1 PUSH3 0x308 JUMP JUMPDEST PUSH1 0x3 PUSH1 0x0 SWAP1 SLOAD SWAP1 PUSH2 0x100 EXP SWAP1 DIV PUSH1 0xFF AND PUSH1 0xFF AND PUSH1 0xA PUSH3 0x74 SWAP2 SWAP1 PUSH3 0x525 JUMP JUMPDEST DUP4 PUSH3 0x81 SWAP2 SWAP1 PUSH3 0x576 JUMP JUMPDEST PUSH1 0x4 DUP2 SWAP1 SSTORE POP PUSH1 0x4 SLOAD PUSH1 0x5 PUSH1 0x0 CALLER PUSH20 0xFFFFFFFFFFFFFFFFFFFFFFFFFFFFFFFFFFFFFFFF AND PUSH20 0xFFFFFFFFFFFFFFFFFFFFFFFFFFFFFFFFFFFFFFFF AND DUP2 MSTORE PUSH1 0x20 ADD SWAP1 DUP2 MSTORE PUSH1 0x20 ADD PUSH1 0x0 KECCAK256 DUP2 SWAP1 SSTORE POP DUP2 PUSH1 0x1 SWAP1 DUP2 PUSH3 0xDE SWAP2 SWAP1 PUSH3 0x802 JUMP JUMPDEST POP DUP1 PUSH1 0x2 SWAP1 DUP2 PUSH3 0xF0 SWAP2 SWAP1 PUSH3 0x802 JUMP JUMPDEST POP CALLER PUSH1 0x0 DUP1 PUSH2 0x100 EXP DUP2 SLOAD DUP2 PUSH20 0xFFFFFFFFFFFFFFFFFFFFFFFFFFFFFFFFFFFFFFFF MUL NOT AND SWAP1 DUP4 PUSH20 0xFFFFFFFFFFFFFFFFFFFFFFFFFFFFFFFFFFFFFFFF AND MUL OR SWAP1 SSTORE POP POP POP POP PUSH3 0x8E9 JUMP JUMPDEST PUSH1 0x0 PUSH1 0x40 MLOAD SWAP1 POP SWAP1 JUMP JUMPDEST PUSH1 0x0 DUP1 REVERT JUMPDEST PUSH1 0x0 DUP1 REVERT JUMPDEST PUSH1 0x0 DUP2 SWAP1 POP SWAP2 SWAP1 POP JUMP JUMPDEST PUSH3 0x163 DUP2 PUSH3 0x14E JUMP JUMPDEST DUP2 EQ PUSH3 0x16F JUMPI PUSH1 0x0 DUP1 REVERT JUMPDEST POP JUMP JUMPDEST PUSH1 0x0 DUP2 MLOAD SWAP1 POP PUSH3 0x183 DUP2 PUSH3 0x158 JUMP JUMPDEST SWAP3 SWAP2 POP POP JUMP JUMPDEST PUSH1 0x0 DUP1 REVERT JUMPDEST PUSH1 0x0 DUP1 REVERT JUMPDEST PUSH1 0x0 PUSH1 0x1F NOT PUSH1 0x1F DUP4 ADD AND SWAP1 POP SWAP2 SWAP1 POP JUMP JUMPDEST PUSH32 0x4E487B7100000000000000000000000000000000000000000000000000000000 PUSH1 0x0 MSTORE PUSH1 0x41 PUSH1 0x4 MSTORE PUSH1 0x24 PUSH1 0x0 REVERT JUMPDEST PUSH3 0x1DE DUP3 PUSH3 0x193 JUMP JUMPDEST DUP2 ADD DUP2 DUP2 LT PUSH8 0xFFFFFFFFFFFFFFFF DUP3 GT OR ISZERO PUSH3 0x200 JUMPI PUSH3 0x1FF PUSH3 0x1A4 JUMP JUMPDEST JUMPDEST DUP1 PUSH1 0x40 MSTORE POP POP POP JUMP JUMPDEST PUSH1 0x0 PUSH3 0x215 PUSH3 0x13A JUMP JUMPDEST SWAP1 POP PUSH3 0x223 DUP3 DUP3 PUSH3 0x1D3 JUMP JUMPDEST SWAP2 SWAP1 POP JUMP JUMPDEST PUSH1 0x0 PUSH8 0xFFFFFFFFFFFFFFFF DUP3 GT ISZERO PUSH3 0x246 JUMPI PUSH3 0x245 PUSH3 0x1A4 JUMP JUMPDEST JUMPDEST PUSH3 0x251 DUP3 PUSH3 0x193 JUMP JUMPDEST SWAP1 POP PUSH1 0x20 DUP2 ADD SWAP1 POP SWAP2 SWAP1 POP JUMP JUMPDEST PUSH1 0x0 JUMPDEST DUP4 DUP2 LT ISZERO PUSH3 0x27E JUMPI DUP1 DUP3 ADD MLOAD DUP2 DUP5 ADD MSTORE PUSH1 0x20 DUP2 ADD SWAP1 POP PUSH3 0x261 JUMP JUMPDEST PUSH1 0x0 DUP5 DUP5 ADD MSTORE POP POP POP POP JUMP JUMPDEST PUSH1 0x0 PUSH3 0x2A1 PUSH3 0x29B DUP5 PUSH3 0x228 JUMP JUMPDEST PUSH3 0x209 JUMP JUMPDEST SWAP1 POP DUP3 DUP2 MSTORE PUSH1 0x20 DUP2 ADD DUP5 DUP5 DUP5 ADD GT ISZERO PUSH3 0x2C0 JUMPI PUSH3 0x2BF PUSH3 0x18E JUMP JUMPDEST JUMPDEST PUSH3 0x2CD DUP5 DUP3 DUP6 PUSH3 0x25E JUMP JUMPDEST POP SWAP4 SWAP3 POP POP POP JUMP JUMPDEST PUSH1 0x0 DUP3 PUSH1 0x1F DUP4 ADD SLT PUSH3 0x2ED JUMPI PUSH3 0x2EC PUSH3 0x189 JUMP JUMPDEST JUMPDEST DUP2 MLOAD PUSH3 0x2FF DUP5 DUP3 PUSH1 0x20 DUP7 ADD PUSH3 0x28A JUMP JUMPDEST SWAP2 POP POP SWAP3 SWAP2 POP POP JUMP JUMPDEST PUSH1 0x0 DUP1 PUSH1 0x0 PUSH1 0x60 DUP5 DUP7 SUB SLT ISZERO PUSH3 0x324 JUMPI PUSH3 0x323 PUSH3 0x144 JUMP JUMPDEST JUMPDEST PUSH1 0x0 PUSH3 0x334 DUP7 DUP3 DUP8 ADD PUSH3 0x172 JUMP JUMPDEST SWAP4 POP POP PUSH1 0x20 DUP5 ADD MLOAD PUSH8 0xFFFFFFFFFFFFFFFF DUP2 GT ISZERO PUSH3 0x358 JUMPI PUSH3 0x357 PUSH3 0x149 JUMP JUMPDEST JUMPDEST PUSH3 0x366 DUP7 DUP3 DUP8 ADD PUSH3 0x2D5 JUMP JUMPDEST SWAP3 POP POP PUSH1 0x40 DUP5 ADD MLOAD PUSH8 0xFFFFFFFFFFFFFFFF DUP2 GT ISZERO PUSH3 0x38A JUMPI PUSH3 0x389 PUSH3 0x149 JUMP JUMPDEST JUMPDEST PUSH3 0x398 DUP7 DUP3 DUP8 ADD PUSH3 0x2D5 JUMP JUMPDEST SWAP2 POP POP SWAP3 POP SWAP3 POP SWAP3 JUMP JUMPDEST PUSH32 0x4E487B7100000000000000000000000000000000000000000000000000000000 PUSH1 0x0 MSTORE PUSH1 0x11 PUSH1 0x4 MSTORE PUSH1 0x24 PUSH1 0x0 REVERT JUMPDEST PUSH1 0x0 DUP2 PUSH1 0x1 SHR SWAP1 POP SWAP2 SWAP1 POP JUMP JUMPDEST PUSH1 0x0 DUP1 DUP3 SWAP2 POP DUP4 SWAP1 POP JUMPDEST PUSH1 0x1 DUP6 GT ISZERO PUSH3 0x430 JUMPI DUP1 DUP7 DIV DUP2 GT ISZERO PUSH3 0x408 JUMPI PUSH3 0x407 PUSH3 0x3A2 JUMP JUMPDEST JUMPDEST PUSH1 0x1 DUP6 AND ISZERO PUSH3 0x418 JUMPI DUP1 DUP3 MUL SWAP2 POP JUMPDEST DUP1 DUP2 MUL SWAP1 POP PUSH3 0x428 DUP6 PUSH3 0x3D1 JUMP JUMPDEST SWAP5 POP PUSH3 0x3E8 JUMP JUMPDEST SWAP5 POP SWAP5 SWAP3 POP POP POP JUMP JUMPDEST PUSH1 0x0 DUP3 PUSH3 0x44B JUMPI PUSH1 0x1 SWAP1 POP PUSH3 0x51E JUMP JUMPDEST DUP2 PUSH3 0x45B JUMPI PUSH1 0x0 SWAP1 POP PUSH3 0x51E JUMP JUMPDEST DUP2 PUSH1 0x1 DUP2 EQ PUSH3 0x474 JUMPI PUSH1 0x2 DUP2 EQ PUSH3 0x47F JUMPI PUSH3 0x4B5 JUMP JUMPDEST PUSH1 0x1 SWAP2 POP POP PUSH3 0x51E JUMP JUMPDEST PUSH1 0xFF DUP5 GT ISZERO PUSH3 0x494 JUMPI PUSH3 0x493 PUSH3 0x3A2 JUMP JUMPDEST JUMPDEST DUP4 PUSH1 0x2 EXP SWAP2 POP DUP5 DUP3 GT ISZERO PUSH3 0x4AE JUMPI PUSH3 0x4AD PUSH3 0x3A2 JUMP JUMPDEST JUMPDEST POP PUSH3 0x51E JUMP JUMPDEST POP PUSH1 0x20 DUP4 LT PUSH2 0x133 DUP4 LT AND PUSH1 0x4E DUP5 LT PUSH1 0xB DUP5 LT AND OR ISZERO PUSH3 0x4EF JUMPI DUP3 DUP3 EXP SWAP1 POP DUP4 DUP2 GT ISZERO PUSH3 0x4E9 JUMPI PUSH3 0x4E8 PUSH3 0x3A2 JUMP JUMPDEST JUMPDEST PUSH3 0x51E JUMP JUMPDEST PUSH3 0x4FE DUP5 DUP5 DUP5 PUSH1 0x1 PUSH3 0x3DE JUMP JUMPDEST SWAP3 POP SWAP1 POP DUP2 DUP5 DIV DUP2 GT ISZERO PUSH3 0x518 JUMPI PUSH3 0x517 PUSH3 0x3A2 JUMP JUMPDEST JUMPDEST DUP2 DUP2 MUL SWAP1 POP JUMPDEST SWAP4 SWAP3 POP POP POP JUMP JUMPDEST PUSH1 0x0 PUSH3 0x532 DUP3 PUSH3 0x14E JUMP JUMPDEST SWAP2 POP PUSH3 0x53F DUP4 PUSH3 0x14E JUMP JUMPDEST SWAP3 POP PUSH3 0x56E PUSH32 0xFFFFFFFFFFFFFFFFFFFFFFFFFFFFFFFFFFFFFFFFFFFFFFFFFFFFFFFFFFFFFFFF DUP5 DUP5 PUSH3 0x439 JUMP JUMPDEST SWAP1 POP SWAP3 SWAP2 POP POP JUMP JUMPDEST PUSH1 0x0 PUSH3 0x583 DUP3 PUSH3 0x14E JUMP JUMPDEST SWAP2 POP PUSH3 0x590 DUP4 PUSH3 0x14E JUMP JUMPDEST SWAP3 POP DUP3 DUP3 MUL PUSH3 0x5A0 DUP2 PUSH3 0x14E JUMP JUMPDEST SWAP2 POP DUP3 DUP3 DIV DUP5 EQ DUP4 ISZERO OR PUSH3 0x5BA JUMPI PUSH3 0x5B9 PUSH3 0x3A2 JUMP JUMPDEST JUMPDEST POP SWAP3 SWAP2 POP POP JUMP JUMPDEST PUSH1 0x0 DUP2 MLOAD SWAP1 POP SWAP2 SWAP1 POP JUMP JUMPDEST PUSH32 0x4E487B7100000000000000000000000000000000000000000000000000000000 PUSH1 0x0 MSTORE PUSH1 0x22 PUSH1 0x4 MSTORE PUSH1 0x24 PUSH1 0x0 REVERT JUMPDEST PUSH1 0x0 PUSH1 0x2 DUP3 DIV SWAP1 POP PUSH1 0x1 DUP3 AND DUP1 PUSH3 0x614 JUMPI PUSH1 0x7F DUP3 AND SWAP2 POP JUMPDEST PUSH1 0x20 DUP3 LT DUP2 SUB PUSH3 0x62A JUMPI PUSH3 0x629 PUSH3 0x5CC JUMP JUMPDEST JUMPDEST POP SWAP2 SWAP1 POP JUMP JUMPDEST PUSH1 0x0 DUP2 SWAP1 POP DUP2 PUSH1 0x0 MSTORE PUSH1 0x20 PUSH1 0x0 KECCAK256 SWAP1 POP SWAP2 SWAP1 POP JUMP JUMPDEST PUSH1 0x0 PUSH1 0x20 PUSH1 0x1F DUP4 ADD DIV SWAP1 POP SWAP2 SWAP1 POP JUMP JUMPDEST PUSH1 0x0 DUP3 DUP3 SHL SWAP1 POP SWAP3 SWAP2 POP POP JUMP JUMPDEST PUSH1 0x0 PUSH1 0x8 DUP4 MUL PUSH3 0x694 PUSH32 0xFFFFFFFFFFFFFFFFFFFFFFFFFFFFFFFFFFFFFFFFFFFFFFFFFFFFFFFFFFFFFFFF DUP3 PUSH3 0x655 JUMP JUMPDEST PUSH3 0x6A0 DUP7 DUP4 PUSH3 0x655 JUMP JUMPDEST SWAP6 POP DUP1 NOT DUP5 AND SWAP4 POP DUP1 DUP7 AND DUP5 OR SWAP3 POP POP POP SWAP4 SWAP3 POP POP POP JUMP JUMPDEST PUSH1 0x0 DUP2 SWAP1 POP SWAP2 SWAP1 POP JUMP JUMPDEST PUSH1 0x0 PUSH3 0x6E3 PUSH3 0x6DD PUSH3 0x6D7 DUP5 PUSH3 0x14E JUMP JUMPDEST PUSH3 0x6B8 JUMP JUMPDEST PUSH3 0x14E JUMP JUMPDEST SWAP1 POP SWAP2 SWAP1 POP JUMP JUMPDEST PUSH1 0x0 DUP2 SWAP1 POP SWAP2 SWAP1 POP JUMP JUMPDEST PUSH3 0x6FF DUP4 PUSH3 0x6C2 JUMP JUMPDEST PUSH3 0x717 PUSH3 0x70E DUP3 PUSH3 0x6EA JUMP JUMPDEST DUP5 DUP5 SLOAD PUSH3 0x662 JUMP JUMPDEST DUP3 SSTORE POP POP POP POP JUMP JUMPDEST PUSH1 0x0 SWAP1 JUMP JUMPDEST PUSH3 0x72E PUSH3 0x71F JUMP JUMPDEST PUSH3 0x73B DUP2 DUP5 DUP5 PUSH3 0x6F4 JUMP JUMPDEST POP POP POP JUMP JUMPDEST JUMPDEST DUP2 DUP2 LT ISZERO PUSH3 0x763 JUMPI PUSH3 0x757 PUSH1 0x0 DUP3 PUSH3 0x724 JUMP JUMPDEST PUSH1 0x1 DUP2 ADD SWAP1 POP PUSH3 0x741 JUMP JUMPDEST POP POP JUMP JUMPDEST PUSH1 0x1F DUP3 GT ISZERO PUSH3 0x7B2 JUMPI PUSH3 0x77C DUP2 PUSH3 0x630 JUMP JUMPDEST PUSH3 0x787 DUP5 PUSH3 0x645 JUMP JUMPDEST DUP2 ADD PUSH1 0x20 DUP6 LT ISZERO PUSH3 0x797 JUMPI DUP2 SWAP1 POP JUMPDEST PUSH3 0x7AF PUSH3 0x7A6 DUP6 PUSH3 0x645 JUMP JUMPDEST DUP4 ADD DUP3 PUSH3 0x740 JUMP JUMPDEST POP POP JUMPDEST POP POP POP JUMP JUMPDEST PUSH1 0x0 DUP3 DUP3 SHR SWAP1 POP SWAP3 SWAP2 POP POP JUMP JUMPDEST PUSH1 0x0 PUSH3 0x7D7 PUSH1 0x0 NOT DUP5 PUSH1 0x8 MUL PUSH3 0x7B7 JUMP JUMPDEST NOT DUP1 DUP4 AND SWAP2 POP POP SWAP3 SWAP2 POP POP JUMP JUMPDEST PUSH1 0x0 PUSH3 0x7F2 DUP4 DUP4 PUSH3 0x7C4 JUMP JUMPDEST SWAP2 POP DUP3 PUSH1 0x2 MUL DUP3 OR SWAP1 POP SWAP3 SWAP2 POP POP JUMP JUMPDEST PUSH3 0x80D DUP3 PUSH3 0x5C1 JUMP JUMPDEST PUSH8 0xFFFFFFFFFFFFFFFF DUP2 GT ISZERO PUSH3 0x829 JUMPI PUSH3 0x828 PUSH3 0x1A4 JUMP JUMPDEST JUMPDEST PUSH3 0x835 DUP3 SLOAD PUSH3 0x5FB JUMP JUMPDEST PUSH3 0x842 DUP3 DUP3 DUP6 PUSH3 0x767 JUMP JUMPDEST PUSH1 0x0 PUSH1 0x20 SWAP1 POP PUSH1 0x1F DUP4 GT PUSH1 0x1 DUP2 EQ PUSH3 0x87A JUMPI PUSH1 0x0 DUP5 ISZERO PUSH3 0x865 JUMPI DUP3 DUP8 ADD MLOAD SWAP1 POP JUMPDEST PUSH3 0x871 DUP6 DUP3 PUSH3 0x7E4 JUMP JUMPDEST DUP7 SSTORE POP PUSH3 0x8E1 JUMP JUMPDEST PUSH1 0x1F NOT DUP5 AND PUSH3 0x88A DUP7 PUSH3 0x630 JUMP JUMPDEST PUSH1 0x0 JUMPDEST DUP3 DUP2 LT ISZERO PUSH3 0x8B4 JUMPI DUP5 DUP10 ADD MLOAD DUP3 SSTORE PUSH1 0x1 DUP3 ADD SWAP2 POP PUSH1 0x20 DUP6 ADD SWAP5 POP PUSH1 0x20 DUP2 ADD SWAP1 POP PUSH3 0x88D JUMP JUMPDEST DUP7 DUP4 LT ISZERO PUSH3 0x8D4 JUMPI DUP5 DUP10 ADD MLOAD PUSH3 0x8D0 PUSH1 0x1F DUP10 AND DUP3 PUSH3 0x7C4 JUMP JUMPDEST DUP4 SSTORE POP JUMPDEST PUSH1 0x1 PUSH1 0x2 DUP9 MUL ADD DUP9 SSTORE POP POP POP JUMPDEST POP POP POP POP POP POP JUMP JUMPDEST PUSH2 0x1563 DUP1 PUSH3 0x8F9 PUSH1 0x0 CODECOPY PUSH1 0x0 RETURN INVALID PUSH1 0x80 PUSH1 0x40 MSTORE CALLVALUE DUP1 ISZERO PUSH2 0x10 JUMPI PUSH1 0x0 DUP1 REVERT JUMPDEST POP PUSH1 0x4 CALLDATASIZE LT PUSH2 0xB4 JUMPI PUSH1 0x0 CALLDATALOAD PUSH1 0xE0 SHR DUP1 PUSH4 0x45B7D5DA GT PUSH2 0x71 JUMPI DUP1 PUSH4 0x45B7D5DA EQ PUSH2 0x1A3 JUMPI DUP1 PUSH4 0x70A08231 EQ PUSH2 0x1D3 JUMPI DUP1 PUSH4 0x95D89B41 EQ PUSH2 0x203 JUMPI DUP1 PUSH4 0xA9059CBB EQ PUSH2 0x221 JUMPI DUP1 PUSH4 0xB2BDFA7B EQ PUSH2 0x251 JUMPI DUP1 PUSH4 0xE5839836 EQ PUSH2 0x26F JUMPI PUSH2 0xB4 JUMP JUMPDEST DUP1 PUSH4 0x6FDDE03 EQ PUSH2 0xB9 JUMPI DUP1 PUSH4 0xAF4187D EQ PUSH2 0xD7 JUMPI DUP1 PUSH4 0x18160DDD EQ PUSH2 0x107 JUMPI DUP1 PUSH4 0x23B872DD EQ PUSH2 0x125 JUMPI DUP1 PUSH4 0x310EC4A7 EQ PUSH2 0x155 JUMPI DUP1 PUSH4 0x313CE567 EQ PUSH2 0x185 JUMPI JUMPDEST PUSH1 0x0 DUP1 REVERT JUMPDEST PUSH2 0xC1 PUSH2 0x29F JUMP JUMPDEST PUSH1 0x40 MLOAD PUSH2 0xCE SWAP2 SWAP1 PUSH2 0x1042 JUMP JUMPDEST PUSH1 0x40 MLOAD DUP1 SWAP2 SUB SWAP1 RETURN JUMPDEST PUSH2 0xF1 PUSH1 0x4 DUP1 CALLDATASIZE SUB DUP2 ADD SWAP1 PUSH2 0xEC SWAP2 SWAP1 PUSH2 0x10C7 JUMP JUMPDEST PUSH2 0x32D JUMP JUMPDEST PUSH1 0x40 MLOAD PUSH2 0xFE SWAP2 SWAP1 PUSH2 0x1120 JUMP JUMPDEST PUSH1 0x40 MLOAD DUP1 SWAP2 SUB SWAP1 RETURN JUMPDEST PUSH2 0x10F PUSH2 0x3B4 JUMP JUMPDEST PUSH1 0x40 MLOAD PUSH2 0x11C SWAP2 SWAP1 PUSH2 0x1120 JUMP JUMPDEST PUSH1 0x40 MLOAD DUP1 SWAP2 SUB SWAP1 RETURN JUMPDEST PUSH2 0x13F PUSH1 0x4 DUP1 CALLDATASIZE SUB DUP2 ADD SWAP1 PUSH2 0x13A SWAP2 SWAP1 PUSH2 0x1167 JUMP JUMPDEST PUSH2 0x3BA JUMP JUMPDEST PUSH1 0x40 MLOAD PUSH2 0x14C SWAP2 SWAP1 PUSH2 0x11D5 JUMP JUMPDEST PUSH1 0x40 MLOAD DUP1 SWAP2 SUB SWAP1 RETURN JUMPDEST PUSH2 0x16F PUSH1 0x4 DUP1 CALLDATASIZE SUB DUP2 ADD SWAP1 PUSH2 0x16A SWAP2 SWAP1 PUSH2 0x11F0 JUMP JUMPDEST PUSH2 0x709 JUMP JUMPDEST PUSH1 0x40 MLOAD PUSH2 0x17C SWAP2 SWAP1 PUSH2 0x11D5 JUMP JUMPDEST PUSH1 0x40 MLOAD DUP1 SWAP2 SUB SWAP1 RETURN JUMPDEST PUSH2 0x18D PUSH2 0x846 JUMP JUMPDEST PUSH1 0x40 MLOAD PUSH2 0x19A SWAP2 SWAP1 PUSH2 0x124C JUMP JUMPDEST PUSH1 0x40 MLOAD DUP1 SWAP2 SUB SWAP1 RETURN JUMPDEST PUSH2 0x1BD PUSH1 0x4 DUP1 CALLDATASIZE SUB DUP2 ADD SWAP1 PUSH2 0x1B8 SWAP2 SWAP1 PUSH2 0x1293 JUMP JUMPDEST PUSH2 0x859 JUMP JUMPDEST PUSH1 0x40 MLOAD PUSH2 0x1CA SWAP2 SWAP1 PUSH2 0x11D5 JUMP JUMPDEST PUSH1 0x40 MLOAD DUP1 SWAP2 SUB SWAP1 RETURN JUMPDEST PUSH2 0x1ED PUSH1 0x4 DUP1 CALLDATASIZE SUB DUP2 ADD SWAP1 PUSH2 0x1E8 SWAP2 SWAP1 PUSH2 0x12D3 JUMP JUMPDEST PUSH2 0xADF JUMP JUMPDEST PUSH1 0x40 MLOAD PUSH2 0x1FA SWAP2 SWAP1 PUSH2 0x1120 JUMP JUMPDEST PUSH1 0x40 MLOAD DUP1 SWAP2 SUB SWAP1 RETURN JUMPDEST PUSH2 0x20B PUSH2 0xAF7 JUMP JUMPDEST PUSH1 0x40 MLOAD PUSH2 0x218 SWAP2 SWAP1 PUSH2 0x1042 JUMP JUMPDEST PUSH1 0x40 MLOAD DUP1 SWAP2 SUB SWAP1 RETURN JUMPDEST PUSH2 0x23B PUSH1 0x4 DUP1 CALLDATASIZE SUB DUP2 ADD SWAP1 PUSH2 0x236 SWAP2 SWAP1 PUSH2 0x11F0 JUMP JUMPDEST PUSH2 0xB85 JUMP JUMPDEST PUSH1 0x40 MLOAD PUSH2 0x248 SWAP2 SWAP1 PUSH2 0x11D5 JUMP JUMPDEST PUSH1 0x40 MLOAD DUP1 SWAP2 SUB SWAP1 RETURN JUMPDEST PUSH2 0x259 PUSH2 0xEE0 JUMP JUMPDEST PUSH1 0x40 MLOAD PUSH2 0x266 SWAP2 SWAP1 PUSH2 0x130F JUMP JUMPDEST PUSH1 0x40 MLOAD DUP1 SWAP2 SUB SWAP1 RETURN JUMPDEST PUSH2 0x289 PUSH1 0x4 DUP1 CALLDATASIZE SUB DUP2 ADD SWAP1 PUSH2 0x284 SWAP2 SWAP1 PUSH2 0x12D3 JUMP JUMPDEST PUSH2 0xF04 JUMP JUMPDEST PUSH1 0x40 MLOAD PUSH2 0x296 SWAP2 SWAP1 PUSH2 0x11D5 JUMP JUMPDEST PUSH1 0x40 MLOAD DUP1 SWAP2 SUB SWAP1 RETURN JUMPDEST PUSH1 0x1 DUP1 SLOAD PUSH2 0x2AC SWAP1 PUSH2 0x1359 JUMP JUMPDEST DUP1 PUSH1 0x1F ADD PUSH1 0x20 DUP1 SWAP2 DIV MUL PUSH1 0x20 ADD PUSH1 0x40 MLOAD SWAP1 DUP2 ADD PUSH1 0x40 MSTORE DUP1 SWAP3 SWAP2 SWAP1 DUP2 DUP2 MSTORE PUSH1 0x20 ADD DUP3 DUP1 SLOAD PUSH2 0x2D8 SWAP1 PUSH2 0x1359 JUMP JUMPDEST DUP1 ISZERO PUSH2 0x325 JUMPI DUP1 PUSH1 0x1F LT PUSH2 0x2FA JUMPI PUSH2 0x100 DUP1 DUP4 SLOAD DIV MUL DUP4 MSTORE SWAP2 PUSH1 0x20 ADD SWAP2 PUSH2 0x325 JUMP JUMPDEST DUP3 ADD SWAP2 SWAP1 PUSH1 0x0 MSTORE PUSH1 0x20 PUSH1 0x0 KECCAK256 SWAP1 JUMPDEST DUP2 SLOAD DUP2 MSTORE SWAP1 PUSH1 0x1 ADD SWAP1 PUSH1 0x20 ADD DUP1 DUP4 GT PUSH2 0x308 JUMPI DUP3 SWAP1 SUB PUSH1 0x1F AND DUP3 ADD SWAP2 JUMPDEST POP POP POP POP POP DUP2 JUMP JUMPDEST PUSH1 0x0 PUSH1 0x6 PUSH1 0x0 DUP5 PUSH20 0xFFFFFFFFFFFFFFFFFFFFFFFFFFFFFFFFFFFFFFFF AND PUSH20 0xFFFFFFFFFFFFFFFFFFFFFFFFFFFFFFFFFFFFFFFF AND DUP2 MSTORE PUSH1 0x20 ADD SWAP1 DUP2 MSTORE PUSH1 0x20 ADD PUSH1 0x0 KECCAK256 PUSH1 0x0 DUP4 PUSH20 0xFFFFFFFFFFFFFFFFFFFFFFFFFFFFFFFFFFFFFFFF AND PUSH20 0xFFFFFFFFFFFFFFFFFFFFFFFFFFFFFFFFFFFFFFFF AND DUP2 MSTORE PUSH1 0x20 ADD SWAP1 DUP2 MSTORE PUSH1 0x20 ADD PUSH1 0x0 KECCAK256 SLOAD SWAP1 POP SWAP3 SWAP2 POP POP JUMP JUMPDEST PUSH1 0x4 SLOAD DUP2 JUMP JUMPDEST PUSH1 0x0 DUP1 PUSH20 0xFFFFFFFFFFFFFFFFFFFFFFFFFFFFFFFFFFFFFFFF AND DUP4 PUSH20 0xFFFFFFFFFFFFFFFFFFFFFFFFFFFFFFFFFFFFFFFF AND SUB PUSH2 0x3F4 JUMPI PUSH1 0x0 DUP1 REVERT JUMPDEST PUSH2 0x3FD CALLER PUSH2 0xF04 JUMP JUMPDEST ISZERO PUSH2 0x407 JUMPI PUSH1 0x0 DUP1 REVERT JUMPDEST PUSH2 0x410 DUP4 PUSH2 0xF04 JUMP JUMPDEST ISZERO PUSH2 0x41A JUMPI PUSH1 0x0 DUP1 REVERT JUMPDEST DUP2 PUSH1 0x5 PUSH1 0x0 DUP7 PUSH20 0xFFFFFFFFFFFFFFFFFFFFFFFFFFFFFFFFFFFFFFFF AND PUSH20 0xFFFFFFFFFFFFFFFFFFFFFFFFFFFFFFFFFFFFFFFF AND DUP2 MSTORE PUSH1 0x20 ADD SWAP1 DUP2 MSTORE PUSH1 0x20 ADD PUSH1 0x0 KECCAK256 SLOAD LT ISZERO PUSH2 0x466 JUMPI PUSH1 0x0 DUP1 REVERT JUMPDEST DUP2 PUSH1 0x6 PUSH1 0x0 DUP7 PUSH20 0xFFFFFFFFFFFFFFFFFFFFFFFFFFFFFFFFFFFFFFFF AND PUSH20 0xFFFFFFFFFFFFFFFFFFFFFFFFFFFFFFFFFFFFFFFF AND DUP2 MSTORE PUSH1 0x20 ADD SWAP1 DUP2 MSTORE PUSH1 0x20 ADD PUSH1 0x0 KECCAK256 PUSH1 0x0 CALLER PUSH20 0xFFFFFFFFFFFFFFFFFFFFFFFFFFFFFFFFFFFFFFFF AND PUSH20 0xFFFFFFFFFFFFFFFFFFFFFFFFFFFFFFFFFFFFFFFF AND DUP2 MSTORE PUSH1 0x20 ADD SWAP1 DUP2 MSTORE PUSH1 0x20 ADD PUSH1 0x0 KECCAK256 SLOAD LT ISZERO PUSH2 0x4EF JUMPI PUSH1 0x0 DUP1 REVERT JUMPDEST PUSH1 0x5 PUSH1 0x0 DUP5 PUSH20 0xFFFFFFFFFFFFFFFFFFFFFFFFFFFFFFFFFFFFFFFF AND PUSH20 0xFFFFFFFFFFFFFFFFFFFFFFFFFFFFFFFFFFFFFFFF AND DUP2 MSTORE PUSH1 0x20 ADD SWAP1 DUP2 MSTORE PUSH1 0x20 ADD PUSH1 0x0 KECCAK256 SLOAD DUP3 PUSH1 0x5 PUSH1 0x0 DUP7 PUSH20 0xFFFFFFFFFFFFFFFFFFFFFFFFFFFFFFFFFFFFFFFF AND PUSH20 0xFFFFFFFFFFFFFFFFFFFFFFFFFFFFFFFFFFFFFFFF AND DUP2 MSTORE PUSH1 0x20 ADD SWAP1 DUP2 MSTORE PUSH1 0x20 ADD PUSH1 0x0 KECCAK256 SLOAD PUSH2 0x57A SWAP2 SWAP1 PUSH2 0x13B9 JUMP JUMPDEST GT PUSH2 0x584 JUMPI PUSH1 0x0 DUP1 REVERT JUMPDEST DUP2 PUSH1 0x5 PUSH1 0x0 DUP7 PUSH20 0xFFFFFFFFFFFFFFFFFFFFFFFFFFFFFFFFFFFFFFFF AND PUSH20 0xFFFFFFFFFFFFFFFFFFFFFFFFFFFFFFFFFFFFFFFF AND DUP2 MSTORE PUSH1 0x20 ADD SWAP1 DUP2 MSTORE PUSH1 0x20 ADD PUSH1 0x0 KECCAK256 PUSH1 0x0 DUP3 DUP3 SLOAD PUSH2 0x5D3 SWAP2 SWAP1 PUSH2 0x13ED JUMP JUMPDEST SWAP3 POP POP DUP2 SWAP1 SSTORE POP DUP2 PUSH1 0x5 PUSH1 0x0 DUP6 PUSH20 0xFFFFFFFFFFFFFFFFFFFFFFFFFFFFFFFFFFFFFFFF AND PUSH20 0xFFFFFFFFFFFFFFFFFFFFFFFFFFFFFFFFFFFFFFFF AND DUP2 MSTORE PUSH1 0x20 ADD SWAP1 DUP2 MSTORE PUSH1 0x20 ADD PUSH1 0x0 KECCAK256 PUSH1 0x0 DUP3 DUP3 SLOAD PUSH2 0x629 SWAP2 SWAP1 PUSH2 0x13B9 JUMP JUMPDEST SWAP3 POP POP DUP2 SWAP1 SSTORE POP DUP2 PUSH1 0x6 PUSH1 0x0 DUP7 PUSH20 0xFFFFFFFFFFFFFFFFFFFFFFFFFFFFFFFFFFFFFFFF AND PUSH20 0xFFFFFFFFFFFFFFFFFFFFFFFFFFFFFFFFFFFFFFFF AND DUP2 MSTORE PUSH1 0x20 ADD SWAP1 DUP2 MSTORE PUSH1 0x20 ADD PUSH1 0x0 KECCAK256 PUSH1 0x0 CALLER PUSH20 0xFFFFFFFFFFFFFFFFFFFFFFFFFFFFFFFFFFFFFFFF AND PUSH20 0xFFFFFFFFFFFFFFFFFFFFFFFFFFFFFFFFFFFFFFFF AND DUP2 MSTORE PUSH1 0x20 ADD SWAP1 DUP2 MSTORE PUSH1 0x20 ADD PUSH1 0x0 KECCAK256 PUSH1 0x0 DUP3 DUP3 SLOAD PUSH2 0x6BC SWAP2 SWAP1 PUSH2 0x13ED JUMP JUMPDEST SWAP3 POP POP DUP2 SWAP1 SSTORE POP PUSH32 0xDDF252AD1BE2C89B69C2B068FC378DAA952BA7F163C4A11628F55A4DF523B3EF DUP5 DUP5 DUP5 PUSH1 0x40 MLOAD PUSH2 0x6F6 SWAP4 SWAP3 SWAP2 SWAP1 PUSH2 0x1421 JUMP JUMPDEST PUSH1 0x40 MLOAD DUP1 SWAP2 SUB SWAP1 LOG1 PUSH1 0x1 SWAP1 POP SWAP4 SWAP3 POP POP POP JUMP JUMPDEST PUSH1 0x0 DUP1 PUSH20 0xFFFFFFFFFFFFFFFFFFFFFFFFFFFFFFFFFFFFFFFF AND DUP4 PUSH20 0xFFFFFFFFFFFFFFFFFFFFFFFFFFFFFFFFFFFFFFFF AND SUB PUSH2 0x743 JUMPI PUSH1 0x0 DUP1 REVERT JUMPDEST PUSH2 0x74C DUP4 PUSH2 0xF04 JUMP JUMPDEST ISZERO PUSH2 0x756 JUMPI PUSH1 0x0 DUP1 REVERT JUMPDEST DUP2 PUSH1 0x7 PUSH1 0x0 CALLER PUSH20 0xFFFFFFFFFFFFFFFFFFFFFFFFFFFFFFFFFFFFFFFF AND PUSH20 0xFFFFFFFFFFFFFFFFFFFFFFFFFFFFFFFFFFFFFFFF AND DUP2 MSTORE PUSH1 0x20 ADD SWAP1 DUP2 MSTORE PUSH1 0x20 ADD PUSH1 0x0 KECCAK256 PUSH1 0x0 DUP6 PUSH20 0xFFFFFFFFFFFFFFFFFFFFFFFFFFFFFFFFFFFFFFFF AND PUSH20 0xFFFFFFFFFFFFFFFFFFFFFFFFFFFFFFFFFFFFFFFF AND DUP2 MSTORE PUSH1 0x20 ADD SWAP1 DUP2 MSTORE PUSH1 0x20 ADD PUSH1 0x0 KECCAK256 DUP2 SWAP1 SSTORE POP DUP3 PUSH20 0xFFFFFFFFFFFFFFFFFFFFFFFFFFFFFFFFFFFFFFFF AND CALLER PUSH20 0xFFFFFFFFFFFFFFFFFFFFFFFFFFFFFFFFFFFFFFFF AND PUSH32 0x8C5BE1E5EBEC7D5BD14F71427D1E84F3DD0314C0F7B2291E5B200AC8C7C3B925 DUP5 PUSH1 0x40 MLOAD PUSH2 0x834 SWAP2 SWAP1 PUSH2 0x1120 JUMP JUMPDEST PUSH1 0x40 MLOAD DUP1 SWAP2 SUB SWAP1 LOG3 PUSH1 0x1 SWAP1 POP SWAP3 SWAP2 POP POP JUMP JUMPDEST PUSH1 0x3 PUSH1 0x0 SWAP1 SLOAD SWAP1 PUSH2 0x100 EXP SWAP1 DIV PUSH1 0xFF AND DUP2 JUMP JUMPDEST PUSH1 0x0 DUP1 PUSH1 0x0 SWAP1 SLOAD SWAP1 PUSH2 0x100 EXP SWAP1 DIV PUSH20 0xFFFFFFFFFFFFFFFFFFFFFFFFFFFFFFFFFFFFFFFF AND PUSH20 0xFFFFFFFFFFFFFFFFFFFFFFFFFFFFFFFFFFFFFFFF AND CALLER PUSH20 0xFFFFFFFFFFFFFFFFFFFFFFFFFFFFFFFFFFFFFFFF AND EQ PUSH2 0x8B4 JUMPI PUSH1 0x0 DUP1 REVERT JUMPDEST PUSH1 0x0 ISZERO ISZERO DUP3 ISZERO ISZERO EQ DUP1 ISZERO PUSH2 0x8CD JUMPI POP PUSH2 0x8CC DUP4 PUSH2 0xF04 JUMP JUMPDEST JUMPDEST ISZERO PUSH2 0xA64 JUMPI PUSH1 0x0 JUMPDEST PUSH1 0x8 DUP1 SLOAD SWAP1 POP DUP2 LT ISZERO PUSH2 0xA5E JUMPI DUP4 PUSH20 0xFFFFFFFFFFFFFFFFFFFFFFFFFFFFFFFFFFFFFFFF AND PUSH1 0x8 DUP3 DUP2 SLOAD DUP2 LT PUSH2 0x90D JUMPI PUSH2 0x90C PUSH2 0x1458 JUMP JUMPDEST JUMPDEST SWAP1 PUSH1 0x0 MSTORE PUSH1 0x20 PUSH1 0x0 KECCAK256 ADD PUSH1 0x0 SWAP1 SLOAD SWAP1 PUSH2 0x100 EXP SWAP1 DIV PUSH20 0xFFFFFFFFFFFFFFFFFFFFFFFFFFFFFFFFFFFFFFFF AND PUSH20 0xFFFFFFFFFFFFFFFFFFFFFFFFFFFFFFFFFFFFFFFF AND SUB PUSH2 0xA4B JUMPI PUSH1 0x8 PUSH1 0x1 PUSH1 0x8 DUP1 SLOAD SWAP1 POP PUSH2 0x967 SWAP2 SWAP1 PUSH2 0x13ED JUMP JUMPDEST DUP2 SLOAD DUP2 LT PUSH2 0x978 JUMPI PUSH2 0x977 PUSH2 0x1458 JUMP JUMPDEST JUMPDEST SWAP1 PUSH1 0x0 MSTORE PUSH1 0x20 PUSH1 0x0 KECCAK256 ADD PUSH1 0x0 SWAP1 SLOAD SWAP1 PUSH2 0x100 EXP SWAP1 DIV PUSH20 0xFFFFFFFFFFFFFFFFFFFFFFFFFFFFFFFFFFFFFFFF AND PUSH1 0x8 DUP3 DUP2 SLOAD DUP2 LT PUSH2 0x9B7 JUMPI PUSH2 0x9B6 PUSH2 0x1458 JUMP JUMPDEST JUMPDEST SWAP1 PUSH1 0x0 MSTORE PUSH1 0x20 PUSH1 0x0 KECCAK256 ADD PUSH1 0x0 PUSH2 0x100 EXP DUP2 SLOAD DUP2 PUSH20 0xFFFFFFFFFFFFFFFFFFFFFFFFFFFFFFFFFFFFFFFF MUL NOT AND SWAP1 DUP4 PUSH20 0xFFFFFFFFFFFFFFFFFFFFFFFFFFFFFFFFFFFFFFFF AND MUL OR SWAP1 SSTORE POP PUSH1 0x8 DUP1 SLOAD DUP1 PUSH2 0xA11 JUMPI PUSH2 0xA10 PUSH2 0x1487 JUMP JUMPDEST JUMPDEST PUSH1 0x1 SWAP1 SUB DUP2 DUP2 SWAP1 PUSH1 0x0 MSTORE PUSH1 0x20 PUSH1 0x0 KECCAK256 ADD PUSH1 0x0 PUSH2 0x100 EXP DUP2 SLOAD SWAP1 PUSH20 0xFFFFFFFFFFFFFFFFFFFFFFFFFFFFFFFFFFFFFFFF MUL NOT AND SWAP1 SSTORE SWAP1 SSTORE PUSH2 0xA5E JUMP JUMPDEST DUP1 DUP1 PUSH2 0xA56 SWAP1 PUSH2 0x14B6 JUMP JUMPDEST SWAP2 POP POP PUSH2 0x8D5 JUMP JUMPDEST POP PUSH2 0xAD5 JUMP JUMPDEST PUSH1 0x1 ISZERO ISZERO DUP3 ISZERO ISZERO SUB PUSH2 0xAD4 JUMPI PUSH1 0x8 DUP4 SWAP1 DUP1 PUSH1 0x1 DUP2 SLOAD ADD DUP1 DUP3 SSTORE DUP1 SWAP2 POP POP PUSH1 0x1 SWAP1 SUB SWAP1 PUSH1 0x0 MSTORE PUSH1 0x20 PUSH1 0x0 KECCAK256 ADD PUSH1 0x0 SWAP1 SWAP2 SWAP1 SWAP2 SWAP1 SWAP2 PUSH2 0x100 EXP DUP2 SLOAD DUP2 PUSH20 0xFFFFFFFFFFFFFFFFFFFFFFFFFFFFFFFFFFFFFFFF MUL NOT AND SWAP1 DUP4 PUSH20 0xFFFFFFFFFFFFFFFFFFFFFFFFFFFFFFFFFFFFFFFF AND MUL OR SWAP1 SSTORE POP JUMPDEST JUMPDEST PUSH1 0x1 SWAP1 POP SWAP3 SWAP2 POP POP JUMP JUMPDEST PUSH1 0x5 PUSH1 0x20 MSTORE DUP1 PUSH1 0x0 MSTORE PUSH1 0x40 PUSH1 0x0 KECCAK256 PUSH1 0x0 SWAP2 POP SWAP1 POP SLOAD DUP2 JUMP JUMPDEST PUSH1 0x2 DUP1 SLOAD PUSH2 0xB04 SWAP1 PUSH2 0x1359 JUMP JUMPDEST DUP1 PUSH1 0x1F ADD PUSH1 0x20 DUP1 SWAP2 DIV MUL PUSH1 0x20 ADD PUSH1 0x40 MLOAD SWAP1 DUP2 ADD PUSH1 0x40 MSTORE DUP1 SWAP3 SWAP2 SWAP1 DUP2 DUP2 MSTORE PUSH1 0x20 ADD DUP3 DUP1 SLOAD PUSH2 0xB30 SWAP1 PUSH2 0x1359 JUMP JUMPDEST DUP1 ISZERO PUSH2 0xB7D JUMPI DUP1 PUSH1 0x1F LT PUSH2 0xB52 JUMPI PUSH2 0x100 DUP1 DUP4 SLOAD DIV MUL DUP4 MSTORE SWAP2 PUSH1 0x20 ADD SWAP2 PUSH2 0xB7D JUMP JUMPDEST DUP3 ADD SWAP2 SWAP1 PUSH1 0x0 MSTORE PUSH1 0x20 PUSH1 0x0 KECCAK256 SWAP1 JUMPDEST DUP2 SLOAD DUP2 MSTORE SWAP1 PUSH1 0x1 ADD SWAP1 PUSH1 0x20 ADD DUP1 DUP4 GT PUSH2 0xB60 JUMPI DUP3 SWAP1 SUB PUSH1 0x1F AND DUP3 ADD SWAP2 JUMPDEST POP POP POP POP POP DUP2 JUMP JUMPDEST PUSH1 0x0 DUP1 PUSH20 0xFFFFFFFFFFFFFFFFFFFFFFFFFFFFFFFFFFFFFFFF AND DUP4 PUSH20 0xFFFFFFFFFFFFFFFFFFFFFFFFFFFFFFFFFFFFFFFF AND SUB PUSH2 0xBBF JUMPI PUSH1 0x0 DUP1 REVERT JUMPDEST PUSH2 0xBC8 CALLER PUSH2 0xF04 JUMP JUMPDEST ISZERO PUSH2 0xBD2 JUMPI PUSH1 0x0 DUP1 REVERT JUMPDEST PUSH2 0xBDB DUP4 PUSH2 0xF04 JUMP JUMPDEST ISZERO PUSH2 0xBE5 JUMPI PUSH1 0x0 DUP1 REVERT JUMPDEST DUP2 PUSH1 0x5 PUSH1 0x0 CALLER PUSH20 0xFFFFFFFFFFFFFFFFFFFFFFFFFFFFFFFFFFFFFFFF AND PUSH20 0xFFFFFFFFFFFFFFFFFFFFFFFFFFFFFFFFFFFFFFFF AND DUP2 MSTORE PUSH1 0x20 ADD SWAP1 DUP2 MSTORE PUSH1 0x20 ADD PUSH1 0x0 KECCAK256 SLOAD LT ISZERO PUSH2 0xC31 JUMPI PUSH1 0x0 DUP1 REVERT JUMPDEST PUSH1 0x5 PUSH1 0x0 DUP5 PUSH20 0xFFFFFFFFFFFFFFFFFFFFFFFFFFFFFFFFFFFFFFFF AND PUSH20 0xFFFFFFFFFFFFFFFFFFFFFFFFFFFFFFFFFFFFFFFF AND DUP2 MSTORE PUSH1 0x20 ADD SWAP1 DUP2 MSTORE PUSH1 0x20 ADD PUSH1 0x0 KECCAK256 SLOAD DUP3 PUSH1 0x5 PUSH1 0x0 DUP7 PUSH20 0xFFFFFFFFFFFFFFFFFFFFFFFFFFFFFFFFFFFFFFFF AND PUSH20 0xFFFFFFFFFFFFFFFFFFFFFFFFFFFFFFFFFFFFFFFF AND DUP2 MSTORE PUSH1 0x20 ADD SWAP1 DUP2 MSTORE PUSH1 0x20 ADD PUSH1 0x0 KECCAK256 SLOAD PUSH2 0xCBC SWAP2 SWAP1 PUSH2 0x13B9 JUMP JUMPDEST LT ISZERO PUSH2 0xCC7 JUMPI PUSH1 0x0 DUP1 REVERT JUMPDEST PUSH1 0x0 PUSH1 0x5 PUSH1 0x0 DUP6 PUSH20 0xFFFFFFFFFFFFFFFFFFFFFFFFFFFFFFFFFFFFFFFF AND PUSH20 0xFFFFFFFFFFFFFFFFFFFFFFFFFFFFFFFFFFFFFFFF AND DUP2 MSTORE PUSH1 0x20 ADD SWAP1 DUP2 MSTORE PUSH1 0x20 ADD PUSH1 0x0 KECCAK256 SLOAD PUSH1 0x5 PUSH1 0x0 CALLER PUSH20 0xFFFFFFFFFFFFFFFFFFFFFFFFFFFFFFFFFFFFFFFF AND PUSH20 0xFFFFFFFFFFFFFFFFFFFFFFFFFFFFFFFFFFFFFFFF AND DUP2 MSTORE PUSH1 0x20 ADD SWAP1 DUP2 MSTORE PUSH1 0x20 ADD PUSH1 0x0 KECCAK256 SLOAD PUSH2 0xD53 SWAP2 SWAP1 PUSH2 0x13B9 JUMP JUMPDEST SWAP1 POP DUP3 PUSH1 0x5 PUSH1 0x0 CALLER PUSH20 0xFFFFFFFFFFFFFFFFFFFFFFFFFFFFFFFFFFFFFFFF AND PUSH20 0xFFFFFFFFFFFFFFFFFFFFFFFFFFFFFFFFFFFFFFFF AND DUP2 MSTORE PUSH1 0x20 ADD SWAP1 DUP2 MSTORE PUSH1 0x20 ADD PUSH1 0x0 KECCAK256 PUSH1 0x0 DUP3 DUP3 SLOAD PUSH2 0xDA4 SWAP2 SWAP1 PUSH2 0x13ED JUMP JUMPDEST SWAP3 POP POP DUP2 SWAP1 SSTORE POP DUP3 PUSH1 0x5 PUSH1 0x0 DUP7 PUSH20 0xFFFFFFFFFFFFFFFFFFFFFFFFFFFFFFFFFFFFFFFF AND PUSH20 0xFFFFFFFFFFFFFFFFFFFFFFFFFFFFFFFFFFFFFFFF AND DUP2 MSTORE PUSH1 0x20 ADD SWAP1 DUP2 MSTORE PUSH1 0x20 ADD PUSH1 0x0 KECCAK256 PUSH1 0x0 DUP3 DUP3 SLOAD PUSH2 0xDFA SWAP2 SWAP1 PUSH2 0x13B9 JUMP JUMPDEST SWAP3 POP POP DUP2 SWAP1 SSTORE POP DUP1 PUSH1 0x5 PUSH1 0x0 DUP7 PUSH20 0xFFFFFFFFFFFFFFFFFFFFFFFFFFFFFFFFFFFFFFFF AND PUSH20 0xFFFFFFFFFFFFFFFFFFFFFFFFFFFFFFFFFFFFFFFF AND DUP2 MSTORE PUSH1 0x20 ADD SWAP1 DUP2 MSTORE PUSH1 0x20 ADD PUSH1 0x0 KECCAK256 SLOAD PUSH1 0x5 PUSH1 0x0 CALLER PUSH20 0xFFFFFFFFFFFFFFFFFFFFFFFFFFFFFFFFFFFFFFFF AND PUSH20 0xFFFFFFFFFFFFFFFFFFFFFFFFFFFFFFFFFFFFFFFF AND DUP2 MSTORE PUSH1 0x20 ADD SWAP1 DUP2 MSTORE PUSH1 0x20 ADD PUSH1 0x0 KECCAK256 SLOAD PUSH2 0xE8C SWAP2 SWAP1 PUSH2 0x13B9 JUMP JUMPDEST EQ PUSH2 0xE9A JUMPI PUSH2 0xE99 PUSH2 0x14FE JUMP JUMPDEST JUMPDEST PUSH32 0xDDF252AD1BE2C89B69C2B068FC378DAA952BA7F163C4A11628F55A4DF523B3EF CALLER DUP6 DUP6 PUSH1 0x40 MLOAD PUSH2 0xECD SWAP4 SWAP3 SWAP2 SWAP1 PUSH2 0x1421 JUMP JUMPDEST PUSH1 0x40 MLOAD DUP1 SWAP2 SUB SWAP1 LOG1 PUSH1 0x1 SWAP2 POP POP SWAP3 SWAP2 POP POP JUMP JUMPDEST PUSH1 0x0 DUP1 SLOAD SWAP1 PUSH2 0x100 EXP SWAP1 DIV PUSH20 0xFFFFFFFFFFFFFFFFFFFFFFFFFFFFFFFFFFFFFFFF AND DUP2 JUMP JUMPDEST PUSH1 0x0 DUP1 PUSH1 0x0 SWAP1 POP JUMPDEST PUSH1 0x8 DUP1 SLOAD SWAP1 POP DUP2 LT ISZERO PUSH2 0xFA7 JUMPI DUP3 PUSH20 0xFFFFFFFFFFFFFFFFFFFFFFFFFFFFFFFFFFFFFFFF AND PUSH1 0x8 DUP3 DUP2 SLOAD DUP2 LT PUSH2 0xF44 JUMPI PUSH2 0xF43 PUSH2 0x1458 JUMP JUMPDEST JUMPDEST SWAP1 PUSH1 0x0 MSTORE PUSH1 0x20 PUSH1 0x0 KECCAK256 ADD PUSH1 0x0 SWAP1 SLOAD SWAP1 PUSH2 0x100 EXP SWAP1 DIV PUSH20 0xFFFFFFFFFFFFFFFFFFFFFFFFFFFFFFFFFFFFFFFF AND PUSH20 0xFFFFFFFFFFFFFFFFFFFFFFFFFFFFFFFFFFFFFFFF AND SUB PUSH2 0xF94 JUMPI PUSH1 0x1 SWAP2 POP POP PUSH2 0xFAD JUMP JUMPDEST DUP1 DUP1 PUSH2 0xF9F SWAP1 PUSH2 0x14B6 JUMP JUMPDEST SWAP2 POP POP PUSH2 0xF0C JUMP JUMPDEST POP PUSH1 0x0 SWAP1 POP JUMPDEST SWAP2 SWAP1 POP JUMP JUMPDEST PUSH1 0x0 DUP2 MLOAD SWAP1 POP SWAP2 SWAP1 POP JUMP JUMPDEST PUSH1 0x0 DUP3 DUP3 MSTORE PUSH1 0x20 DUP3 ADD SWAP1 POP SWAP3 SWAP2 POP POP JUMP JUMPDEST PUSH1 0x0 JUMPDEST DUP4 DUP2 LT ISZERO PUSH2 0xFEC JUMPI DUP1 DUP3 ADD MLOAD DUP2 DUP5 ADD MSTORE PUSH1 0x20 DUP2 ADD SWAP1 POP PUSH2 0xFD1 JUMP JUMPDEST PUSH1 0x0 DUP5 DUP5 ADD MSTORE POP POP POP POP JUMP JUMPDEST PUSH1 0x0 PUSH1 0x1F NOT PUSH1 0x1F DUP4 ADD AND SWAP1 POP SWAP2 SWAP1 POP JUMP JUMPDEST PUSH1 0x0 PUSH2 0x1014 DUP3 PUSH2 0xFB2 JUMP JUMPDEST PUSH2 0x101E DUP2 DUP6 PUSH2 0xFBD JUMP JUMPDEST SWAP4 POP PUSH2 0x102E DUP2 DUP6 PUSH1 0x20 DUP7 ADD PUSH2 0xFCE JUMP JUMPDEST PUSH2 0x1037 DUP2 PUSH2 0xFF8 JUMP JUMPDEST DUP5 ADD SWAP2 POP POP SWAP3 SWAP2 POP POP JUMP JUMPDEST PUSH1 0x0 PUSH1 0x20 DUP3 ADD SWAP1 POP DUP2 DUP2 SUB PUSH1 0x0 DUP4 ADD MSTORE PUSH2 0x105C DUP2 DUP5 PUSH2 0x1009 JUMP JUMPDEST SWAP1 POP SWAP3 SWAP2 POP POP JUMP JUMPDEST PUSH1 0x0 DUP1 REVERT JUMPDEST PUSH1 0x0 PUSH20 0xFFFFFFFFFFFFFFFFFFFFFFFFFFFFFFFFFFFFFFFF DUP3 AND SWAP1 POP SWAP2 SWAP1 POP JUMP JUMPDEST PUSH1 0x0 PUSH2 0x1094 DUP3 PUSH2 0x1069 JUMP JUMPDEST SWAP1 POP SWAP2 SWAP1 POP JUMP JUMPDEST PUSH2 0x10A4 DUP2 PUSH2 0x1089 JUMP JUMPDEST DUP2 EQ PUSH2 0x10AF JUMPI PUSH1 0x0 DUP1 REVERT JUMPDEST POP JUMP JUMPDEST PUSH1 0x0 DUP2 CALLDATALOAD SWAP1 POP PUSH2 0x10C1 DUP2 PUSH2 0x109B JUMP JUMPDEST SWAP3 SWAP2 POP POP JUMP JUMPDEST PUSH1 0x0 DUP1 PUSH1 0x40 DUP4 DUP6 SUB SLT ISZERO PUSH2 0x10DE JUMPI PUSH2 0x10DD PUSH2 0x1064 JUMP JUMPDEST JUMPDEST PUSH1 0x0 PUSH2 0x10EC DUP6 DUP3 DUP7 ADD PUSH2 0x10B2 JUMP JUMPDEST SWAP3 POP POP PUSH1 0x20 PUSH2 0x10FD DUP6 DUP3 DUP7 ADD PUSH2 0x10B2 JUMP JUMPDEST SWAP2 POP POP SWAP3 POP SWAP3 SWAP1 POP JUMP JUMPDEST PUSH1 0x0 DUP2 SWAP1 POP SWAP2 SWAP1 POP JUMP JUMPDEST PUSH2 0x111A DUP2 PUSH2 0x1107 JUMP JUMPDEST DUP3 MSTORE POP POP JUMP JUMPDEST PUSH1 0x0 PUSH1 0x20 DUP3 ADD SWAP1 POP PUSH2 0x1135 PUSH1 0x0 DUP4 ADD DUP5 PUSH2 0x1111 JUMP JUMPDEST SWAP3 SWAP2 POP POP JUMP JUMPDEST PUSH2 0x1144 DUP2 PUSH2 0x1107 JUMP JUMPDEST DUP2 EQ PUSH2 0x114F JUMPI PUSH1 0x0 DUP1 REVERT JUMPDEST POP JUMP JUMPDEST PUSH1 0x0 DUP2 CALLDATALOAD SWAP1 POP PUSH2 0x1161 DUP2 PUSH2 0x113B JUMP JUMPDEST SWAP3 SWAP2 POP POP JUMP JUMPDEST PUSH1 0x0 DUP1 PUSH1 0x0 PUSH1 0x60 DUP5 DUP7 SUB SLT ISZERO PUSH2 0x1180 JUMPI PUSH2 0x117F PUSH2 0x1064 JUMP JUMPDEST JUMPDEST PUSH1 0x0 PUSH2 0x118E DUP7 DUP3 DUP8 ADD PUSH2 0x10B2 JUMP JUMPDEST SWAP4 POP POP PUSH1 0x20 PUSH2 0x119F DUP7 DUP3 DUP8 ADD PUSH2 0x10B2 JUMP JUMPDEST SWAP3 POP POP PUSH1 0x40 PUSH2 0x11B0 DUP7 DUP3 DUP8 ADD PUSH2 0x1152 JUMP JUMPDEST SWAP2 POP POP SWAP3 POP SWAP3 POP SWAP3 JUMP JUMPDEST PUSH1 0x0 DUP2 ISZERO ISZERO SWAP1 POP SWAP2 SWAP1 POP JUMP JUMPDEST PUSH2 0x11CF DUP2 PUSH2 0x11BA JUMP JUMPDEST DUP3 MSTORE POP POP JUMP JUMPDEST PUSH1 0x0 PUSH1 0x20 DUP3 ADD SWAP1 POP PUSH2 0x11EA PUSH1 0x0 DUP4 ADD DUP5 PUSH2 0x11C6 JUMP JUMPDEST SWAP3 SWAP2 POP POP JUMP JUMPDEST PUSH1 0x0 DUP1 PUSH1 0x40 DUP4 DUP6 SUB SLT ISZERO PUSH2 0x1207 JUMPI PUSH2 0x1206 PUSH2 0x1064 JUMP JUMPDEST JUMPDEST PUSH1 0x0 PUSH2 0x1215 DUP6 DUP3 DUP7 ADD PUSH2 0x10B2 JUMP JUMPDEST SWAP3 POP POP PUSH1 0x20 PUSH2 0x1226 DUP6 DUP3 DUP7 ADD PUSH2 0x1152 JUMP JUMPDEST SWAP2 POP POP SWAP3 POP SWAP3 SWAP1 POP JUMP JUMPDEST PUSH1 0x0 PUSH1 0xFF DUP3 AND SWAP1 POP SWAP2 SWAP1 POP JUMP JUMPDEST PUSH2 0x1246 DUP2 PUSH2 0x1230 JUMP JUMPDEST DUP3 MSTORE POP POP JUMP JUMPDEST PUSH1 0x0 PUSH1 0x20 DUP3 ADD SWAP1 POP PUSH2 0x1261 PUSH1 0x0 DUP4 ADD DUP5 PUSH2 0x123D JUMP JUMPDEST SWAP3 SWAP2 POP POP JUMP JUMPDEST PUSH2 0x1270 DUP2 PUSH2 0x11BA JUMP JUMPDEST DUP2 EQ PUSH2 0x127B JUMPI PUSH1 0x0 DUP1 REVERT JUMPDEST POP JUMP JUMPDEST PUSH1 0x0 DUP2 CALLDATALOAD SWAP1 POP PUSH2 0x128D DUP2 PUSH2 0x1267 JUMP JUMPDEST SWAP3 SWAP2 POP POP JUMP JUMPDEST PUSH1 0x0 DUP1 PUSH1 0x40 DUP4 DUP6 SUB SLT ISZERO PUSH2 0x12AA JUMPI PUSH2 0x12A9 PUSH2 0x1064 JUMP JUMPDEST JUMPDEST PUSH1 0x0 PUSH2 0x12B8 DUP6 DUP3 DUP7 ADD PUSH2 0x10B2 JUMP JUMPDEST SWAP3 POP POP PUSH1 0x20 PUSH2 0x12C9 DUP6 DUP3 DUP7 ADD PUSH2 0x127E JUMP JUMPDEST SWAP2 POP POP SWAP3 POP SWAP3 SWAP1 POP JUMP JUMPDEST PUSH1 0x0 PUSH1 0x20 DUP3 DUP5 SUB SLT ISZERO PUSH2 0x12E9 JUMPI PUSH2 0x12E8 PUSH2 0x1064 JUMP JUMPDEST JUMPDEST PUSH1 0x0 PUSH2 0x12F7 DUP5 DUP3 DUP6 ADD PUSH2 0x10B2 JUMP JUMPDEST SWAP2 POP POP SWAP3 SWAP2 POP POP JUMP JUMPDEST PUSH2 0x1309 DUP2 PUSH2 0x1089 JUMP JUMPDEST DUP3 MSTORE POP POP JUMP JUMPDEST PUSH1 0x0 PUSH1 0x20 DUP3 ADD SWAP1 POP PUSH2 0x1324 PUSH1 0x0 DUP4 ADD DUP5 PUSH2 0x1300 JUMP JUMPDEST SWAP3 SWAP2 POP POP JUMP JUMPDEST PUSH32 0x4E487B7100000000000000000000000000000000000000000000000000000000 PUSH1 0x0 MSTORE PUSH1 0x22 PUSH1 0x4 MSTORE PUSH1 0x24 PUSH1 0x0 REVERT JUMPDEST PUSH1 0x0 PUSH1 0x2 DUP3 DIV SWAP1 POP PUSH1 0x1 DUP3 AND DUP1 PUSH2 0x1371 JUMPI PUSH1 0x7F DUP3 AND SWAP2 POP JUMPDEST PUSH1 0x20 DUP3 LT DUP2 SUB PUSH2 0x1384 JUMPI PUSH2 0x1383 PUSH2 0x132A JUMP JUMPDEST JUMPDEST POP SWAP2 SWAP1 POP JUMP JUMPDEST PUSH32 0x4E487B7100000000000000000000000000000000000000000000000000000000 PUSH1 0x0 MSTORE PUSH1 0x11 PUSH1 0x4 MSTORE PUSH1 0x24 PUSH1 0x0 REVERT JUMPDEST PUSH1 0x0 PUSH2 0x13C4 DUP3 PUSH2 0x1107 JUMP JUMPDEST SWAP2 POP PUSH2 0x13CF DUP4 PUSH2 0x1107 JUMP JUMPDEST SWAP3 POP DUP3 DUP3 ADD SWAP1 POP DUP1 DUP3 GT ISZERO PUSH2 0x13E7 JUMPI PUSH2 0x13E6 PUSH2 0x138A JUMP JUMPDEST JUMPDEST SWAP3 SWAP2 POP POP JUMP JUMPDEST PUSH1 0x0 PUSH2 0x13F8 DUP3 PUSH2 0x1107 JUMP JUMPDEST SWAP2 POP PUSH2 0x1403 DUP4 PUSH2 0x1107 JUMP JUMPDEST SWAP3 POP DUP3 DUP3 SUB SWAP1 POP DUP2 DUP2 GT ISZERO PUSH2 0x141B JUMPI PUSH2 0x141A PUSH2 0x138A JUMP JUMPDEST JUMPDEST SWAP3 SWAP2 POP POP JUMP JUMPDEST PUSH1 0x0 PUSH1 0x60 DUP3 ADD SWAP1 POP PUSH2 0x1436 PUSH1 0x0 DUP4 ADD DUP7 PUSH2 0x1300 JUMP JUMPDEST PUSH2 0x1443 PUSH1 0x20 DUP4 ADD DUP6 PUSH2 0x1300 JUMP JUMPDEST PUSH2 0x1450 PUSH1 0x40 DUP4 ADD DUP5 PUSH2 0x1111 JUMP JUMPDEST SWAP5 SWAP4 POP POP POP POP JUMP JUMPDEST PUSH32 0x4E487B7100000000000000000000000000000000000000000000000000000000 PUSH1 0x0 MSTORE PUSH1 0x32 PUSH1 0x4 MSTORE PUSH1 0x24 PUSH1 0x0 REVERT JUMPDEST PUSH32 0x4E487B7100000000000000000000000000000000000000000000000000000000 PUSH1 0x0 MSTORE PUSH1 0x31 PUSH1 0x4 MSTORE PUSH1 0x24 PUSH1 0x0 REVERT JUMPDEST PUSH1 0x0 PUSH2 0x14C1 DUP3 PUSH2 0x1107 JUMP JUMPDEST SWAP2 POP PUSH32 0xFFFFFFFFFFFFFFFFFFFFFFFFFFFFFFFFFFFFFFFFFFFFFFFFFFFFFFFFFFFFFFFF DUP3 SUB PUSH2 0x14F3 JUMPI PUSH2 0x14F2 PUSH2 0x138A JUMP JUMPDEST JUMPDEST PUSH1 0x1 DUP3 ADD SWAP1 POP SWAP2 SWAP1 POP JUMP JUMPDEST PUSH32 0x4E487B7100000000000000000000000000000000000000000000000000000000 PUSH1 0x0 MSTORE PUSH1 0x1 PUSH1 0x4 MSTORE PUSH1 0x24 PUSH1 0x0 REVERT INVALID LOG2 PUSH5 0x6970667358 0x22 SLT KECCAK256 SDIV 0x25 0x29 SWAP6 LOG0 PUSH8 0xE2F0C37652846B2E BALANCE PC DUP4 SWAP8 SIGNEXTEND 0xEE 0x49 SWAP7 LOG3 MUL PUSH6 0x5B91A21709DF 0xE4 PUSH5 0x736F6C6343 STOP ADDMOD SLT STOP CALLER "
				},
				"gasEstimates": {
					"creation": {
						"codeDepositCost": "1095000",
						"executionCost": "infinite",
						"totalCost": "infinite"
					},
					"external": {
						"_owner()": "2599",
						"balanceOf(address)": "2836",
						"decimals()": "2582",
						"getAllowance(address,address)": "infinite",
						"isFrozen(address)": "infinite",
						"name()": "infinite",
						"setAllowance(address,uint256)": "infinite",
						"setFrozenAccount(address,bool)": "infinite",
						"symbol()": "infinite",
						"totalSupply()": "2474",
						"transfer(address,uint256)": "infinite",
						"transferFrom(address,address,uint256)": "infinite"
					}
				},
				"methodIdentifiers": {
					"_owner()": "b2bdfa7b",
					"balanceOf(address)": "70a08231",
					"decimals()": "313ce567",
					"getAllowance(address,address)": "0af4187d",
					"isFrozen(address)": "e5839836",
					"name()": "06fdde03",
					"setAllowance(address,uint256)": "310ec4a7",
					"setFrozenAccount(address,bool)": "45b7d5da",
					"symbol()": "95d89b41",
					"totalSupply()": "18160ddd",
					"transfer(address,uint256)": "a9059cbb",
					"transferFrom(address,address,uint256)": "23b872dd"
				}
			},
			"storageLayout": {
				"storage": [
					{
						"astId": 3,
						"contract": "MyContract.sol:MyToken",
						"label": "_owner",
						"offset": 0,
						"slot": "0",
						"type": "t_address"
					},
					{
						"astId": 5,
						"contract": "MyContract.sol:MyToken",
						"label": "name",
						"offset": 0,
						"slot": "1",
						"type": "t_string_storage"
					},
					{
						"astId": 7,
						"contract": "MyContract.sol:MyToken",
						"label": "symbol",
						"offset": 0,
						"slot": "2",
						"type": "t_string_storage"
					},
					{
						"astId": 10,
						"contract": "MyContract.sol:MyToken",
						"label": "decimals",
						"offset": 0,
						"slot": "3",
						"type": "t_uint8"
					},
					{
						"astId": 12,
						"contract": "MyContract.sol:MyToken",
						"label": "totalSupply",
						"offset": 0,
						"slot": "4",
						"type": "t_uint256"
					},
					{
						"astId": 16,
						"contract": "MyContract.sol:MyToken",
						"label": "balanceOf",
						"offset": 0,
						"slot": "5",
						"type": "t_mapping(t_address,t_uint256)"
					},
					{
						"astId": 22,
						"contract": "MyContract.sol:MyToken",
						"label": "_allowed",
						"offset": 0,
						"slot": "6",
						"type": "t_mapping(t_address,t_mapping(t_address,t_uint256))"
					},
					{
						"astId": 28,
						"contract": "MyContract.sol:MyToken",
						"label": "_allowance",
						"offset": 0,
						"slot": "7",
						"type": "t_mapping(t_address,t_mapping(t_address,t_uint256))"
					},
					{
						"astId": 31,
						"contract": "MyContract.sol:MyToken",
						"label": "_frozenAddresses",
						"offset": 0,
						"slot": "8",
						"type": "t_array(t_address)dyn_storage"
					}
				],
				"types": {
					"t_address": {
						"encoding": "inplace",
						"label": "address",
						"numberOfBytes": "20"
					},
					"t_array(t_address)dyn_storage": {
						"base": "t_address",
						"encoding": "dynamic_array",
						"label": "address[]",
						"numberOfBytes": "32"
					},
					"t_mapping(t_address,t_mapping(t_address,t_uint256))": {
						"encoding": "mapping",
						"key": "t_address",
						"label": "mapping(address => mapping(address => uint256))",
						"numberOfBytes": "32",
						"value": "t_mapping(t_address,t_uint256)"
					},
					"t_mapping(t_address,t_uint256)": {
						"encoding": "mapping",
						"key": "t_address",
						"label": "mapping(address => uint256)",
						"numberOfBytes": "32",
						"value": "t_uint256"
					},
					"t_string_storage": {
						"encoding": "bytes",
						"label": "string",
						"numberOfBytes": "32"
					},
					"t_uint256": {
						"encoding": "inplace",
						"label": "uint256",
						"numberOfBytes": "32"
					},
					"t_uint8": {
						"encoding": "inplace",
						"label": "uint8",
						"numberOfBytes": "1"
					}
				}
			},
			"userdoc": {
				"kind": "user",
				"methods": {},
				"version": 1
			}
		}
	}
}